{
  "_format": "hh-sol-artifact-1",
  "contractName": "ENS",
  "sourceName": "contracts/ENS.sol",
  "abi": [
    {
      "inputs": [],
      "stateMutability": "payable",
      "type": "constructor"
    },
    {
      "inputs": [
        {
          "internalType": "uint256",
          "name": "expected",
          "type": "uint256"
        },
        {
          "internalType": "uint256",
          "name": "sent",
          "type": "uint256"
        }
      ],
      "name": "InvalidFunds",
      "type": "error"
    },
    {
      "inputs": [
        {
          "internalType": "string",
          "name": "name",
          "type": "string"
        }
      ],
      "name": "InvalidName",
      "type": "error"
    },
    {
      "inputs": [],
      "name": "NameAlreadyExists",
      "type": "error"
    },
    {
      "inputs": [],
      "name": "Unauthorized",
      "type": "error"
    },
    {
      "anonymous": false,
      "inputs": [
        {
          "indexed": true,
          "internalType": "address",
          "name": "owner",
          "type": "address"
        },
        {
          "indexed": true,
          "internalType": "address",
          "name": "approved",
          "type": "address"
        },
        {
          "indexed": true,
          "internalType": "uint256",
          "name": "tokenId",
          "type": "uint256"
        }
      ],
      "name": "Approval",
      "type": "event"
    },
    {
      "anonymous": false,
      "inputs": [
        {
          "indexed": true,
          "internalType": "address",
          "name": "owner",
          "type": "address"
        },
        {
          "indexed": true,
          "internalType": "address",
          "name": "operator",
          "type": "address"
        },
        {
          "indexed": false,
          "internalType": "bool",
          "name": "approved",
          "type": "bool"
        }
      ],
      "name": "ApprovalForAll",
      "type": "event"
    },
    {
      "anonymous": false,
      "inputs": [
        {
          "indexed": false,
          "internalType": "string",
          "name": "name",
          "type": "string"
        },
        {
          "indexed": true,
          "internalType": "address",
          "name": "owner",
          "type": "address"
        }
      ],
      "name": "RegisterName",
      "type": "event"
    },
    {
      "anonymous": false,
      "inputs": [
        {
          "indexed": true,
          "internalType": "address",
          "name": "from",
          "type": "address"
        },
        {
          "indexed": true,
          "internalType": "address",
          "name": "to",
          "type": "address"
        },
        {
          "indexed": true,
          "internalType": "uint256",
          "name": "tokenId",
          "type": "uint256"
        }
      ],
      "name": "Transfer",
      "type": "event"
    },
    {
      "anonymous": false,
      "inputs": [
        {
          "indexed": false,
          "internalType": "string",
          "name": "name",
          "type": "string"
        }
      ],
      "name": "UpdateData",
      "type": "event"
    },
    {
      "inputs": [
        {
          "internalType": "address",
          "name": "to",
          "type": "address"
        },
        {
          "internalType": "uint256",
          "name": "tokenId",
          "type": "uint256"
        }
      ],
      "name": "approve",
      "outputs": [],
      "stateMutability": "nonpayable",
      "type": "function"
    },
    {
      "inputs": [
        {
          "internalType": "address",
          "name": "owner",
          "type": "address"
        }
      ],
      "name": "balanceOf",
      "outputs": [
        {
          "internalType": "uint256",
          "name": "",
          "type": "uint256"
        }
      ],
      "stateMutability": "view",
      "type": "function"
    },
    {
      "inputs": [
        {
          "internalType": "string",
          "name": "",
          "type": "string"
        }
      ],
      "name": "data",
      "outputs": [
        {
          "internalType": "string",
          "name": "ethAddress",
          "type": "string"
        },
        {
          "internalType": "string",
          "name": "btcAddress",
          "type": "string"
        },
        {
          "internalType": "string",
          "name": "ltcAddress",
          "type": "string"
        },
        {
          "internalType": "string",
          "name": "bnbAddress",
          "type": "string"
        },
        {
          "internalType": "string",
          "name": "solanaAddress",
          "type": "string"
        }
      ],
      "stateMutability": "view",
      "type": "function"
    },
    {
      "inputs": [
        {
          "internalType": "uint256",
          "name": "tokenId",
          "type": "uint256"
        }
      ],
      "name": "getApproved",
      "outputs": [
        {
          "internalType": "address",
          "name": "",
          "type": "address"
        }
      ],
      "stateMutability": "view",
      "type": "function"
    },
    {
      "inputs": [],
      "name": "getNames",
      "outputs": [
        {
          "internalType": "string[]",
          "name": "",
          "type": "string[]"
        }
      ],
      "stateMutability": "view",
      "type": "function"
    },
    {
      "inputs": [
        {
          "internalType": "string",
          "name": "domain",
          "type": "string"
        }
      ],
      "name": "getTokenUri",
      "outputs": [
        {
          "internalType": "string",
          "name": "uri",
          "type": "string"
        }
      ],
      "stateMutability": "view",
      "type": "function"
    },
    {
      "inputs": [
        {
          "internalType": "address",
          "name": "owner",
          "type": "address"
        },
        {
          "internalType": "address",
          "name": "operator",
          "type": "address"
        }
      ],
      "name": "isApprovedForAll",
      "outputs": [
        {
          "internalType": "bool",
          "name": "",
          "type": "bool"
        }
      ],
      "stateMutability": "view",
      "type": "function"
    },
    {
      "inputs": [],
      "name": "name",
      "outputs": [
        {
          "internalType": "string",
          "name": "",
          "type": "string"
        }
      ],
      "stateMutability": "view",
      "type": "function"
    },
    {
      "inputs": [
        {
          "internalType": "string",
          "name": "",
          "type": "string"
        }
      ],
      "name": "nameToIds",
      "outputs": [
        {
          "internalType": "uint256",
          "name": "",
          "type": "uint256"
        }
      ],
      "stateMutability": "view",
      "type": "function"
    },
    {
      "inputs": [
        {
          "internalType": "uint256",
          "name": "",
          "type": "uint256"
        }
      ],
      "name": "names",
      "outputs": [
        {
          "internalType": "string",
          "name": "",
          "type": "string"
        }
      ],
      "stateMutability": "view",
      "type": "function"
    },
    {
      "inputs": [],
      "name": "owner",
      "outputs": [
        {
          "internalType": "address payable",
          "name": "",
          "type": "address"
        }
      ],
      "stateMutability": "view",
      "type": "function"
    },
    {
      "inputs": [
        {
          "internalType": "uint256",
          "name": "tokenId",
          "type": "uint256"
        }
      ],
      "name": "ownerOf",
      "outputs": [
        {
          "internalType": "address",
          "name": "",
          "type": "address"
        }
      ],
      "stateMutability": "view",
      "type": "function"
    },
    {
      "inputs": [
        {
          "internalType": "string",
          "name": "",
          "type": "string"
        },
        {
          "internalType": "string",
          "name": "",
          "type": "string"
        }
      ],
      "name": "register",
      "outputs": [
        {
          "internalType": "address",
          "name": "",
          "type": "address"
        }
      ],
      "stateMutability": "view",
      "type": "function"
    },
    {
      "inputs": [
        {
          "internalType": "address",
          "name": "from",
          "type": "address"
        },
        {
          "internalType": "address",
          "name": "to",
          "type": "address"
        },
        {
          "internalType": "uint256",
          "name": "tokenId",
          "type": "uint256"
        }
      ],
      "name": "safeTransferFrom",
      "outputs": [],
      "stateMutability": "nonpayable",
      "type": "function"
    },
    {
      "inputs": [
        {
          "internalType": "address",
          "name": "from",
          "type": "address"
        },
        {
          "internalType": "address",
          "name": "to",
          "type": "address"
        },
        {
          "internalType": "uint256",
          "name": "tokenId",
          "type": "uint256"
        },
        {
          "internalType": "bytes",
          "name": "data",
          "type": "bytes"
        }
      ],
      "name": "safeTransferFrom",
      "outputs": [],
      "stateMutability": "nonpayable",
      "type": "function"
    },
    {
      "inputs": [
        {
          "internalType": "address",
          "name": "operator",
          "type": "address"
        },
        {
          "internalType": "bool",
          "name": "approved",
          "type": "bool"
        }
      ],
      "name": "setApprovalForAll",
      "outputs": [],
      "stateMutability": "nonpayable",
      "type": "function"
    },
    {
      "inputs": [
        {
          "internalType": "string",
          "name": "_name",
          "type": "string"
        },
        {
          "internalType": "string",
          "name": "_tld",
          "type": "string"
        },
        {
          "internalType": "string[]",
          "name": "_data",
          "type": "string[]"
        }
      ],
      "name": "setData",
      "outputs": [],
      "stateMutability": "nonpayable",
      "type": "function"
    },
    {
      "inputs": [
        {
          "internalType": "string",
          "name": "_name",
          "type": "string"
        },
        {
          "internalType": "string",
          "name": "_tld",
          "type": "string"
        }
      ],
      "name": "setName",
      "outputs": [],
      "stateMutability": "payable",
      "type": "function"
    },
    {
      "inputs": [
        {
          "internalType": "bytes4",
          "name": "interfaceId",
          "type": "bytes4"
        }
      ],
      "name": "supportsInterface",
      "outputs": [
        {
          "internalType": "bool",
          "name": "",
          "type": "bool"
        }
      ],
      "stateMutability": "view",
      "type": "function"
    },
    {
      "inputs": [],
      "name": "symbol",
      "outputs": [
        {
          "internalType": "string",
          "name": "",
          "type": "string"
        }
      ],
      "stateMutability": "view",
      "type": "function"
    },
    {
      "inputs": [
        {
          "internalType": "string",
          "name": "",
          "type": "string"
        }
      ],
      "name": "tldCount",
      "outputs": [
        {
          "internalType": "uint256",
          "name": "",
          "type": "uint256"
        }
      ],
      "stateMutability": "view",
      "type": "function"
    },
    {
      "inputs": [
        {
          "internalType": "uint256",
          "name": "tokenId",
          "type": "uint256"
        }
      ],
      "name": "tokenURI",
      "outputs": [
        {
          "internalType": "string",
          "name": "",
          "type": "string"
        }
      ],
      "stateMutability": "view",
      "type": "function"
    },
    {
      "inputs": [
        {
          "internalType": "address",
          "name": "from",
          "type": "address"
        },
        {
          "internalType": "address",
          "name": "to",
          "type": "address"
        },
        {
          "internalType": "uint256",
          "name": "tokenId",
          "type": "uint256"
        }
      ],
      "name": "transferFrom",
      "outputs": [],
      "stateMutability": "nonpayable",
      "type": "function"
    },
    {
      "inputs": [],
      "name": "withdraw",
      "outputs": [],
      "stateMutability": "payable",
      "type": "function"
    }
  ],
  "bytecode": "0x60a06040526040518060400160405280600f81526020017f556d6272656c6c6120546f6b656e7300000000000000000000000000000000008152506040518060400160405280600381526020017f554d54000000000000000000000000000000000000000000000000000000000081525081600090816200008191906200034a565b5080600190816200009391906200034a565b5050503373ffffffffffffffffffffffffffffffffffffffff1660808173ffffffffffffffffffffffffffffffffffffffff168152505062000431565b600081519050919050565b7f4e487b7100000000000000000000000000000000000000000000000000000000600052604160045260246000fd5b7f4e487b7100000000000000000000000000000000000000000000000000000000600052602260045260246000fd5b600060028204905060018216806200015257607f821691505b6020821081036200016857620001676200010a565b5b50919050565b60008190508160005260206000209050919050565b60006020601f8301049050919050565b600082821b905092915050565b600060088302620001d27fffffffffffffffffffffffffffffffffffffffffffffffffffffffffffffffff8262000193565b620001de868362000193565b95508019841693508086168417925050509392505050565b6000819050919050565b6000819050919050565b60006200022b620002256200021f84620001f6565b62000200565b620001f6565b9050919050565b6000819050919050565b62000247836200020a565b6200025f620002568262000232565b848454620001a0565b825550505050565b600090565b6200027662000267565b620002838184846200023c565b505050565b5b81811015620002ab576200029f6000826200026c565b60018101905062000289565b5050565b601f821115620002fa57620002c4816200016e565b620002cf8462000183565b81016020851015620002df578190505b620002f7620002ee8562000183565b83018262000288565b50505b505050565b600082821c905092915050565b60006200031f60001984600802620002ff565b1980831691505092915050565b60006200033a83836200030c565b9150826002028217905092915050565b6200035582620000d0565b67ffffffffffffffff811115620003715762000370620000db565b5b6200037d825462000139565b6200038a828285620002af565b600060209050601f831160018114620003c25760008415620003ad578287015190505b620003b985826200032c565b86555062000429565b601f198416620003d2866200016e565b60005b82811015620003fc57848901518255600182019150602085019450602081019050620003d5565b868310156200041c578489015162000418601f8916826200030c565b8355505b6001600288020188555050505b505050505050565b60805161560e6200045460003960008181610f4801526116fb015261560e6000f3fe60806040526004361061014b5760003560e01c80635c707f07116100b6578063a22cb4651161006f578063a22cb465146104c4578063b88d4fde146104ed578063c87b56dd14610516578063cd838f0f14610553578063d40089e01461057e578063e985e9c5146105bb5761014b565b80635c707f071461039b5780636352211e146103b757806370a08231146103f45780638da5cb5b1461043157806395d89b411461045c5780639c1f1b8c146104875761014b565b80632040453911610108578063204045391461028857806323b872dd146102c55780633ccfd60b146102ee5780633ffbd47f146102f857806342842e0e146103355780634622ab031461035e5761014b565b806301ffc9a71461015057806304f6748c1461018d57806306fdde03146101ce578063081812fc146101f9578063095ea7b3146102365780631ecf4f6f1461025f575b600080fd5b34801561015c57600080fd5b5061017760048036038101906101729190612fec565b6105f8565b6040516101849190613034565b60405180910390f35b34801561019957600080fd5b506101b460048036038101906101af9190613195565b6106da565b6040516101c595949392919061325d565b60405180910390f35b3480156101da57600080fd5b506101e36109ce565b6040516101f091906132d3565b60405180910390f35b34801561020557600080fd5b50610220600480360381019061021b919061332b565b610a60565b60405161022d9190613399565b60405180910390f35b34801561024257600080fd5b5061025d600480360381019061025891906133e0565b610aa6565b005b34801561026b57600080fd5b50610286600480360381019061028191906134d6565b610bbd565b005b34801561029457600080fd5b506102af60048036038101906102aa9190613195565b610eb8565b6040516102bc9190613599565b60405180910390f35b3480156102d157600080fd5b506102ec60048036038101906102e791906135b4565b610ee6565b005b6102f6610f46565b005b34801561030457600080fd5b5061031f600480360381019061031a9190613607565b61101a565b60405161032c9190613399565b60405180910390f35b34801561034157600080fd5b5061035c600480360381019061035791906135b4565b611088565b005b34801561036a57600080fd5b506103856004803603810190610380919061332b565b6110a8565b60405161039291906132d3565b60405180910390f35b6103b560048036038101906103b0919061367f565b611154565b005b3480156103c357600080fd5b506103de60048036038101906103d9919061332b565b6115bc565b6040516103eb9190613399565b60405180910390f35b34801561040057600080fd5b5061041b60048036038101906104169190613700565b611642565b6040516104289190613599565b60405180910390f35b34801561043d57600080fd5b506104466116f9565b604051610453919061374e565b60405180910390f35b34801561046857600080fd5b5061047161171d565b60405161047e91906132d3565b60405180910390f35b34801561049357600080fd5b506104ae60048036038101906104a99190613769565b6117af565b6040516104bb91906132d3565b60405180910390f35b3480156104d057600080fd5b506104eb60048036038101906104e691906137e2565b6117e8565b005b3480156104f957600080fd5b50610514600480360381019061050f91906138c3565b6117fe565b005b34801561052257600080fd5b5061053d6004803603810190610538919061332b565b611860565b60405161054a91906132d3565b60405180910390f35b34801561055f57600080fd5b50610568611972565b6040516105759190613a52565b60405180910390f35b34801561058a57600080fd5b506105a560048036038101906105a09190613195565b611a51565b6040516105b29190613599565b60405180910390f35b3480156105c757600080fd5b506105e260048036038101906105dd9190613a74565b611a7f565b6040516105ef9190613034565b60405180910390f35b60007f80ac58cd000000000000000000000000000000000000000000000000000000007bffffffffffffffffffffffffffffffffffffffffffffffffffffffff1916827bffffffffffffffffffffffffffffffffffffffffffffffffffffffff191614806106c357507f5b5e139f000000000000000000000000000000000000000000000000000000007bffffffffffffffffffffffffffffffffffffffffffffffffffffffff1916827bffffffffffffffffffffffffffffffffffffffffffffffffffffffff1916145b806106d357506106d282611b13565b5b9050919050565b600a8180516020810182018051848252602083016020850120818352809550505050505060009150905080600001805461071390613ae3565b80601f016020809104026020016040519081016040528092919081815260200182805461073f90613ae3565b801561078c5780601f106107615761010080835404028352916020019161078c565b820191906000526020600020905b81548152906001019060200180831161076f57829003601f168201915b5050505050908060010180546107a190613ae3565b80601f01602080910402602001604051908101604052809291908181526020018280546107cd90613ae3565b801561081a5780601f106107ef5761010080835404028352916020019161081a565b820191906000526020600020905b8154815290600101906020018083116107fd57829003601f168201915b50505050509080600201805461082f90613ae3565b80601f016020809104026020016040519081016040528092919081815260200182805461085b90613ae3565b80156108a85780601f1061087d576101008083540402835291602001916108a8565b820191906000526020600020905b81548152906001019060200180831161088b57829003601f168201915b5050505050908060030180546108bd90613ae3565b80601f01602080910402602001604051908101604052809291908181526020018280546108e990613ae3565b80156109365780601f1061090b57610100808354040283529160200191610936565b820191906000526020600020905b81548152906001019060200180831161091957829003601f168201915b50505050509080600401805461094b90613ae3565b80601f016020809104026020016040519081016040528092919081815260200182805461097790613ae3565b80156109c45780601f10610999576101008083540402835291602001916109c4565b820191906000526020600020905b8154815290600101906020018083116109a757829003601f168201915b5050505050905085565b6060600080546109dd90613ae3565b80601f0160208091040260200160405190810160405280929190818152602001828054610a0990613ae3565b8015610a565780601f10610a2b57610100808354040283529160200191610a56565b820191906000526020600020905b815481529060010190602001808311610a3957829003601f168201915b5050505050905090565b6000610a6b82611b7d565b6004600083815260200190815260200160002060009054906101000a900473ffffffffffffffffffffffffffffffffffffffff169050919050565b6000610ab1826115bc565b90508073ffffffffffffffffffffffffffffffffffffffff168373ffffffffffffffffffffffffffffffffffffffff1603610b21576040517f08c379a0000000000000000000000000000000000000000000000000000000008152600401610b1890613b86565b60405180910390fd5b8073ffffffffffffffffffffffffffffffffffffffff16610b40611bc8565b73ffffffffffffffffffffffffffffffffffffffff161480610b6f5750610b6e81610b69611bc8565b611a7f565b5b610bae576040517f08c379a0000000000000000000000000000000000000000000000000000000008152600401610ba590613c18565b60405180910390fd5b610bb88383611bd0565b505050565b3373ffffffffffffffffffffffffffffffffffffffff1660088585604051610be6929190613c68565b90815260200160405180910390208787604051610c04929190613c68565b908152602001604051809103902060009054906101000a900473ffffffffffffffffffffffffffffffffffffffff1673ffffffffffffffffffffffffffffffffffffffff1614610c80576040517f82b4290000000000000000000000000000000000000000000000000000000000815260040160405180910390fd5b600086868686604051602001610c999493929190613ca7565b604051602081830303815290604052905082826000818110610cbe57610cbd613cde565b5b9050602002810190610cd09190613d1c565b600a83604051610ce09190613db0565b90815260200160405180910390206000019182610cfe929190613f7e565b5082826001818110610d1357610d12613cde565b5b9050602002810190610d259190613d1c565b600a83604051610d359190613db0565b90815260200160405180910390206001019182610d53929190613f7e565b5082826002818110610d6857610d67613cde565b5b9050602002810190610d7a9190613d1c565b600a83604051610d8a9190613db0565b90815260200160405180910390206002019182610da8929190613f7e565b5082826003818110610dbd57610dbc613cde565b5b9050602002810190610dcf9190613d1c565b600a83604051610ddf9190613db0565b90815260200160405180910390206003019182610dfd929190613f7e565b5082826004818110610e1257610e11613cde565b5b9050602002810190610e249190613d1c565b600a83604051610e349190613db0565b90815260200160405180910390206004019182610e52929190613f7e565b507ff68065a4b091644ab4f0a078f9322a97b3f01849dc0951d33c7e0c7821ea66e187878787604051602001610e8b9493929190613ca7565b604051602081830303815290604052604051610ea791906132d3565b60405180910390a150505050505050565b600b818051602081018201805184825260208301602085012081835280955050505050506000915090505481565b610ef7610ef1611bc8565b82611c89565b610f36576040517f08c379a0000000000000000000000000000000000000000000000000000000008152600401610f2d906140c0565b60405180910390fd5b610f41838383611d1e565b505050565b7f000000000000000000000000000000000000000000000000000000000000000073ffffffffffffffffffffffffffffffffffffffff163373ffffffffffffffffffffffffffffffffffffffff1614610fcb576040517f82b4290000000000000000000000000000000000000000000000000000000000815260040160405180910390fd5b60004790503373ffffffffffffffffffffffffffffffffffffffff166108fc829081150290604051600060405180830381858888f19350505050158015611016573d6000803e3d6000fd5b5050565b600882805160208101820180518482526020830160208501208183528095505050505050818051602081018201805184825260208301602085012081835280955050505050506000915091509054906101000a900473ffffffffffffffffffffffffffffffffffffffff1681565b6110a3838383604051806020016040528060008152506117fe565b505050565b600c81815481106110b857600080fd5b9060005260206000200160009150905080546110d390613ae3565b80601f01602080910402602001604051908101604052809291908181526020018280546110ff90613ae3565b801561114c5780601f106111215761010080835404028352916020019161114c565b820191906000526020600020905b81548152906001019060200180831161112f57829003601f168201915b505050505081565b60006111608585612017565b905061116c85856120d1565b6111af5784846040517f7f19f48d0000000000000000000000000000000000000000000000000000000081526004016111a692919061410d565b60405180910390fd5b803410156111f65780346040517f89bc52af0000000000000000000000000000000000000000000000000000000081526004016111ed929190614131565b60405180910390fd5b600073ffffffffffffffffffffffffffffffffffffffff1660088484604051611220929190613c68565b9081526020016040518091039020868660405161123e929190613c68565b908152602001604051809103902060009054906101000a900473ffffffffffffffffffffffffffffffffffffffff1673ffffffffffffffffffffffffffffffffffffffff16146112ba576040517fd202940c00000000000000000000000000000000000000000000000000000000815260040160405180910390fd5b6000858585856040516020016112d394939291906141a6565b60405160208183030381529060405290506000604051806108a0016040528061086b8152602001614d6e61086b9139826040518060400160405280600d81526020017f3c2f746578743e3c2f7376673e0000000000000000000000000000000000000081525060405160200161134b939291906141d9565b604051602081830303815290604052905060006113686007612185565b90506113746007612193565b60006113cd898989896040516020016113909493929190613ca7565b6040516020818303038152906040526113a8856121a9565b6040516020016113b992919061446a565b6040516020818303038152906040526121a9565b90506000816040516020016113e29190614527565b60405160208183030381529060405290506113fd338461230c565b611407838261232a565b60008a8a8a8a6040516020016114209493929190613ca7565b60405160208183030381529060405290503360088a8a604051611444929190613c68565b90815260200160405180910390208c8c604051611462929190613c68565b908152602001604051809103902060006101000a81548173ffffffffffffffffffffffffffffffffffffffff021916908373ffffffffffffffffffffffffffffffffffffffff160217905550600c819080600181540180825580915050600190039060005260206000200160009091909190915090816114e29190614549565b5083600b826040516114f49190613db0565b90815260200160405180910390208190555060098989604051611518929190613c68565b908152602001604051809103902060008154809291906115379061464a565b91905055503373ffffffffffffffffffffffffffffffffffffffff167f47295f5b4a8fe83d604cbc77f624030eda37507ba632784272248210b013232a8c8c8c8c60405160200161158b9493929190613ca7565b6040516020818303038152906040526040516115a791906132d3565b60405180910390a25050505050505050505050565b6000806115c883612397565b9050600073ffffffffffffffffffffffffffffffffffffffff168173ffffffffffffffffffffffffffffffffffffffff1603611639576040517f08c379a0000000000000000000000000000000000000000000000000000000008152600401611630906146de565b60405180910390fd5b80915050919050565b60008073ffffffffffffffffffffffffffffffffffffffff168273ffffffffffffffffffffffffffffffffffffffff16036116b2576040517f08c379a00000000000000000000000000000000000000000000000000000000081526004016116a990614770565b60405180910390fd5b600360008373ffffffffffffffffffffffffffffffffffffffff1673ffffffffffffffffffffffffffffffffffffffff168152602001908152602001600020549050919050565b7f000000000000000000000000000000000000000000000000000000000000000081565b60606001805461172c90613ae3565b80601f016020809104026020016040519081016040528092919081815260200182805461175890613ae3565b80156117a55780601f1061177a576101008083540402835291602001916117a5565b820191906000526020600020905b81548152906001019060200180831161178857829003601f168201915b5050505050905090565b60606000600b84846040516117c5929190613c68565b90815260200160405180910390205490506117df81611860565b91505092915050565b6117fa6117f3611bc8565b83836123d4565b5050565b61180f611809611bc8565b83611c89565b61184e576040517f08c379a0000000000000000000000000000000000000000000000000000000008152600401611845906140c0565b60405180910390fd5b61185a84848484612540565b50505050565b606061186b82611b7d565b600060066000848152602001908152602001600020805461188b90613ae3565b80601f01602080910402602001604051908101604052809291908181526020018280546118b790613ae3565b80156119045780601f106118d957610100808354040283529160200191611904565b820191906000526020600020905b8154815290600101906020018083116118e757829003601f168201915b50505050509050600061191561259c565b9050600081510361192a57819250505061196d565b60008251111561195f578082604051602001611947929190614790565b6040516020818303038152906040529250505061196d565b611968846125b3565b925050505b919050565b60606000600c805480602002602001604051908101604052809291908181526020016000905b82821015611a445783829060005260206000200180546119b790613ae3565b80601f01602080910402602001604051908101604052809291908181526020018280546119e390613ae3565b8015611a305780601f10611a0557610100808354040283529160200191611a30565b820191906000526020600020905b815481529060010190602001808311611a1357829003601f168201915b505050505081526020019060010190611998565b5050505090508091505090565b6009818051602081018201805184825260208301602085012081835280955050505050506000915090505481565b6000600560008473ffffffffffffffffffffffffffffffffffffffff1673ffffffffffffffffffffffffffffffffffffffff16815260200190815260200160002060008373ffffffffffffffffffffffffffffffffffffffff1673ffffffffffffffffffffffffffffffffffffffff16815260200190815260200160002060009054906101000a900460ff16905092915050565b60007f01ffc9a7000000000000000000000000000000000000000000000000000000007bffffffffffffffffffffffffffffffffffffffffffffffffffffffff1916827bffffffffffffffffffffffffffffffffffffffffffffffffffffffff1916149050919050565b611b868161261b565b611bc5576040517f08c379a0000000000000000000000000000000000000000000000000000000008152600401611bbc906146de565b60405180910390fd5b50565b600033905090565b816004600083815260200190815260200160002060006101000a81548173ffffffffffffffffffffffffffffffffffffffff021916908373ffffffffffffffffffffffffffffffffffffffff160217905550808273ffffffffffffffffffffffffffffffffffffffff16611c43836115bc565b73ffffffffffffffffffffffffffffffffffffffff167f8c5be1e5ebec7d5bd14f71427d1e84f3dd0314c0f7b2291e5b200ac8c7c3b92560405160405180910390a45050565b600080611c95836115bc565b90508073ffffffffffffffffffffffffffffffffffffffff168473ffffffffffffffffffffffffffffffffffffffff161480611cd75750611cd68185611a7f565b5b80611d1557508373ffffffffffffffffffffffffffffffffffffffff16611cfd84610a60565b73ffffffffffffffffffffffffffffffffffffffff16145b91505092915050565b8273ffffffffffffffffffffffffffffffffffffffff16611d3e826115bc565b73ffffffffffffffffffffffffffffffffffffffff1614611d94576040517f08c379a0000000000000000000000000000000000000000000000000000000008152600401611d8b90614826565b60405180910390fd5b600073ffffffffffffffffffffffffffffffffffffffff168273ffffffffffffffffffffffffffffffffffffffff1603611e03576040517f08c379a0000000000000000000000000000000000000000000000000000000008152600401611dfa906148b8565b60405180910390fd5b611e10838383600161265c565b8273ffffffffffffffffffffffffffffffffffffffff16611e30826115bc565b73ffffffffffffffffffffffffffffffffffffffff1614611e86576040517f08c379a0000000000000000000000000000000000000000000000000000000008152600401611e7d90614826565b60405180910390fd5b6004600082815260200190815260200160002060006101000a81549073ffffffffffffffffffffffffffffffffffffffff02191690556001600360008573ffffffffffffffffffffffffffffffffffffffff1673ffffffffffffffffffffffffffffffffffffffff168152602001908152602001600020600082825403925050819055506001600360008473ffffffffffffffffffffffffffffffffffffffff1673ffffffffffffffffffffffffffffffffffffffff16815260200190815260200160002060008282540192505081905550816002600083815260200190815260200160002060006101000a81548173ffffffffffffffffffffffffffffffffffffffff021916908373ffffffffffffffffffffffffffffffffffffffff160217905550808273ffffffffffffffffffffffffffffffffffffffff168473ffffffffffffffffffffffffffffffffffffffff167fddf252ad1be2c89b69c2b068fc378daa952ba7f163c4a11628f55a4df523b3ef60405160405180910390a46120128383836001612782565b505050565b60008061206784848080601f016020809104026020016040519081016040528093929190818152602001838380828437600081840152601f19601f82011690508083019250505050505050612788565b90506000811161207657600080fd5b6002810361208f5767016345785d8a00009150506120cb565b600381036120a75766b1a2bc2ec500009150506120cb565b600481036120bf57666a94d74f4300009150506120cb565b662386f26fc100009150505b92915050565b6000600261212284848080601f016020809104026020016040519081016040528093929190818152602001838380828437600081840152601f19601f82011690508083019250505050505050612788565b1015801561217d5750602061217a84848080601f016020809104026020016040519081016040528093929190818152602001838380828437600081840152601f19601f82011690508083019250505050505050612788565b11155b905092915050565b600081600001549050919050565b6001816000016000828254019250508190555050565b606060008251036121cb57604051806020016040528060008152509050612307565b6000604051806060016040528060408152602001614d2e60409139905060006003600285516121fa91906148d8565b612204919061493b565b6004612210919061496c565b67ffffffffffffffff8111156122295761222861306a565b5b6040519080825280601f01601f19166020018201604052801561225b5781602001600182028036833780820191505090505b509050600182016020820185865187015b808210156122c7576003820191508151603f8160121c168501518453600184019350603f81600c1c168501518453600184019350603f8160061c168501518453600184019350603f811685015184536001840193505061226c565b50506003865106600181146122e357600281146122f6576122fe565b603d6001830353603d60028303536122fe565b603d60018303535b50505080925050505b919050565b61232682826040518060200160405280600081525061293d565b5050565b6123338261261b565b612372576040517f08c379a000000000000000000000000000000000000000000000000000000000815260040161236990614a20565b60405180910390fd5b806006600084815260200190815260200160002090816123929190614549565b505050565b60006002600083815260200190815260200160002060009054906101000a900473ffffffffffffffffffffffffffffffffffffffff169050919050565b8173ffffffffffffffffffffffffffffffffffffffff168373ffffffffffffffffffffffffffffffffffffffff1603612442576040517f08c379a000000000000000000000000000000000000000000000000000000000815260040161243990614a8c565b60405180910390fd5b80600560008573ffffffffffffffffffffffffffffffffffffffff1673ffffffffffffffffffffffffffffffffffffffff16815260200190815260200160002060008473ffffffffffffffffffffffffffffffffffffffff1673ffffffffffffffffffffffffffffffffffffffff16815260200190815260200160002060006101000a81548160ff0219169083151502179055508173ffffffffffffffffffffffffffffffffffffffff168373ffffffffffffffffffffffffffffffffffffffff167f17307eab39ab6107e8899845ad3d59bd9653f200f220920489ca2b5937696c31836040516125339190613034565b60405180910390a3505050565b61254b848484611d1e565b61255784848484612998565b612596576040517f08c379a000000000000000000000000000000000000000000000000000000000815260040161258d90614b1e565b60405180910390fd5b50505050565b606060405180602001604052806000815250905090565b60606125be82611b7d565b60006125c861259c565b905060008151116125e85760405180602001604052806000815250612613565b806125f284612b1f565b604051602001612603929190614790565b6040516020818303038152906040525b915050919050565b60008073ffffffffffffffffffffffffffffffffffffffff1661263d83612397565b73ffffffffffffffffffffffffffffffffffffffff1614159050919050565b600181111561277c57600073ffffffffffffffffffffffffffffffffffffffff168473ffffffffffffffffffffffffffffffffffffffff16146126f05780600360008673ffffffffffffffffffffffffffffffffffffffff1673ffffffffffffffffffffffffffffffffffffffff16815260200190815260200160002060008282546126e89190614b3e565b925050819055505b600073ffffffffffffffffffffffffffffffffffffffff168373ffffffffffffffffffffffffffffffffffffffff161461277b5780600360008573ffffffffffffffffffffffffffffffffffffffff1673ffffffffffffffffffffffffffffffffffffffff168152602001908152602001600020600082825461277391906148d8565b925050819055505b5b50505050565b50505050565b60008060008084519050600092505b808210156129325760008583815181106127b4576127b3613cde565b5b602001015160f81c60f81b9050608060f81b817effffffffffffffffffffffffffffffffffffffffffffffffffffffffffffff19161015612803576001836127fc91906148d8565b925061291e565b60e060f81b817effffffffffffffffffffffffffffffffffffffffffffffffffffffffffffff191610156128455760028361283e91906148d8565b925061291d565b60f060f81b817effffffffffffffffffffffffffffffffffffffffffffffffffffffffffffff191610156128875760038361288091906148d8565b925061291c565b60f8801b817effffffffffffffffffffffffffffffffffffffffffffffffffffffffffffff191610156128c8576004836128c191906148d8565b925061291b565b60fc60f81b817effffffffffffffffffffffffffffffffffffffffffffffffffffffffffffff1916101561290a5760058361290391906148d8565b925061291a565b60068361291791906148d8565b92505b5b5b5b5b50828061292a9061464a565b935050612797565b829350505050919050565b6129478383612bed565b6129546000848484612998565b612993576040517f08c379a000000000000000000000000000000000000000000000000000000000815260040161298a90614b1e565b60405180910390fd5b505050565b60006129b98473ffffffffffffffffffffffffffffffffffffffff16612e0a565b15612b12578373ffffffffffffffffffffffffffffffffffffffff1663150b7a026129e2611bc8565b8786866040518563ffffffff1660e01b8152600401612a049493929190614bc7565b6020604051808303816000875af1925050508015612a4057506040513d601f19601f82011682018060405250810190612a3d9190614c28565b60015b612ac2573d8060008114612a70576040519150601f19603f3d011682016040523d82523d6000602084013e612a75565b606091505b506000815103612aba576040517f08c379a0000000000000000000000000000000000000000000000000000000008152600401612ab190614b1e565b60405180910390fd5b805181602001fd5b63150b7a0260e01b7bffffffffffffffffffffffffffffffffffffffffffffffffffffffff1916817bffffffffffffffffffffffffffffffffffffffffffffffffffffffff191614915050612b17565b600190505b949350505050565b606060006001612b2e84612e2d565b01905060008167ffffffffffffffff811115612b4d57612b4c61306a565b5b6040519080825280601f01601f191660200182016040528015612b7f5781602001600182028036833780820191505090505b509050600082602001820190505b600115612be2578080600190039150507f3031323334353637383961626364656600000000000000000000000000000000600a86061a8153600a8581612bd657612bd561490c565b5b04945060008503612b8d575b819350505050919050565b600073ffffffffffffffffffffffffffffffffffffffff168273ffffffffffffffffffffffffffffffffffffffff1603612c5c576040517f08c379a0000000000000000000000000000000000000000000000000000000008152600401612c5390614ca1565b60405180910390fd5b612c658161261b565b15612ca5576040517f08c379a0000000000000000000000000000000000000000000000000000000008152600401612c9c90614d0d565b60405180910390fd5b612cb360008383600161265c565b612cbc8161261b565b15612cfc576040517f08c379a0000000000000000000000000000000000000000000000000000000008152600401612cf390614d0d565b60405180910390fd5b6001600360008473ffffffffffffffffffffffffffffffffffffffff1673ffffffffffffffffffffffffffffffffffffffff16815260200190815260200160002060008282540192505081905550816002600083815260200190815260200160002060006101000a81548173ffffffffffffffffffffffffffffffffffffffff021916908373ffffffffffffffffffffffffffffffffffffffff160217905550808273ffffffffffffffffffffffffffffffffffffffff16600073ffffffffffffffffffffffffffffffffffffffff167fddf252ad1be2c89b69c2b068fc378daa952ba7f163c4a11628f55a4df523b3ef60405160405180910390a4612e06600083836001612782565b5050565b6000808273ffffffffffffffffffffffffffffffffffffffff163b119050919050565b600080600090507a184f03e93ff9f4daa797ed6e38ed64bf6a1f0100000000000000008310612e8b577a184f03e93ff9f4daa797ed6e38ed64bf6a1f0100000000000000008381612e8157612e8061490c565b5b0492506040810190505b6d04ee2d6d415b85acef81000000008310612ec8576d04ee2d6d415b85acef81000000008381612ebe57612ebd61490c565b5b0492506020810190505b662386f26fc100008310612ef757662386f26fc100008381612eed57612eec61490c565b5b0492506010810190505b6305f5e1008310612f20576305f5e1008381612f1657612f1561490c565b5b0492506008810190505b6127108310612f45576127108381612f3b57612f3a61490c565b5b0492506004810190505b60648310612f685760648381612f5e57612f5d61490c565b5b0492506002810190505b600a8310612f77576001810190505b80915050919050565b6000604051905090565b600080fd5b600080fd5b60007fffffffff0000000000000000000000000000000000000000000000000000000082169050919050565b612fc981612f94565b8114612fd457600080fd5b50565b600081359050612fe681612fc0565b92915050565b60006020828403121561300257613001612f8a565b5b600061301084828501612fd7565b91505092915050565b60008115159050919050565b61302e81613019565b82525050565b60006020820190506130496000830184613025565b92915050565b600080fd5b600080fd5b6000601f19601f8301169050919050565b7f4e487b7100000000000000000000000000000000000000000000000000000000600052604160045260246000fd5b6130a282613059565b810181811067ffffffffffffffff821117156130c1576130c061306a565b5b80604052505050565b60006130d4612f80565b90506130e08282613099565b919050565b600067ffffffffffffffff821115613100576130ff61306a565b5b61310982613059565b9050602081019050919050565b82818337600083830152505050565b6000613138613133846130e5565b6130ca565b90508281526020810184848401111561315457613153613054565b5b61315f848285613116565b509392505050565b600082601f83011261317c5761317b61304f565b5b813561318c848260208601613125565b91505092915050565b6000602082840312156131ab576131aa612f8a565b5b600082013567ffffffffffffffff8111156131c9576131c8612f8f565b5b6131d584828501613167565b91505092915050565b600081519050919050565b600082825260208201905092915050565b60005b838110156132185780820151818401526020810190506131fd565b60008484015250505050565b600061322f826131de565b61323981856131e9565b93506132498185602086016131fa565b61325281613059565b840191505092915050565b600060a08201905081810360008301526132778188613224565b9050818103602083015261328b8187613224565b9050818103604083015261329f8186613224565b905081810360608301526132b38185613224565b905081810360808301526132c78184613224565b90509695505050505050565b600060208201905081810360008301526132ed8184613224565b905092915050565b6000819050919050565b613308816132f5565b811461331357600080fd5b50565b600081359050613325816132ff565b92915050565b60006020828403121561334157613340612f8a565b5b600061334f84828501613316565b91505092915050565b600073ffffffffffffffffffffffffffffffffffffffff82169050919050565b600061338382613358565b9050919050565b61339381613378565b82525050565b60006020820190506133ae600083018461338a565b92915050565b6133bd81613378565b81146133c857600080fd5b50565b6000813590506133da816133b4565b92915050565b600080604083850312156133f7576133f6612f8a565b5b6000613405858286016133cb565b925050602061341685828601613316565b9150509250929050565b600080fd5b600080fd5b60008083601f8401126134405761343f61304f565b5b8235905067ffffffffffffffff81111561345d5761345c613420565b5b60208301915083600182028301111561347957613478613425565b5b9250929050565b60008083601f8401126134965761349561304f565b5b8235905067ffffffffffffffff8111156134b3576134b2613420565b5b6020830191508360208202830111156134cf576134ce613425565b5b9250929050565b600080600080600080606087890312156134f3576134f2612f8a565b5b600087013567ffffffffffffffff81111561351157613510612f8f565b5b61351d89828a0161342a565b9650965050602087013567ffffffffffffffff8111156135405761353f612f8f565b5b61354c89828a0161342a565b9450945050604087013567ffffffffffffffff81111561356f5761356e612f8f565b5b61357b89828a01613480565b92509250509295509295509295565b613593816132f5565b82525050565b60006020820190506135ae600083018461358a565b92915050565b6000806000606084860312156135cd576135cc612f8a565b5b60006135db868287016133cb565b93505060206135ec868287016133cb565b92505060406135fd86828701613316565b9150509250925092565b6000806040838503121561361e5761361d612f8a565b5b600083013567ffffffffffffffff81111561363c5761363b612f8f565b5b61364885828601613167565b925050602083013567ffffffffffffffff81111561366957613668612f8f565b5b61367585828601613167565b9150509250929050565b6000806000806040858703121561369957613698612f8a565b5b600085013567ffffffffffffffff8111156136b7576136b6612f8f565b5b6136c38782880161342a565b9450945050602085013567ffffffffffffffff8111156136e6576136e5612f8f565b5b6136f28782880161342a565b925092505092959194509250565b60006020828403121561371657613715612f8a565b5b6000613724848285016133cb565b91505092915050565b600061373882613358565b9050919050565b6137488161372d565b82525050565b6000602082019050613763600083018461373f565b92915050565b600080602083850312156137805761377f612f8a565b5b600083013567ffffffffffffffff81111561379e5761379d612f8f565b5b6137aa8582860161342a565b92509250509250929050565b6137bf81613019565b81146137ca57600080fd5b50565b6000813590506137dc816137b6565b92915050565b600080604083850312156137f9576137f8612f8a565b5b6000613807858286016133cb565b9250506020613818858286016137cd565b9150509250929050565b600067ffffffffffffffff82111561383d5761383c61306a565b5b61384682613059565b9050602081019050919050565b600061386661386184613822565b6130ca565b90508281526020810184848401111561388257613881613054565b5b61388d848285613116565b509392505050565b600082601f8301126138aa576138a961304f565b5b81356138ba848260208601613853565b91505092915050565b600080600080608085870312156138dd576138dc612f8a565b5b60006138eb878288016133cb565b94505060206138fc878288016133cb565b935050604061390d87828801613316565b925050606085013567ffffffffffffffff81111561392e5761392d612f8f565b5b61393a87828801613895565b91505092959194509250565b600081519050919050565b600082825260208201905092915050565b6000819050602082019050919050565b600082825260208201905092915050565b600061398e826131de565b6139988185613972565b93506139a88185602086016131fa565b6139b181613059565b840191505092915050565b60006139c88383613983565b905092915050565b6000602082019050919050565b60006139e882613946565b6139f28185613951565b935083602082028501613a0485613962565b8060005b85811015613a405784840389528151613a2185826139bc565b9450613a2c836139d0565b925060208a01995050600181019050613a08565b50829750879550505050505092915050565b60006020820190508181036000830152613a6c81846139dd565b905092915050565b60008060408385031215613a8b57613a8a612f8a565b5b6000613a99858286016133cb565b9250506020613aaa858286016133cb565b9150509250929050565b7f4e487b7100000000000000000000000000000000000000000000000000000000600052602260045260246000fd5b60006002820490506001821680613afb57607f821691505b602082108103613b0e57613b0d613ab4565b5b50919050565b7f4552433732313a20617070726f76616c20746f2063757272656e74206f776e6560008201527f7200000000000000000000000000000000000000000000000000000000000000602082015250565b6000613b706021836131e9565b9150613b7b82613b14565b604082019050919050565b60006020820190508181036000830152613b9f81613b63565b9050919050565b7f4552433732313a20617070726f76652063616c6c6572206973206e6f7420746f60008201527f6b656e206f776e6572206f7220617070726f76656420666f7220616c6c000000602082015250565b6000613c02603d836131e9565b9150613c0d82613ba6565b604082019050919050565b60006020820190508181036000830152613c3181613bf5565b9050919050565b600081905092915050565b6000613c4f8385613c38565b9350613c5c838584613116565b82840190509392505050565b6000613c75828486613c43565b91508190509392505050565b7f2e00000000000000000000000000000000000000000000000000000000000000815250565b6000613cb4828688613c43565b9150613cbf82613c81565b600182019150613cd0828486613c43565b915081905095945050505050565b7f4e487b7100000000000000000000000000000000000000000000000000000000600052603260045260246000fd5b600080fd5b600080fd5b600080fd5b60008083356001602003843603038112613d3957613d38613d0d565b5b80840192508235915067ffffffffffffffff821115613d5b57613d5a613d12565b5b602083019250600182023603831315613d7757613d76613d17565b5b509250929050565b6000613d8a826131de565b613d948185613c38565b9350613da48185602086016131fa565b80840191505092915050565b6000613dbc8284613d7f565b915081905092915050565b600082905092915050565b60008190508160005260206000209050919050565b60006020601f8301049050919050565b600082821b905092915050565b600060088302613e347fffffffffffffffffffffffffffffffffffffffffffffffffffffffffffffffff82613df7565b613e3e8683613df7565b95508019841693508086168417925050509392505050565b6000819050919050565b6000613e7b613e76613e71846132f5565b613e56565b6132f5565b9050919050565b6000819050919050565b613e9583613e60565b613ea9613ea182613e82565b848454613e04565b825550505050565b600090565b613ebe613eb1565b613ec9818484613e8c565b505050565b5b81811015613eed57613ee2600082613eb6565b600181019050613ecf565b5050565b601f821115613f3257613f0381613dd2565b613f0c84613de7565b81016020851015613f1b578190505b613f2f613f2785613de7565b830182613ece565b50505b505050565b600082821c905092915050565b6000613f5560001984600802613f37565b1980831691505092915050565b6000613f6e8383613f44565b9150826002028217905092915050565b613f888383613dc7565b67ffffffffffffffff811115613fa157613fa061306a565b5b613fab8254613ae3565b613fb6828285613ef1565b6000601f831160018114613fe55760008415613fd3578287013590505b613fdd8582613f62565b865550614045565b601f198416613ff386613dd2565b60005b8281101561401b57848901358255600182019150602085019450602081019050613ff6565b868310156140385784890135614034601f891682613f44565b8355505b6001600288020188555050505b50505050505050565b7f4552433732313a2063616c6c6572206973206e6f7420746f6b656e206f776e6560008201527f72206f7220617070726f76656400000000000000000000000000000000000000602082015250565b60006140aa602d836131e9565b91506140b58261404e565b604082019050919050565b600060208201905081810360008301526140d98161409d565b9050919050565b60006140ec83856131e9565b93506140f9838584613116565b61410283613059565b840190509392505050565b600060208201905081810360008301526141288184866140e0565b90509392505050565b6000604082019050614146600083018561358a565b614153602083018461358a565b9392505050565b7f2e00000000000000000000000000000000000000000000000000000000000000600082015250565b6000614190600183613c38565b915061419b8261415a565b600182019050919050565b60006141b3828688613c43565b91506141be82614183565b91506141cb828486613c43565b915081905095945050505050565b60006141e58286613d7f565b91506141f18285613d7f565b91506141fd8284613d7f565b9150819050949350505050565b7f7b00000000000000000000000000000000000000000000000000000000000000600082015250565b6000614240600183613c38565b915061424b8261420a565b600182019050919050565b7f226e616d65223a20220000000000000000000000000000000000000000000000600082015250565b600061428c600983613c38565b915061429782614256565b600982019050919050565b7f222c000000000000000000000000000000000000000000000000000000000000600082015250565b60006142d8600283613c38565b91506142e3826142a2565b600282019050919050565b7f226465736372697074696f6e223a2022556d6272656c6c61204e616d6520536560008201527f7276696365222c00000000000000000000000000000000000000000000000000602082015250565b600061434a602783613c38565b9150614355826142ee565b602782019050919050565b7f22696d616765223a2022646174613a696d6167652f7376672b786d6c3b62617360008201527f6536342c00000000000000000000000000000000000000000000000000000000602082015250565b60006143bc602483613c38565b91506143c782614360565b602482019050919050565b7f2200000000000000000000000000000000000000000000000000000000000000600082015250565b6000614408600183613c38565b9150614413826143d2565b600182019050919050565b7f7d00000000000000000000000000000000000000000000000000000000000000600082015250565b6000614454600183613c38565b915061445f8261441e565b600182019050919050565b600061447582614233565b91506144808261427f565b915061448c8285613d7f565b9150614497826142cb565b91506144a28261433d565b91506144ad826143af565b91506144b98284613d7f565b91506144c4826143fb565b91506144cf82614447565b91508190509392505050565b7f646174613a6170706c69636174696f6e2f6a736f6e3b6261736536342c000000600082015250565b6000614511601d83613c38565b915061451c826144db565b601d82019050919050565b600061453282614504565b915061453e8284613d7f565b915081905092915050565b614552826131de565b67ffffffffffffffff81111561456b5761456a61306a565b5b6145758254613ae3565b614580828285613ef1565b600060209050601f8311600181146145b357600084156145a1578287015190505b6145ab8582613f62565b865550614613565b601f1984166145c186613dd2565b60005b828110156145e9578489015182556001820191506020850194506020810190506145c4565b868310156146065784890151614602601f891682613f44565b8355505b6001600288020188555050505b505050505050565b7f4e487b7100000000000000000000000000000000000000000000000000000000600052601160045260246000fd5b6000614655826132f5565b91507fffffffffffffffffffffffffffffffffffffffffffffffffffffffffffffffff82036146875761468661461b565b5b600182019050919050565b7f4552433732313a20696e76616c696420746f6b656e2049440000000000000000600082015250565b60006146c86018836131e9565b91506146d382614692565b602082019050919050565b600060208201905081810360008301526146f7816146bb565b9050919050565b7f4552433732313a2061646472657373207a65726f206973206e6f74206120766160008201527f6c6964206f776e65720000000000000000000000000000000000000000000000602082015250565b600061475a6029836131e9565b9150614765826146fe565b604082019050919050565b600060208201905081810360008301526147898161474d565b9050919050565b600061479c8285613d7f565b91506147a88284613d7f565b91508190509392505050565b7f4552433732313a207472616e736665722066726f6d20696e636f72726563742060008201527f6f776e6572000000000000000000000000000000000000000000000000000000602082015250565b60006148106025836131e9565b915061481b826147b4565b604082019050919050565b6000602082019050818103600083015261483f81614803565b9050919050565b7f4552433732313a207472616e7366657220746f20746865207a65726f2061646460008201527f7265737300000000000000000000000000000000000000000000000000000000602082015250565b60006148a26024836131e9565b91506148ad82614846565b604082019050919050565b600060208201905081810360008301526148d181614895565b9050919050565b60006148e3826132f5565b91506148ee836132f5565b92508282019050808211156149065761490561461b565b5b92915050565b7f4e487b7100000000000000000000000000000000000000000000000000000000600052601260045260246000fd5b6000614946826132f5565b9150614951836132f5565b9250826149615761496061490c565b5b828204905092915050565b6000614977826132f5565b9150614982836132f5565b9250828202614990816132f5565b915082820484148315176149a7576149a661461b565b5b5092915050565b7f45524337323155524953746f726167653a2055524920736574206f66206e6f6e60008201527f6578697374656e7420746f6b656e000000000000000000000000000000000000602082015250565b6000614a0a602e836131e9565b9150614a15826149ae565b604082019050919050565b60006020820190508181036000830152614a39816149fd565b9050919050565b7f4552433732313a20617070726f766520746f2063616c6c657200000000000000600082015250565b6000614a766019836131e9565b9150614a8182614a40565b602082019050919050565b60006020820190508181036000830152614aa581614a69565b9050919050565b7f4552433732313a207472616e7366657220746f206e6f6e20455243373231526560008201527f63656976657220696d706c656d656e7465720000000000000000000000000000602082015250565b6000614b086032836131e9565b9150614b1382614aac565b604082019050919050565b60006020820190508181036000830152614b3781614afb565b9050919050565b6000614b49826132f5565b9150614b54836132f5565b9250828203905081811115614b6c57614b6b61461b565b5b92915050565b600081519050919050565b600082825260208201905092915050565b6000614b9982614b72565b614ba38185614b7d565b9350614bb38185602086016131fa565b614bbc81613059565b840191505092915050565b6000608082019050614bdc600083018761338a565b614be9602083018661338a565b614bf6604083018561358a565b8181036060830152614c088184614b8e565b905095945050505050565b600081519050614c2281612fc0565b92915050565b600060208284031215614c3e57614c3d612f8a565b5b6000614c4c84828501614c13565b91505092915050565b7f4552433732313a206d696e7420746f20746865207a65726f2061646472657373600082015250565b6000614c8b6020836131e9565b9150614c9682614c55565b602082019050919050565b60006020820190508181036000830152614cba81614c7e565b9050919050565b7f4552433732313a20746f6b656e20616c7265616479206d696e74656400000000600082015250565b6000614cf7601c836131e9565b9150614d0282614cc1565b602082019050919050565b60006020820190508181036000830152614d2681614cea565b905091905056fe4142434445464748494a4b4c4d4e4f505152535455565758595a6162636465666768696a6b6c6d6e6f707172737475767778797a303132333435363738392b2f3c73766720786d6c6e733d22687474703a2f2f7777772e77332e6f72672f323030302f737667222077696474683d2232373022206865696768743d22323730222066696c6c3d226e6f6e65223e3c706174682066696c6c3d2275726c282342292220643d224d302030683237307632373048307a222f3e3c646566733e3c66696c7465722069643d22412220636f6c6f722d696e746572706f6c6174696f6e2d66696c746572733d2273524742222066696c746572556e6974733d227573657253706163654f6e55736522206865696768743d22323730222077696474683d22323730223e3c666544726f70536861646f772064783d2230222064793d22312220737464446576696174696f6e3d22322220666c6f6f642d6f7061636974793d222e323235222077696474683d223230302522206865696768743d2232303025222f3e3c2f66696c7465723e3c2f646566733e3c7061746820643d224d37322e3836332034322e393439632d2e3636382d2e3338372d312e3432362d2e35392d322e3139372d2e3539732d312e3532392e3230342d322e3139372e35396c2d31302e30383120362e3033322d362e383520332e3933342d31302e30383120362e303332632d2e3636382e3338372d312e3432362e35392d322e3139372e3539732d312e3532392d2e3230342d322e3139372d2e35396c2d382e3031332d342e37323161342e353220342e35322030203020312d312e3538392d312e363136632d2e3338342d2e3636352d2e3539342d312e3431382d2e3630382d322e313837762d392e3331632d2e3031332d2e3737352e3138352d312e3533382e3537322d322e32303861342e323520342e323520302030203120312e3632352d312e3539356c372e3838342d342e3539632e3636382d2e33383720312e3432362d2e353920322e3139372d2e353973312e3532392e32303420322e3139372e35396c372e38383420342e353961342e353220342e353220302030203120312e35383920312e363136632e3338342e3636352e35393420312e3431382e36303820322e31383776362e3033326c362e38352d342e303635762d362e303332632e3031332d2e3737352d2e3138352d312e3533382d2e3537322d322e32303861342e323520342e32352030203020302d312e3632352d312e3539354c34312e3435362032342e3539632d2e3636382d2e3338372d312e3432362d2e35392d322e3139372d2e3539732d312e3532392e3230342d322e3139372e35396c2d31342e38363420382e36353561342e323520342e32352030203020302d312e36323520312e353935632d2e3338372e36372d2e35383520312e3433342d2e35373220322e3230387631372e343431632d2e3031332e3737352e31383520312e3533382e35373220322e32303861342e323520342e323520302030203020312e36323520312e3539356c31342e38363420382e363535632e3636382e33383720312e3432362e353920322e3139372e353973312e3532392d2e32303420322e3139372d2e35396c31302e3038312d352e39303120362e38352d342e3036352031302e3038312d352e393031632e3636382d2e33383720312e3432362d2e353920322e3139372d2e353973312e3532392e32303420322e3139372e35396c372e38383420342e353961342e353220342e353220302030203120312e35383920312e363136632e3338342e3636352e35393420312e3431382e36303820322e31383776392e333131632e3031332e3737352d2e31383520312e3533382d2e35373220322e32303861342e323520342e32352030203020312d312e36323520312e3539356c2d372e38383420342e373231632d2e3636382e3338372d312e3432362e35392d322e3139372e3539732d312e3532392d2e3230342d322e3139372d2e35396c2d372e3838342d342e353961342e353220342e35322030203020312d312e3538392d312e363136632d2e3338352d2e3636352d2e3539342d312e3431382d2e3630382d322e313837762d362e3033326c2d362e383520342e30363576362e303332632d2e3031332e3737352e31383520312e3533382e35373220322e32303861342e323520342e323520302030203020312e36323520312e3539356c31342e38363420382e363535632e3636382e33383720312e3432362e353920322e3139372e353973312e3532392d2e32303420322e3139372d2e35396c31342e3836342d382e363535632e3635372d2e33393420312e3230342d2e393520312e3538392d312e363136732e3539342d312e3431382e3630392d322e3138375635352e353338632e3031332d2e3737352d2e3138352d312e3533382d2e3537322d322e32303861342e323520342e32352030203020302d312e3632352d312e3539356c2d31342e3939332d382e3738367a222066696c6c3d2223666666222f3e3c646566733e3c6c696e6561724772616469656e742069643d2242222078313d2230222079313d2230222078323d22323730222079323d2232373022206772616469656e74556e6974733d227573657253706163654f6e557365223e3c73746f702073746f702d636f6c6f723d2223636235656565222f3e3c73746f70206f66667365743d2231222073746f702d636f6c6f723d2223306364376534222073746f702d6f7061636974793d222e3939222f3e3c2f6c696e6561724772616469656e743e3c2f646566733e3c7465787420783d2233322e352220793d223233312220666f6e742d73697a653d223237222066696c6c3d2223666666222066696c7465723d2275726c282341292220666f6e742d66616d696c793d22506c7573204a616b617274612053616e732c44656a6156752053616e732c4e6f746f20436f6c6f7220456d6f6a692c4170706c6520436f6c6f7220456d6f6a692c73616e732d73657269662220666f6e742d7765696768743d22626f6c64223ea2646970667358221220aa982aefe6022f280acf3ca4afa1006307080bb20214e136ed488f39e8d0be1864736f6c63430008110033",
  "linkReferences": {},
  "deployedLinkReferences": {}
}