{
  "_format": "hh-sol-artifact-1",
  "contractName": "ENS",
  "sourceName": "contracts/ENS.sol",
  "abi": [
    {
      "inputs": [],
      "stateMutability": "payable",
      "type": "constructor"
    },
    {
      "inputs": [
        {
          "internalType": "uint256",
          "name": "expected",
          "type": "uint256"
        },
        {
          "internalType": "uint256",
          "name": "sent",
          "type": "uint256"
        }
      ],
      "name": "InvalidFunds",
      "type": "error"
    },
    {
      "inputs": [
        {
          "internalType": "string",
          "name": "name",
          "type": "string"
        }
      ],
      "name": "InvalidName",
      "type": "error"
    },
    {
      "inputs": [],
      "name": "NameAlreadyExists",
      "type": "error"
    },
    {
      "inputs": [],
      "name": "Unauthorized",
      "type": "error"
    },
    {
      "anonymous": false,
      "inputs": [
        {
          "indexed": true,
          "internalType": "address",
          "name": "owner",
          "type": "address"
        },
        {
          "indexed": true,
          "internalType": "address",
          "name": "approved",
          "type": "address"
        },
        {
          "indexed": true,
          "internalType": "uint256",
          "name": "tokenId",
          "type": "uint256"
        }
      ],
      "name": "Approval",
      "type": "event"
    },
    {
      "anonymous": false,
      "inputs": [
        {
          "indexed": true,
          "internalType": "address",
          "name": "owner",
          "type": "address"
        },
        {
          "indexed": true,
          "internalType": "address",
          "name": "operator",
          "type": "address"
        },
        {
          "indexed": false,
          "internalType": "bool",
          "name": "approved",
          "type": "bool"
        }
      ],
      "name": "ApprovalForAll",
      "type": "event"
    },
    {
      "anonymous": false,
      "inputs": [
        {
          "indexed": false,
          "internalType": "string",
          "name": "name",
          "type": "string"
        },
        {
          "indexed": true,
          "internalType": "address",
          "name": "owner",
          "type": "address"
        }
      ],
      "name": "RegisterName",
      "type": "event"
    },
    {
      "anonymous": false,
      "inputs": [
        {
          "indexed": true,
          "internalType": "address",
          "name": "from",
          "type": "address"
        },
        {
          "indexed": true,
          "internalType": "address",
          "name": "to",
          "type": "address"
        },
        {
          "indexed": true,
          "internalType": "uint256",
          "name": "tokenId",
          "type": "uint256"
        }
      ],
      "name": "Transfer",
      "type": "event"
    },
    {
      "anonymous": false,
      "inputs": [
        {
          "indexed": false,
          "internalType": "string",
          "name": "name",
          "type": "string"
        }
      ],
      "name": "UpdateData",
      "type": "event"
    },
    {
      "inputs": [
        {
          "internalType": "address",
          "name": "to",
          "type": "address"
        },
        {
          "internalType": "uint256",
          "name": "tokenId",
          "type": "uint256"
        }
      ],
      "name": "approve",
      "outputs": [],
      "stateMutability": "nonpayable",
      "type": "function"
    },
    {
      "inputs": [
        {
          "internalType": "address",
          "name": "owner",
          "type": "address"
        }
      ],
      "name": "balanceOf",
      "outputs": [
        {
          "internalType": "uint256",
          "name": "",
          "type": "uint256"
        }
      ],
      "stateMutability": "view",
      "type": "function"
    },
    {
      "inputs": [
        {
          "internalType": "string",
          "name": "",
          "type": "string"
        }
      ],
      "name": "data",
      "outputs": [
        {
          "internalType": "string",
          "name": "ethAddress",
          "type": "string"
        },
        {
          "internalType": "string",
          "name": "btcAddress",
          "type": "string"
        },
        {
          "internalType": "string",
          "name": "ltcAddress",
          "type": "string"
        },
        {
          "internalType": "string",
          "name": "bnbAddress",
          "type": "string"
        },
        {
          "internalType": "string",
          "name": "solanaAddress",
          "type": "string"
        }
      ],
      "stateMutability": "view",
      "type": "function"
    },
    {
      "inputs": [
        {
          "internalType": "uint256",
          "name": "tokenId",
          "type": "uint256"
        }
      ],
      "name": "getApproved",
      "outputs": [
        {
          "internalType": "address",
          "name": "",
          "type": "address"
        }
      ],
      "stateMutability": "view",
      "type": "function"
    },
    {
      "inputs": [],
      "name": "getNames",
      "outputs": [
        {
          "internalType": "string[]",
          "name": "",
          "type": "string[]"
        }
      ],
      "stateMutability": "view",
      "type": "function"
    },
    {
      "inputs": [
        {
          "internalType": "string",
          "name": "domain",
          "type": "string"
        }
      ],
      "name": "getTokenUri",
      "outputs": [
        {
          "internalType": "string",
          "name": "uri",
          "type": "string"
        }
      ],
      "stateMutability": "view",
      "type": "function"
    },
    {
      "inputs": [
        {
          "internalType": "address",
          "name": "owner",
          "type": "address"
        },
        {
          "internalType": "address",
          "name": "operator",
          "type": "address"
        }
      ],
      "name": "isApprovedForAll",
      "outputs": [
        {
          "internalType": "bool",
          "name": "",
          "type": "bool"
        }
      ],
      "stateMutability": "view",
      "type": "function"
    },
    {
      "inputs": [],
      "name": "name",
      "outputs": [
        {
          "internalType": "string",
          "name": "",
          "type": "string"
        }
      ],
      "stateMutability": "view",
      "type": "function"
    },
    {
      "inputs": [
        {
          "internalType": "string",
          "name": "",
          "type": "string"
        }
      ],
      "name": "nameToIds",
      "outputs": [
        {
          "internalType": "uint256",
          "name": "",
          "type": "uint256"
        }
      ],
      "stateMutability": "view",
      "type": "function"
    },
    {
      "inputs": [
        {
          "internalType": "uint256",
          "name": "",
          "type": "uint256"
        }
      ],
      "name": "names",
      "outputs": [
        {
          "internalType": "string",
          "name": "",
          "type": "string"
        }
      ],
      "stateMutability": "view",
      "type": "function"
    },
    {
      "inputs": [],
      "name": "owner",
      "outputs": [
        {
          "internalType": "address payable",
          "name": "",
          "type": "address"
        }
      ],
      "stateMutability": "view",
      "type": "function"
    },
    {
      "inputs": [
        {
          "internalType": "uint256",
          "name": "tokenId",
          "type": "uint256"
        }
      ],
      "name": "ownerOf",
      "outputs": [
        {
          "internalType": "address",
          "name": "",
          "type": "address"
        }
      ],
      "stateMutability": "view",
      "type": "function"
    },
    {
      "inputs": [
        {
          "internalType": "string",
          "name": "",
          "type": "string"
        },
        {
          "internalType": "string",
          "name": "",
          "type": "string"
        }
      ],
      "name": "register",
      "outputs": [
        {
          "internalType": "address",
          "name": "",
          "type": "address"
        }
      ],
      "stateMutability": "view",
      "type": "function"
    },
    {
      "inputs": [
        {
          "internalType": "address",
          "name": "from",
          "type": "address"
        },
        {
          "internalType": "address",
          "name": "to",
          "type": "address"
        },
        {
          "internalType": "uint256",
          "name": "tokenId",
          "type": "uint256"
        }
      ],
      "name": "safeTransferFrom",
      "outputs": [],
      "stateMutability": "nonpayable",
      "type": "function"
    },
    {
      "inputs": [
        {
          "internalType": "address",
          "name": "from",
          "type": "address"
        },
        {
          "internalType": "address",
          "name": "to",
          "type": "address"
        },
        {
          "internalType": "uint256",
          "name": "tokenId",
          "type": "uint256"
        },
        {
          "internalType": "bytes",
          "name": "data",
          "type": "bytes"
        }
      ],
      "name": "safeTransferFrom",
      "outputs": [],
      "stateMutability": "nonpayable",
      "type": "function"
    },
    {
      "inputs": [
        {
          "internalType": "address",
          "name": "operator",
          "type": "address"
        },
        {
          "internalType": "bool",
          "name": "approved",
          "type": "bool"
        }
      ],
      "name": "setApprovalForAll",
      "outputs": [],
      "stateMutability": "nonpayable",
      "type": "function"
    },
    {
      "inputs": [
        {
          "internalType": "string",
          "name": "_name",
          "type": "string"
        },
        {
          "internalType": "string",
          "name": "_tld",
          "type": "string"
        },
        {
          "internalType": "string[5]",
          "name": "_data",
          "type": "string[5]"
        }
      ],
      "name": "setData",
      "outputs": [],
      "stateMutability": "nonpayable",
      "type": "function"
    },
    {
      "inputs": [
        {
          "internalType": "string",
          "name": "_name",
          "type": "string"
        },
        {
          "internalType": "string",
          "name": "_tld",
          "type": "string"
        },
        {
          "internalType": "string",
          "name": "ethAddress",
          "type": "string"
        }
      ],
      "name": "setName",
      "outputs": [],
      "stateMutability": "payable",
      "type": "function"
    },
    {
      "inputs": [
        {
          "internalType": "bytes4",
          "name": "interfaceId",
          "type": "bytes4"
        }
      ],
      "name": "supportsInterface",
      "outputs": [
        {
          "internalType": "bool",
          "name": "",
          "type": "bool"
        }
      ],
      "stateMutability": "view",
      "type": "function"
    },
    {
      "inputs": [],
      "name": "symbol",
      "outputs": [
        {
          "internalType": "string",
          "name": "",
          "type": "string"
        }
      ],
      "stateMutability": "view",
      "type": "function"
    },
    {
      "inputs": [
        {
          "internalType": "string",
          "name": "",
          "type": "string"
        }
      ],
      "name": "tldCount",
      "outputs": [
        {
          "internalType": "uint256",
          "name": "",
          "type": "uint256"
        }
      ],
      "stateMutability": "view",
      "type": "function"
    },
    {
      "inputs": [
        {
          "internalType": "uint256",
          "name": "tokenId",
          "type": "uint256"
        }
      ],
      "name": "tokenURI",
      "outputs": [
        {
          "internalType": "string",
          "name": "",
          "type": "string"
        }
      ],
      "stateMutability": "view",
      "type": "function"
    },
    {
      "inputs": [
        {
          "internalType": "address",
          "name": "from",
          "type": "address"
        },
        {
          "internalType": "address",
          "name": "to",
          "type": "address"
        },
        {
          "internalType": "uint256",
          "name": "tokenId",
          "type": "uint256"
        }
      ],
      "name": "transferFrom",
      "outputs": [],
      "stateMutability": "nonpayable",
      "type": "function"
    },
    {
      "inputs": [],
      "name": "withdraw",
      "outputs": [],
      "stateMutability": "payable",
      "type": "function"
    }
  ],
  "bytecode": "0x60a06040526040518060400160405280600f81526020017f556d6272656c6c6120546f6b656e7300000000000000000000000000000000008152506040518060400160405280600381526020017f554d54000000000000000000000000000000000000000000000000000000000081525081600090816200008191906200034a565b5080600190816200009391906200034a565b5050503373ffffffffffffffffffffffffffffffffffffffff1660808173ffffffffffffffffffffffffffffffffffffffff168152505062000431565b600081519050919050565b7f4e487b7100000000000000000000000000000000000000000000000000000000600052604160045260246000fd5b7f4e487b7100000000000000000000000000000000000000000000000000000000600052602260045260246000fd5b600060028204905060018216806200015257607f821691505b6020821081036200016857620001676200010a565b5b50919050565b60008190508160005260206000209050919050565b60006020601f8301049050919050565b600082821b905092915050565b600060088302620001d27fffffffffffffffffffffffffffffffffffffffffffffffffffffffffffffffff8262000193565b620001de868362000193565b95508019841693508086168417925050509392505050565b6000819050919050565b6000819050919050565b60006200022b620002256200021f84620001f6565b62000200565b620001f6565b9050919050565b6000819050919050565b62000247836200020a565b6200025f620002568262000232565b848454620001a0565b825550505050565b600090565b6200027662000267565b620002838184846200023c565b505050565b5b81811015620002ab576200029f6000826200026c565b60018101905062000289565b5050565b601f821115620002fa57620002c4816200016e565b620002cf8462000183565b81016020851015620002df578190505b620002f7620002ee8562000183565b83018262000288565b50505b505050565b600082821c905092915050565b60006200031f60001984600802620002ff565b1980831691505092915050565b60006200033a83836200030c565b9150826002028217905092915050565b6200035582620000d0565b67ffffffffffffffff811115620003715762000370620000db565b5b6200037d825462000139565b6200038a828285620002af565b600060209050601f831160018114620003c25760008415620003ad578287015190505b620003b985826200032c565b86555062000429565b601f198416620003d2866200016e565b60005b82811015620003fc57848901518255600182019150602085019450602081019050620003d5565b868310156200041c578489015162000418601f8916826200030c565b8355505b6001600288020188555050505b505050505050565b60805161503a6200045460003960008181611170015261176f015261503a6000f3fe60806040526004361061014b5760003560e01c80636352211e116100b6578063a22cb4651161006f578063a22cb465146104c4578063b88d4fde146104ed578063c87b56dd14610516578063cd838f0f14610553578063d40089e01461057e578063e985e9c5146105bb5761014b565b80636352211e1461038e5780636f26f1a4146103cb57806370a08231146103f45780638da5cb5b1461043157806395d89b411461045c5780639c1f1b8c146104875761014b565b80632040453911610108578063204045391461027b57806323b872dd146102b85780633ccfd60b146102e15780633ffbd47f146102eb57806342842e0e146103285780634622ab03146103515761014b565b806301ffc9a7146101505780630466ec0a1461018d57806304f6748c146101a957806306fdde03146101ea578063081812fc14610215578063095ea7b314610252575b600080fd5b34801561015c57600080fd5b5061017760048036038101906101729190613060565b6105f8565b60405161018491906130a8565b60405180910390f35b6101a760048036038101906101a29190613128565b6106da565b005b3480156101b557600080fd5b506101d060048036038101906101cb919061331d565b610bfd565b6040516101e19594939291906133e5565b60405180910390f35b3480156101f657600080fd5b506101ff610ef1565b60405161020c919061345b565b60405180910390f35b34801561022157600080fd5b5061023c600480360381019061023791906134b3565b610f83565b6040516102499190613521565b60405180910390f35b34801561025e57600080fd5b5061027960048036038101906102749190613568565b610fc9565b005b34801561028757600080fd5b506102a2600480360381019061029d919061331d565b6110e0565b6040516102af91906135b7565b60405180910390f35b3480156102c457600080fd5b506102df60048036038101906102da91906135d2565b61110e565b005b6102e961116e565b005b3480156102f757600080fd5b50610312600480360381019061030d9190613625565b611242565b60405161031f9190613521565b60405180910390f35b34801561033457600080fd5b5061034f600480360381019061034a91906135d2565b6112b0565b005b34801561035d57600080fd5b50610378600480360381019061037391906134b3565b6112d0565b604051610385919061345b565b60405180910390f35b34801561039a57600080fd5b506103b560048036038101906103b091906134b3565b61137c565b6040516103c29190613521565b60405180910390f35b3480156103d757600080fd5b506103f260048036038101906103ed919061376c565b611402565b005b34801561040057600080fd5b5061041b6004803603810190610416919061381d565b6116b6565b60405161042891906135b7565b60405180910390f35b34801561043d57600080fd5b5061044661176d565b604051610453919061386b565b60405180910390f35b34801561046857600080fd5b50610471611791565b60405161047e919061345b565b60405180910390f35b34801561049357600080fd5b506104ae60048036038101906104a99190613886565b611823565b6040516104bb919061345b565b60405180910390f35b3480156104d057600080fd5b506104eb60048036038101906104e691906138ff565b61185c565b005b3480156104f957600080fd5b50610514600480360381019061050f91906139e0565b611872565b005b34801561052257600080fd5b5061053d600480360381019061053891906134b3565b6118d4565b60405161054a919061345b565b60405180910390f35b34801561055f57600080fd5b506105686119e6565b6040516105759190613b6f565b60405180910390f35b34801561058a57600080fd5b506105a560048036038101906105a0919061331d565b611ac5565b6040516105b291906135b7565b60405180910390f35b3480156105c757600080fd5b506105e260048036038101906105dd9190613b91565b611af3565b6040516105ef91906130a8565b60405180910390f35b60007f80ac58cd000000000000000000000000000000000000000000000000000000007bffffffffffffffffffffffffffffffffffffffffffffffffffffffff1916827bffffffffffffffffffffffffffffffffffffffffffffffffffffffff191614806106c357507f5b5e139f000000000000000000000000000000000000000000000000000000007bffffffffffffffffffffffffffffffffffffffffffffffffffffffff1916827bffffffffffffffffffffffffffffffffffffffffffffffffffffffff1916145b806106d357506106d282611b87565b5b9050919050565b60006106e68787611bf1565b90506106f28787611cab565b6107355786866040517f7f19f48d00000000000000000000000000000000000000000000000000000000815260040161072c929190613bfe565b60405180910390fd5b8034101561077c5780346040517f89bc52af000000000000000000000000000000000000000000000000000000008152600401610773929190613c22565b60405180910390fd5b600073ffffffffffffffffffffffffffffffffffffffff16600886866040516107a6929190613c7b565b908152602001604051809103902088886040516107c4929190613c7b565b908152602001604051809103902060009054906101000a900473ffffffffffffffffffffffffffffffffffffffff1673ffffffffffffffffffffffffffffffffffffffff1614610840576040517fd202940c00000000000000000000000000000000000000000000000000000000815260040160405180910390fd5b6000878787876040516020016108599493929190613ce0565b604051602081830303815290604052905060006040518061030001604052806102c78152602001614d3e6102c79139826040518060400160405280600d81526020017f3c2f746578743e3c2f7376673e000000000000000000000000000000000000008152506040516020016108d193929190613d44565b604051602081830303815290604052905060006108ee6007611d5f565b90506108fa6007611d6d565b60006109538b8b8b8b6040516020016109169493929190613d9b565b60405160208183030381529060405261092e85611d83565b60405160200161093f929190614032565b604051602081830303815290604052611d83565b905060008160405160200161096891906140ef565b60405160208183030381529060405290506109833384611ee6565b61098d8382611f04565b60008c8c8c8c6040516020016109a69493929190613d9b565b60405160208183030381529060405290503360088c8c6040516109ca929190613c7b565b90815260200160405180910390208e8e6040516109e8929190613c7b565b908152602001604051809103902060006101000a81548173ffffffffffffffffffffffffffffffffffffffff021916908373ffffffffffffffffffffffffffffffffffffffff160217905550600c81908060018154018082558091505060019003906000526020600020016000909190919091509081610a68919061431d565b5083600b82604051610a7a91906143ef565b90815260200160405180910390208190555060098b8b604051610a9e929190613c7b565b90815260200160405180910390206000815480929190610abd90614435565b919050555060006040518060a001604052808b8b8080601f016020809104026020016040519081016040528093929190818152602001838380828437600081840152601f19601f820116905080830192505050505050508152602001604051806020016040528060008152508152602001604051806020016040528060008152508152602001604051806020016040528060008152508152602001604051806020016040528060008152508152509050610b7a8e8e8e8e85611402565b3373ffffffffffffffffffffffffffffffffffffffff167f47295f5b4a8fe83d604cbc77f624030eda37507ba632784272248210b013232a8f8f8f8f604051602001610bc99493929190613d9b565b604051602081830303815290604052604051610be5919061345b565b60405180910390a25050505050505050505050505050565b600a81805160208101820180518482526020830160208501208183528095505050505050600091509050806000018054610c3690614140565b80601f0160208091040260200160405190810160405280929190818152602001828054610c6290614140565b8015610caf5780601f10610c8457610100808354040283529160200191610caf565b820191906000526020600020905b815481529060010190602001808311610c9257829003601f168201915b505050505090806001018054610cc490614140565b80601f0160208091040260200160405190810160405280929190818152602001828054610cf090614140565b8015610d3d5780601f10610d1257610100808354040283529160200191610d3d565b820191906000526020600020905b815481529060010190602001808311610d2057829003601f168201915b505050505090806002018054610d5290614140565b80601f0160208091040260200160405190810160405280929190818152602001828054610d7e90614140565b8015610dcb5780601f10610da057610100808354040283529160200191610dcb565b820191906000526020600020905b815481529060010190602001808311610dae57829003601f168201915b505050505090806003018054610de090614140565b80601f0160208091040260200160405190810160405280929190818152602001828054610e0c90614140565b8015610e595780601f10610e2e57610100808354040283529160200191610e59565b820191906000526020600020905b815481529060010190602001808311610e3c57829003601f168201915b505050505090806004018054610e6e90614140565b80601f0160208091040260200160405190810160405280929190818152602001828054610e9a90614140565b8015610ee75780601f10610ebc57610100808354040283529160200191610ee7565b820191906000526020600020905b815481529060010190602001808311610eca57829003601f168201915b5050505050905085565b606060008054610f0090614140565b80601f0160208091040260200160405190810160405280929190818152602001828054610f2c90614140565b8015610f795780601f10610f4e57610100808354040283529160200191610f79565b820191906000526020600020905b815481529060010190602001808311610f5c57829003601f168201915b5050505050905090565b6000610f8e82611f71565b6004600083815260200190815260200160002060009054906101000a900473ffffffffffffffffffffffffffffffffffffffff169050919050565b6000610fd48261137c565b90508073ffffffffffffffffffffffffffffffffffffffff168373ffffffffffffffffffffffffffffffffffffffff1603611044576040517f08c379a000000000000000000000000000000000000000000000000000000000815260040161103b906144ef565b60405180910390fd5b8073ffffffffffffffffffffffffffffffffffffffff16611063611fbc565b73ffffffffffffffffffffffffffffffffffffffff16148061109257506110918161108c611fbc565b611af3565b5b6110d1576040517f08c379a00000000000000000000000000000000000000000000000000000000081526004016110c890614581565b60405180910390fd5b6110db8383611fc4565b505050565b600b818051602081018201805184825260208301602085012081835280955050505050506000915090505481565b61111f611119611fbc565b8261207d565b61115e576040517f08c379a000000000000000000000000000000000000000000000000000000000815260040161115590614613565b60405180910390fd5b611169838383612112565b505050565b7f000000000000000000000000000000000000000000000000000000000000000073ffffffffffffffffffffffffffffffffffffffff163373ffffffffffffffffffffffffffffffffffffffff16146111f3576040517f82b4290000000000000000000000000000000000000000000000000000000000815260040160405180910390fd5b60004790503373ffffffffffffffffffffffffffffffffffffffff166108fc829081150290604051600060405180830381858888f1935050505015801561123e573d6000803e3d6000fd5b5050565b600882805160208101820180518482526020830160208501208183528095505050505050818051602081018201805184825260208301602085012081835280955050505050506000915091509054906101000a900473ffffffffffffffffffffffffffffffffffffffff1681565b6112cb83838360405180602001604052806000815250611872565b505050565b600c81815481106112e057600080fd5b9060005260206000200160009150905080546112fb90614140565b80601f016020809104026020016040519081016040528092919081815260200182805461132790614140565b80156113745780601f1061134957610100808354040283529160200191611374565b820191906000526020600020905b81548152906001019060200180831161135757829003601f168201915b505050505081565b6000806113888361240b565b9050600073ffffffffffffffffffffffffffffffffffffffff168173ffffffffffffffffffffffffffffffffffffffff16036113f9576040517f08c379a00000000000000000000000000000000000000000000000000000000081526004016113f09061467f565b60405180910390fd5b80915050919050565b3373ffffffffffffffffffffffffffffffffffffffff166008848460405161142b929190613c7b565b90815260200160405180910390208686604051611449929190613c7b565b908152602001604051809103902060009054906101000a900473ffffffffffffffffffffffffffffffffffffffff1673ffffffffffffffffffffffffffffffffffffffff16146114c5576040517f82b4290000000000000000000000000000000000000000000000000000000000815260040160405180910390fd5b6000858585856040516020016114de9493929190613d9b565b6040516020818303038152906040529050816000600581106115035761150261469f565b5b6020020151600a8260405161151891906143ef565b90815260200160405180910390206000019081611535919061431d565b508160016005811061154a5761154961469f565b5b6020020151600a8260405161155f91906143ef565b9081526020016040518091039020600101908161157c919061431d565b50816002600581106115915761159061469f565b5b6020020151600a826040516115a691906143ef565b908152602001604051809103902060020190816115c3919061431d565b50816003600581106115d8576115d761469f565b5b6020020151600a826040516115ed91906143ef565b9081526020016040518091039020600301908161160a919061431d565b508160046005811061161f5761161e61469f565b5b6020020151600a8260405161163491906143ef565b90815260200160405180910390206004019081611651919061431d565b507ff68065a4b091644ab4f0a078f9322a97b3f01849dc0951d33c7e0c7821ea66e18686868660405160200161168a9493929190613d9b565b6040516020818303038152906040526040516116a6919061345b565b60405180910390a1505050505050565b60008073ffffffffffffffffffffffffffffffffffffffff168273ffffffffffffffffffffffffffffffffffffffff1603611726576040517f08c379a000000000000000000000000000000000000000000000000000000000815260040161171d90614740565b60405180910390fd5b600360008373ffffffffffffffffffffffffffffffffffffffff1673ffffffffffffffffffffffffffffffffffffffff168152602001908152602001600020549050919050565b7f000000000000000000000000000000000000000000000000000000000000000081565b6060600180546117a090614140565b80601f01602080910402602001604051908101604052809291908181526020018280546117cc90614140565b80156118195780601f106117ee57610100808354040283529160200191611819565b820191906000526020600020905b8154815290600101906020018083116117fc57829003601f168201915b5050505050905090565b60606000600b8484604051611839929190613c7b565b9081526020016040518091039020549050611853816118d4565b91505092915050565b61186e611867611fbc565b8383612448565b5050565b61188361187d611fbc565b8361207d565b6118c2576040517f08c379a00000000000000000000000000000000000000000000000000000000081526004016118b990614613565b60405180910390fd5b6118ce848484846125b4565b50505050565b60606118df82611f71565b60006006600084815260200190815260200160002080546118ff90614140565b80601f016020809104026020016040519081016040528092919081815260200182805461192b90614140565b80156119785780601f1061194d57610100808354040283529160200191611978565b820191906000526020600020905b81548152906001019060200180831161195b57829003601f168201915b505050505090506000611989612610565b9050600081510361199e5781925050506119e1565b6000825111156119d35780826040516020016119bb929190614760565b604051602081830303815290604052925050506119e1565b6119dc84612627565b925050505b919050565b60606000600c805480602002602001604051908101604052809291908181526020016000905b82821015611ab8578382906000526020600020018054611a2b90614140565b80601f0160208091040260200160405190810160405280929190818152602001828054611a5790614140565b8015611aa45780601f10611a7957610100808354040283529160200191611aa4565b820191906000526020600020905b815481529060010190602001808311611a8757829003601f168201915b505050505081526020019060010190611a0c565b5050505090508091505090565b6009818051602081018201805184825260208301602085012081835280955050505050506000915090505481565b6000600560008473ffffffffffffffffffffffffffffffffffffffff1673ffffffffffffffffffffffffffffffffffffffff16815260200190815260200160002060008373ffffffffffffffffffffffffffffffffffffffff1673ffffffffffffffffffffffffffffffffffffffff16815260200190815260200160002060009054906101000a900460ff16905092915050565b60007f01ffc9a7000000000000000000000000000000000000000000000000000000007bffffffffffffffffffffffffffffffffffffffffffffffffffffffff1916827bffffffffffffffffffffffffffffffffffffffffffffffffffffffff1916149050919050565b600080611c4184848080601f016020809104026020016040519081016040528093929190818152602001838380828437600081840152601f19601f8201169050808301925050505050505061268f565b905060008111611c5057600080fd5b60028103611c695767016345785d8a0000915050611ca5565b60038103611c815766b1a2bc2ec50000915050611ca5565b60048103611c9957666a94d74f430000915050611ca5565b662386f26fc100009150505b92915050565b60006002611cfc84848080601f016020809104026020016040519081016040528093929190818152602001838380828437600081840152601f19601f8201169050808301925050505050505061268f565b10158015611d5757506020611d5484848080601f016020809104026020016040519081016040528093929190818152602001838380828437600081840152601f19601f8201169050808301925050505050505061268f565b11155b905092915050565b600081600001549050919050565b6001816000016000828254019250508190555050565b60606000825103611da557604051806020016040528060008152509050611ee1565b6000604051806060016040528060408152602001614cfe6040913990506000600360028551611dd49190614784565b611dde91906147e7565b6004611dea9190614818565b67ffffffffffffffff811115611e0357611e026131f2565b5b6040519080825280601f01601f191660200182016040528015611e355781602001600182028036833780820191505090505b509050600182016020820185865187015b80821015611ea1576003820191508151603f8160121c168501518453600184019350603f81600c1c168501518453600184019350603f8160061c168501518453600184019350603f8116850151845360018401935050611e46565b5050600386510660018114611ebd5760028114611ed057611ed8565b603d6001830353603d6002830353611ed8565b603d60018303535b50505080925050505b919050565b611f00828260405180602001604052806000815250612844565b5050565b611f0d8261289f565b611f4c576040517f08c379a0000000000000000000000000000000000000000000000000000000008152600401611f43906148cc565b60405180910390fd5b80600660008481526020019081526020016000209081611f6c919061431d565b505050565b611f7a8161289f565b611fb9576040517f08c379a0000000000000000000000000000000000000000000000000000000008152600401611fb09061467f565b60405180910390fd5b50565b600033905090565b816004600083815260200190815260200160002060006101000a81548173ffffffffffffffffffffffffffffffffffffffff021916908373ffffffffffffffffffffffffffffffffffffffff160217905550808273ffffffffffffffffffffffffffffffffffffffff166120378361137c565b73ffffffffffffffffffffffffffffffffffffffff167f8c5be1e5ebec7d5bd14f71427d1e84f3dd0314c0f7b2291e5b200ac8c7c3b92560405160405180910390a45050565b6000806120898361137c565b90508073ffffffffffffffffffffffffffffffffffffffff168473ffffffffffffffffffffffffffffffffffffffff1614806120cb57506120ca8185611af3565b5b8061210957508373ffffffffffffffffffffffffffffffffffffffff166120f184610f83565b73ffffffffffffffffffffffffffffffffffffffff16145b91505092915050565b8273ffffffffffffffffffffffffffffffffffffffff166121328261137c565b73ffffffffffffffffffffffffffffffffffffffff1614612188576040517f08c379a000000000000000000000000000000000000000000000000000000000815260040161217f9061495e565b60405180910390fd5b600073ffffffffffffffffffffffffffffffffffffffff168273ffffffffffffffffffffffffffffffffffffffff16036121f7576040517f08c379a00000000000000000000000000000000000000000000000000000000081526004016121ee906149f0565b60405180910390fd5b61220483838360016128e0565b8273ffffffffffffffffffffffffffffffffffffffff166122248261137c565b73ffffffffffffffffffffffffffffffffffffffff161461227a576040517f08c379a00000000000000000000000000000000000000000000000000000000081526004016122719061495e565b60405180910390fd5b6004600082815260200190815260200160002060006101000a81549073ffffffffffffffffffffffffffffffffffffffff02191690556001600360008573ffffffffffffffffffffffffffffffffffffffff1673ffffffffffffffffffffffffffffffffffffffff168152602001908152602001600020600082825403925050819055506001600360008473ffffffffffffffffffffffffffffffffffffffff1673ffffffffffffffffffffffffffffffffffffffff16815260200190815260200160002060008282540192505081905550816002600083815260200190815260200160002060006101000a81548173ffffffffffffffffffffffffffffffffffffffff021916908373ffffffffffffffffffffffffffffffffffffffff160217905550808273ffffffffffffffffffffffffffffffffffffffff168473ffffffffffffffffffffffffffffffffffffffff167fddf252ad1be2c89b69c2b068fc378daa952ba7f163c4a11628f55a4df523b3ef60405160405180910390a46124068383836001612a06565b505050565b60006002600083815260200190815260200160002060009054906101000a900473ffffffffffffffffffffffffffffffffffffffff169050919050565b8173ffffffffffffffffffffffffffffffffffffffff168373ffffffffffffffffffffffffffffffffffffffff16036124b6576040517f08c379a00000000000000000000000000000000000000000000000000000000081526004016124ad90614a5c565b60405180910390fd5b80600560008573ffffffffffffffffffffffffffffffffffffffff1673ffffffffffffffffffffffffffffffffffffffff16815260200190815260200160002060008473ffffffffffffffffffffffffffffffffffffffff1673ffffffffffffffffffffffffffffffffffffffff16815260200190815260200160002060006101000a81548160ff0219169083151502179055508173ffffffffffffffffffffffffffffffffffffffff168373ffffffffffffffffffffffffffffffffffffffff167f17307eab39ab6107e8899845ad3d59bd9653f200f220920489ca2b5937696c31836040516125a791906130a8565b60405180910390a3505050565b6125bf848484612112565b6125cb84848484612a0c565b61260a576040517f08c379a000000000000000000000000000000000000000000000000000000000815260040161260190614aee565b60405180910390fd5b50505050565b606060405180602001604052806000815250905090565b606061263282611f71565b600061263c612610565b9050600081511161265c5760405180602001604052806000815250612687565b8061266684612b93565b604051602001612677929190614760565b6040516020818303038152906040525b915050919050565b60008060008084519050600092505b808210156128395760008583815181106126bb576126ba61469f565b5b602001015160f81c60f81b9050608060f81b817effffffffffffffffffffffffffffffffffffffffffffffffffffffffffffff1916101561270a576001836127039190614784565b9250612825565b60e060f81b817effffffffffffffffffffffffffffffffffffffffffffffffffffffffffffff1916101561274c576002836127459190614784565b9250612824565b60f060f81b817effffffffffffffffffffffffffffffffffffffffffffffffffffffffffffff1916101561278e576003836127879190614784565b9250612823565b60f8801b817effffffffffffffffffffffffffffffffffffffffffffffffffffffffffffff191610156127cf576004836127c89190614784565b9250612822565b60fc60f81b817effffffffffffffffffffffffffffffffffffffffffffffffffffffffffffff191610156128115760058361280a9190614784565b9250612821565b60068361281e9190614784565b92505b5b5b5b5b50828061283190614435565b93505061269e565b829350505050919050565b61284e8383612c61565b61285b6000848484612a0c565b61289a576040517f08c379a000000000000000000000000000000000000000000000000000000000815260040161289190614aee565b60405180910390fd5b505050565b60008073ffffffffffffffffffffffffffffffffffffffff166128c18361240b565b73ffffffffffffffffffffffffffffffffffffffff1614159050919050565b6001811115612a0057600073ffffffffffffffffffffffffffffffffffffffff168473ffffffffffffffffffffffffffffffffffffffff16146129745780600360008673ffffffffffffffffffffffffffffffffffffffff1673ffffffffffffffffffffffffffffffffffffffff168152602001908152602001600020600082825461296c9190614b0e565b925050819055505b600073ffffffffffffffffffffffffffffffffffffffff168373ffffffffffffffffffffffffffffffffffffffff16146129ff5780600360008573ffffffffffffffffffffffffffffffffffffffff1673ffffffffffffffffffffffffffffffffffffffff16815260200190815260200160002060008282546129f79190614784565b925050819055505b5b50505050565b50505050565b6000612a2d8473ffffffffffffffffffffffffffffffffffffffff16612e7e565b15612b86578373ffffffffffffffffffffffffffffffffffffffff1663150b7a02612a56611fbc565b8786866040518563ffffffff1660e01b8152600401612a789493929190614b97565b6020604051808303816000875af1925050508015612ab457506040513d601f19601f82011682018060405250810190612ab19190614bf8565b60015b612b36573d8060008114612ae4576040519150601f19603f3d011682016040523d82523d6000602084013e612ae9565b606091505b506000815103612b2e576040517f08c379a0000000000000000000000000000000000000000000000000000000008152600401612b2590614aee565b60405180910390fd5b805181602001fd5b63150b7a0260e01b7bffffffffffffffffffffffffffffffffffffffffffffffffffffffff1916817bffffffffffffffffffffffffffffffffffffffffffffffffffffffff191614915050612b8b565b600190505b949350505050565b606060006001612ba284612ea1565b01905060008167ffffffffffffffff811115612bc157612bc06131f2565b5b6040519080825280601f01601f191660200182016040528015612bf35781602001600182028036833780820191505090505b509050600082602001820190505b600115612c56578080600190039150507f3031323334353637383961626364656600000000000000000000000000000000600a86061a8153600a8581612c4a57612c496147b8565b5b04945060008503612c01575b819350505050919050565b600073ffffffffffffffffffffffffffffffffffffffff168273ffffffffffffffffffffffffffffffffffffffff1603612cd0576040517f08c379a0000000000000000000000000000000000000000000000000000000008152600401612cc790614c71565b60405180910390fd5b612cd98161289f565b15612d19576040517f08c379a0000000000000000000000000000000000000000000000000000000008152600401612d1090614cdd565b60405180910390fd5b612d276000838360016128e0565b612d308161289f565b15612d70576040517f08c379a0000000000000000000000000000000000000000000000000000000008152600401612d6790614cdd565b60405180910390fd5b6001600360008473ffffffffffffffffffffffffffffffffffffffff1673ffffffffffffffffffffffffffffffffffffffff16815260200190815260200160002060008282540192505081905550816002600083815260200190815260200160002060006101000a81548173ffffffffffffffffffffffffffffffffffffffff021916908373ffffffffffffffffffffffffffffffffffffffff160217905550808273ffffffffffffffffffffffffffffffffffffffff16600073ffffffffffffffffffffffffffffffffffffffff167fddf252ad1be2c89b69c2b068fc378daa952ba7f163c4a11628f55a4df523b3ef60405160405180910390a4612e7a600083836001612a06565b5050565b6000808273ffffffffffffffffffffffffffffffffffffffff163b119050919050565b600080600090507a184f03e93ff9f4daa797ed6e38ed64bf6a1f0100000000000000008310612eff577a184f03e93ff9f4daa797ed6e38ed64bf6a1f0100000000000000008381612ef557612ef46147b8565b5b0492506040810190505b6d04ee2d6d415b85acef81000000008310612f3c576d04ee2d6d415b85acef81000000008381612f3257612f316147b8565b5b0492506020810190505b662386f26fc100008310612f6b57662386f26fc100008381612f6157612f606147b8565b5b0492506010810190505b6305f5e1008310612f94576305f5e1008381612f8a57612f896147b8565b5b0492506008810190505b6127108310612fb9576127108381612faf57612fae6147b8565b5b0492506004810190505b60648310612fdc5760648381612fd257612fd16147b8565b5b0492506002810190505b600a8310612feb576001810190505b80915050919050565b6000604051905090565b600080fd5b600080fd5b60007fffffffff0000000000000000000000000000000000000000000000000000000082169050919050565b61303d81613008565b811461304857600080fd5b50565b60008135905061305a81613034565b92915050565b60006020828403121561307657613075612ffe565b5b60006130848482850161304b565b91505092915050565b60008115159050919050565b6130a28161308d565b82525050565b60006020820190506130bd6000830184613099565b92915050565b600080fd5b600080fd5b600080fd5b60008083601f8401126130e8576130e76130c3565b5b8235905067ffffffffffffffff811115613105576131046130c8565b5b602083019150836001820283011115613121576131206130cd565b5b9250929050565b6000806000806000806060878903121561314557613144612ffe565b5b600087013567ffffffffffffffff81111561316357613162613003565b5b61316f89828a016130d2565b9650965050602087013567ffffffffffffffff81111561319257613191613003565b5b61319e89828a016130d2565b9450945050604087013567ffffffffffffffff8111156131c1576131c0613003565b5b6131cd89828a016130d2565b92509250509295509295509295565b600080fd5b6000601f19601f8301169050919050565b7f4e487b7100000000000000000000000000000000000000000000000000000000600052604160045260246000fd5b61322a826131e1565b810181811067ffffffffffffffff82111715613249576132486131f2565b5b80604052505050565b600061325c612ff4565b90506132688282613221565b919050565b600067ffffffffffffffff821115613288576132876131f2565b5b613291826131e1565b9050602081019050919050565b82818337600083830152505050565b60006132c06132bb8461326d565b613252565b9050828152602081018484840111156132dc576132db6131dc565b5b6132e784828561329e565b509392505050565b600082601f830112613304576133036130c3565b5b81356133148482602086016132ad565b91505092915050565b60006020828403121561333357613332612ffe565b5b600082013567ffffffffffffffff81111561335157613350613003565b5b61335d848285016132ef565b91505092915050565b600081519050919050565b600082825260208201905092915050565b60005b838110156133a0578082015181840152602081019050613385565b60008484015250505050565b60006133b782613366565b6133c18185613371565b93506133d1818560208601613382565b6133da816131e1565b840191505092915050565b600060a08201905081810360008301526133ff81886133ac565b9050818103602083015261341381876133ac565b9050818103604083015261342781866133ac565b9050818103606083015261343b81856133ac565b9050818103608083015261344f81846133ac565b90509695505050505050565b6000602082019050818103600083015261347581846133ac565b905092915050565b6000819050919050565b6134908161347d565b811461349b57600080fd5b50565b6000813590506134ad81613487565b92915050565b6000602082840312156134c9576134c8612ffe565b5b60006134d78482850161349e565b91505092915050565b600073ffffffffffffffffffffffffffffffffffffffff82169050919050565b600061350b826134e0565b9050919050565b61351b81613500565b82525050565b60006020820190506135366000830184613512565b92915050565b61354581613500565b811461355057600080fd5b50565b6000813590506135628161353c565b92915050565b6000806040838503121561357f5761357e612ffe565b5b600061358d85828601613553565b925050602061359e8582860161349e565b9150509250929050565b6135b18161347d565b82525050565b60006020820190506135cc60008301846135a8565b92915050565b6000806000606084860312156135eb576135ea612ffe565b5b60006135f986828701613553565b935050602061360a86828701613553565b925050604061361b8682870161349e565b9150509250925092565b6000806040838503121561363c5761363b612ffe565b5b600083013567ffffffffffffffff81111561365a57613659613003565b5b613666858286016132ef565b925050602083013567ffffffffffffffff81111561368757613686613003565b5b613693858286016132ef565b9150509250929050565b600067ffffffffffffffff8211156136b8576136b76131f2565b5b602082029050919050565b60006136d66136d18461369d565b613252565b905080602084028301858111156136f0576136ef6130cd565b5b835b8181101561373757803567ffffffffffffffff811115613715576137146130c3565b5b80860161372289826132ef565b855260208501945050506020810190506136f2565b5050509392505050565b600082601f830112613756576137556130c3565b5b60056137638482856136c3565b91505092915050565b60008060008060006060868803121561378857613787612ffe565b5b600086013567ffffffffffffffff8111156137a6576137a5613003565b5b6137b2888289016130d2565b9550955050602086013567ffffffffffffffff8111156137d5576137d4613003565b5b6137e1888289016130d2565b9350935050604086013567ffffffffffffffff81111561380457613803613003565b5b61381088828901613741565b9150509295509295909350565b60006020828403121561383357613832612ffe565b5b600061384184828501613553565b91505092915050565b6000613855826134e0565b9050919050565b6138658161384a565b82525050565b6000602082019050613880600083018461385c565b92915050565b6000806020838503121561389d5761389c612ffe565b5b600083013567ffffffffffffffff8111156138bb576138ba613003565b5b6138c7858286016130d2565b92509250509250929050565b6138dc8161308d565b81146138e757600080fd5b50565b6000813590506138f9816138d3565b92915050565b6000806040838503121561391657613915612ffe565b5b600061392485828601613553565b9250506020613935858286016138ea565b9150509250929050565b600067ffffffffffffffff82111561395a576139596131f2565b5b613963826131e1565b9050602081019050919050565b600061398361397e8461393f565b613252565b90508281526020810184848401111561399f5761399e6131dc565b5b6139aa84828561329e565b509392505050565b600082601f8301126139c7576139c66130c3565b5b81356139d7848260208601613970565b91505092915050565b600080600080608085870312156139fa576139f9612ffe565b5b6000613a0887828801613553565b9450506020613a1987828801613553565b9350506040613a2a8782880161349e565b925050606085013567ffffffffffffffff811115613a4b57613a4a613003565b5b613a57878288016139b2565b91505092959194509250565b600081519050919050565b600082825260208201905092915050565b6000819050602082019050919050565b600082825260208201905092915050565b6000613aab82613366565b613ab58185613a8f565b9350613ac5818560208601613382565b613ace816131e1565b840191505092915050565b6000613ae58383613aa0565b905092915050565b6000602082019050919050565b6000613b0582613a63565b613b0f8185613a6e565b935083602082028501613b2185613a7f565b8060005b85811015613b5d5784840389528151613b3e8582613ad9565b9450613b4983613aed565b925060208a01995050600181019050613b25565b50829750879550505050505092915050565b60006020820190508181036000830152613b898184613afa565b905092915050565b60008060408385031215613ba857613ba7612ffe565b5b6000613bb685828601613553565b9250506020613bc785828601613553565b9150509250929050565b6000613bdd8385613371565b9350613bea83858461329e565b613bf3836131e1565b840190509392505050565b60006020820190508181036000830152613c19818486613bd1565b90509392505050565b6000604082019050613c3760008301856135a8565b613c4460208301846135a8565b9392505050565b600081905092915050565b6000613c628385613c4b565b9350613c6f83858461329e565b82840190509392505050565b6000613c88828486613c56565b91508190509392505050565b7f2e00000000000000000000000000000000000000000000000000000000000000600082015250565b6000613cca600183613c4b565b9150613cd582613c94565b600182019050919050565b6000613ced828688613c56565b9150613cf882613cbd565b9150613d05828486613c56565b915081905095945050505050565b6000613d1e82613366565b613d288185613c4b565b9350613d38818560208601613382565b80840191505092915050565b6000613d508286613d13565b9150613d5c8285613d13565b9150613d688284613d13565b9150819050949350505050565b7f2e00000000000000000000000000000000000000000000000000000000000000815250565b6000613da8828688613c56565b9150613db382613d75565b600182019150613dc4828486613c56565b915081905095945050505050565b7f7b00000000000000000000000000000000000000000000000000000000000000600082015250565b6000613e08600183613c4b565b9150613e1382613dd2565b600182019050919050565b7f226e616d65223a20220000000000000000000000000000000000000000000000600082015250565b6000613e54600983613c4b565b9150613e5f82613e1e565b600982019050919050565b7f222c000000000000000000000000000000000000000000000000000000000000600082015250565b6000613ea0600283613c4b565b9150613eab82613e6a565b600282019050919050565b7f226465736372697074696f6e223a2022556d6272656c6c61204e616d6520536560008201527f7276696365222c00000000000000000000000000000000000000000000000000602082015250565b6000613f12602783613c4b565b9150613f1d82613eb6565b602782019050919050565b7f22696d616765223a2022646174613a696d6167652f7376672b786d6c3b62617360008201527f6536342c00000000000000000000000000000000000000000000000000000000602082015250565b6000613f84602483613c4b565b9150613f8f82613f28565b602482019050919050565b7f2200000000000000000000000000000000000000000000000000000000000000600082015250565b6000613fd0600183613c4b565b9150613fdb82613f9a565b600182019050919050565b7f7d00000000000000000000000000000000000000000000000000000000000000600082015250565b600061401c600183613c4b565b915061402782613fe6565b600182019050919050565b600061403d82613dfb565b915061404882613e47565b91506140548285613d13565b915061405f82613e93565b915061406a82613f05565b915061407582613f77565b91506140818284613d13565b915061408c82613fc3565b91506140978261400f565b91508190509392505050565b7f646174613a6170706c69636174696f6e2f6a736f6e3b6261736536342c000000600082015250565b60006140d9601d83613c4b565b91506140e4826140a3565b601d82019050919050565b60006140fa826140cc565b91506141068284613d13565b915081905092915050565b7f4e487b7100000000000000000000000000000000000000000000000000000000600052602260045260246000fd5b6000600282049050600182168061415857607f821691505b60208210810361416b5761416a614111565b5b50919050565b60008190508160005260206000209050919050565b60006020601f8301049050919050565b600082821b905092915050565b6000600883026141d37fffffffffffffffffffffffffffffffffffffffffffffffffffffffffffffffff82614196565b6141dd8683614196565b95508019841693508086168417925050509392505050565b6000819050919050565b600061421a6142156142108461347d565b6141f5565b61347d565b9050919050565b6000819050919050565b614234836141ff565b61424861424082614221565b8484546141a3565b825550505050565b600090565b61425d614250565b61426881848461422b565b505050565b5b8181101561428c57614281600082614255565b60018101905061426e565b5050565b601f8211156142d1576142a281614171565b6142ab84614186565b810160208510156142ba578190505b6142ce6142c685614186565b83018261426d565b50505b505050565b600082821c905092915050565b60006142f4600019846008026142d6565b1980831691505092915050565b600061430d83836142e3565b9150826002028217905092915050565b61432682613366565b67ffffffffffffffff81111561433f5761433e6131f2565b5b6143498254614140565b614354828285614290565b600060209050601f8311600181146143875760008415614375578287015190505b61437f8582614301565b8655506143e7565b601f19841661439586614171565b60005b828110156143bd57848901518255600182019150602085019450602081019050614398565b868310156143da57848901516143d6601f8916826142e3565b8355505b6001600288020188555050505b505050505050565b60006143fb8284613d13565b915081905092915050565b7f4e487b7100000000000000000000000000000000000000000000000000000000600052601160045260246000fd5b60006144408261347d565b91507fffffffffffffffffffffffffffffffffffffffffffffffffffffffffffffffff820361447257614471614406565b5b600182019050919050565b7f4552433732313a20617070726f76616c20746f2063757272656e74206f776e6560008201527f7200000000000000000000000000000000000000000000000000000000000000602082015250565b60006144d9602183613371565b91506144e48261447d565b604082019050919050565b60006020820190508181036000830152614508816144cc565b9050919050565b7f4552433732313a20617070726f76652063616c6c6572206973206e6f7420746f60008201527f6b656e206f776e6572206f7220617070726f76656420666f7220616c6c000000602082015250565b600061456b603d83613371565b91506145768261450f565b604082019050919050565b6000602082019050818103600083015261459a8161455e565b9050919050565b7f4552433732313a2063616c6c6572206973206e6f7420746f6b656e206f776e6560008201527f72206f7220617070726f76656400000000000000000000000000000000000000602082015250565b60006145fd602d83613371565b9150614608826145a1565b604082019050919050565b6000602082019050818103600083015261462c816145f0565b9050919050565b7f4552433732313a20696e76616c696420746f6b656e2049440000000000000000600082015250565b6000614669601883613371565b915061467482614633565b602082019050919050565b600060208201905081810360008301526146988161465c565b9050919050565b7f4e487b7100000000000000000000000000000000000000000000000000000000600052603260045260246000fd5b7f4552433732313a2061646472657373207a65726f206973206e6f74206120766160008201527f6c6964206f776e65720000000000000000000000000000000000000000000000602082015250565b600061472a602983613371565b9150614735826146ce565b604082019050919050565b600060208201905081810360008301526147598161471d565b9050919050565b600061476c8285613d13565b91506147788284613d13565b91508190509392505050565b600061478f8261347d565b915061479a8361347d565b92508282019050808211156147b2576147b1614406565b5b92915050565b7f4e487b7100000000000000000000000000000000000000000000000000000000600052601260045260246000fd5b60006147f28261347d565b91506147fd8361347d565b92508261480d5761480c6147b8565b5b828204905092915050565b60006148238261347d565b915061482e8361347d565b925082820261483c8161347d565b9150828204841483151761485357614852614406565b5b5092915050565b7f45524337323155524953746f726167653a2055524920736574206f66206e6f6e60008201527f6578697374656e7420746f6b656e000000000000000000000000000000000000602082015250565b60006148b6602e83613371565b91506148c18261485a565b604082019050919050565b600060208201905081810360008301526148e5816148a9565b9050919050565b7f4552433732313a207472616e736665722066726f6d20696e636f72726563742060008201527f6f776e6572000000000000000000000000000000000000000000000000000000602082015250565b6000614948602583613371565b9150614953826148ec565b604082019050919050565b600060208201905081810360008301526149778161493b565b9050919050565b7f4552433732313a207472616e7366657220746f20746865207a65726f2061646460008201527f7265737300000000000000000000000000000000000000000000000000000000602082015250565b60006149da602483613371565b91506149e58261497e565b604082019050919050565b60006020820190508181036000830152614a09816149cd565b9050919050565b7f4552433732313a20617070726f766520746f2063616c6c657200000000000000600082015250565b6000614a46601983613371565b9150614a5182614a10565b602082019050919050565b60006020820190508181036000830152614a7581614a39565b9050919050565b7f4552433732313a207472616e7366657220746f206e6f6e20455243373231526560008201527f63656976657220696d706c656d656e7465720000000000000000000000000000602082015250565b6000614ad8603283613371565b9150614ae382614a7c565b604082019050919050565b60006020820190508181036000830152614b0781614acb565b9050919050565b6000614b198261347d565b9150614b248361347d565b9250828203905081811115614b3c57614b3b614406565b5b92915050565b600081519050919050565b600082825260208201905092915050565b6000614b6982614b42565b614b738185614b4d565b9350614b83818560208601613382565b614b8c816131e1565b840191505092915050565b6000608082019050614bac6000830187613512565b614bb96020830186613512565b614bc660408301856135a8565b8181036060830152614bd88184614b5e565b905095945050505050565b600081519050614bf281613034565b92915050565b600060208284031215614c0e57614c0d612ffe565b5b6000614c1c84828501614be3565b91505092915050565b7f4552433732313a206d696e7420746f20746865207a65726f2061646472657373600082015250565b6000614c5b602083613371565b9150614c6682614c25565b602082019050919050565b60006020820190508181036000830152614c8a81614c4e565b9050919050565b7f4552433732313a20746f6b656e20616c7265616479206d696e74656400000000600082015250565b6000614cc7601c83613371565b9150614cd282614c91565b602082019050919050565b60006020820190508181036000830152614cf681614cba565b905091905056fe4142434445464748494a4b4c4d4e4f505152535455565758595a6162636465666768696a6b6c6d6e6f707172737475767778797a303132333435363738392b2f3c73766720786d6c6e733d22687474703a2f2f7777772e77332e6f72672f323030302f737667222077696474683d2232373022206865696768743d22323730222066696c6c3d226e6f6e65223e3c706174682066696c6c3d2275726c282361292220643d224d302030683237307632373048307a222f3e3c646566733e3c66696c7465722069643d22622220636f6c6f722d696e746572706f6c6174696f6e2d66696c746572733d2273524742222066696c746572556e6974733d227573657253706163654f6e55736522206865696768743d22333030222077696474683d22333030223e3c666544726f70536861646f772064783d2238222064793d222d31302220737464446576696174696f6e3d22322220666c6f6f642d6f7061636974793d222e38222077696474683d223230302522206865696768743d2232303025222f3e3c2f66696c7465723e3c2f646566733e3c646566733e3c6c696e6561724772616469656e742069643d2261222078313d22323730222079313d22323730222078323d2230222079323d223022206772616469656e74556e6974733d227573657253706163654f6e557365223e3c73746f702073746f702d636f6c6f723d2223303066663766222f3e3c73746f70206f66667365743d2231222073746f702d6f7061636974793d2230222f3e3c2f6c696e6561724772616469656e743e3c2f646566733e3c7465787420783d2233322e352220793d223233312220666f6e742d73697a653d223137222066696c6c3d2223666666222066696c7465723d2275726c282362292220666f6e742d66616d696c793d226d6f6e6f73706163652c44656a6156752053616e732c4e6f746f20436f6c6f7220456d6f6a692c4170706c6520436f6c6f7220456d6f6a692c73616e732d73657269662220666f6e742d7765696768743d22626f6c642220746578742d6f766572666c6f773d22656c6c6970736973223ea2646970667358221220f5794dc5c33c508035884b4514e3f64402d8271eeebf550c3ecb39109bac2eb964736f6c63430008110033",
  "linkReferences": {},
  "deployedLinkReferences": {}
}