{
  "_format": "hh-sol-artifact-1",
  "contractName": "ENS",
  "sourceName": "contracts/ENS.sol",
  "abi": [
    {
      "inputs": [],
      "stateMutability": "payable",
      "type": "constructor"
    },
    {
      "inputs": [
        {
          "internalType": "uint256",
          "name": "expected",
          "type": "uint256"
        },
        {
          "internalType": "uint256",
          "name": "sent",
          "type": "uint256"
        }
      ],
      "name": "InvalidFunds",
      "type": "error"
    },
    {
      "inputs": [
        {
          "internalType": "string",
          "name": "name",
          "type": "string"
        }
      ],
      "name": "InvalidName",
      "type": "error"
    },
    {
      "inputs": [],
      "name": "NameAlreadyExists",
      "type": "error"
    },
    {
      "inputs": [],
      "name": "Unauthorized",
      "type": "error"
    },
    {
      "anonymous": false,
      "inputs": [
        {
          "indexed": true,
          "internalType": "address",
          "name": "owner",
          "type": "address"
        },
        {
          "indexed": true,
          "internalType": "address",
          "name": "approved",
          "type": "address"
        },
        {
          "indexed": true,
          "internalType": "uint256",
          "name": "tokenId",
          "type": "uint256"
        }
      ],
      "name": "Approval",
      "type": "event"
    },
    {
      "anonymous": false,
      "inputs": [
        {
          "indexed": true,
          "internalType": "address",
          "name": "owner",
          "type": "address"
        },
        {
          "indexed": true,
          "internalType": "address",
          "name": "operator",
          "type": "address"
        },
        {
          "indexed": false,
          "internalType": "bool",
          "name": "approved",
          "type": "bool"
        }
      ],
      "name": "ApprovalForAll",
      "type": "event"
    },
    {
      "anonymous": false,
      "inputs": [
        {
          "indexed": false,
          "internalType": "string",
          "name": "name",
          "type": "string"
        },
        {
          "indexed": true,
          "internalType": "address",
          "name": "owner",
          "type": "address"
        }
      ],
      "name": "RegisterName",
      "type": "event"
    },
    {
      "anonymous": false,
      "inputs": [
        {
          "indexed": true,
          "internalType": "address",
          "name": "from",
          "type": "address"
        },
        {
          "indexed": true,
          "internalType": "address",
          "name": "to",
          "type": "address"
        },
        {
          "indexed": true,
          "internalType": "uint256",
          "name": "tokenId",
          "type": "uint256"
        }
      ],
      "name": "Transfer",
      "type": "event"
    },
    {
      "anonymous": false,
      "inputs": [
        {
          "indexed": false,
          "internalType": "string",
          "name": "name",
          "type": "string"
        }
      ],
      "name": "UpdateData",
      "type": "event"
    },
    {
      "inputs": [
        {
          "internalType": "address",
          "name": "to",
          "type": "address"
        },
        {
          "internalType": "uint256",
          "name": "tokenId",
          "type": "uint256"
        }
      ],
      "name": "approve",
      "outputs": [],
      "stateMutability": "nonpayable",
      "type": "function"
    },
    {
      "inputs": [
        {
          "internalType": "address",
          "name": "owner",
          "type": "address"
        }
      ],
      "name": "balanceOf",
      "outputs": [
        {
          "internalType": "uint256",
          "name": "",
          "type": "uint256"
        }
      ],
      "stateMutability": "view",
      "type": "function"
    },
    {
      "inputs": [
        {
          "internalType": "string",
          "name": "",
          "type": "string"
        }
      ],
      "name": "data",
      "outputs": [
        {
          "internalType": "string",
          "name": "ethAddress",
          "type": "string"
        },
        {
          "internalType": "string",
          "name": "btcAddress",
          "type": "string"
        },
        {
          "internalType": "string",
          "name": "ltcAddress",
          "type": "string"
        },
        {
          "internalType": "string",
          "name": "bnbAddress",
          "type": "string"
        },
        {
          "internalType": "string",
          "name": "solanaAddress",
          "type": "string"
        }
      ],
      "stateMutability": "view",
      "type": "function"
    },
    {
      "inputs": [
        {
          "internalType": "uint256",
          "name": "tokenId",
          "type": "uint256"
        }
      ],
      "name": "getApproved",
      "outputs": [
        {
          "internalType": "address",
          "name": "",
          "type": "address"
        }
      ],
      "stateMutability": "view",
      "type": "function"
    },
    {
      "inputs": [],
      "name": "getNames",
      "outputs": [
        {
          "internalType": "string[]",
          "name": "",
          "type": "string[]"
        }
      ],
      "stateMutability": "view",
      "type": "function"
    },
    {
      "inputs": [
        {
          "internalType": "address",
          "name": "owner",
          "type": "address"
        },
        {
          "internalType": "address",
          "name": "operator",
          "type": "address"
        }
      ],
      "name": "isApprovedForAll",
      "outputs": [
        {
          "internalType": "bool",
          "name": "",
          "type": "bool"
        }
      ],
      "stateMutability": "view",
      "type": "function"
    },
    {
      "inputs": [],
      "name": "name",
      "outputs": [
        {
          "internalType": "string",
          "name": "",
          "type": "string"
        }
      ],
      "stateMutability": "view",
      "type": "function"
    },
    {
      "inputs": [
        {
          "internalType": "uint256",
          "name": "",
          "type": "uint256"
        }
      ],
      "name": "names",
      "outputs": [
        {
          "internalType": "string",
          "name": "",
          "type": "string"
        }
      ],
      "stateMutability": "view",
      "type": "function"
    },
    {
      "inputs": [],
      "name": "owner",
      "outputs": [
        {
          "internalType": "address payable",
          "name": "",
          "type": "address"
        }
      ],
      "stateMutability": "view",
      "type": "function"
    },
    {
      "inputs": [
        {
          "internalType": "uint256",
          "name": "tokenId",
          "type": "uint256"
        }
      ],
      "name": "ownerOf",
      "outputs": [
        {
          "internalType": "address",
          "name": "",
          "type": "address"
        }
      ],
      "stateMutability": "view",
      "type": "function"
    },
    {
      "inputs": [
        {
          "internalType": "string",
          "name": "",
          "type": "string"
        },
        {
          "internalType": "string",
          "name": "",
          "type": "string"
        }
      ],
      "name": "register",
      "outputs": [
        {
          "internalType": "address",
          "name": "",
          "type": "address"
        }
      ],
      "stateMutability": "view",
      "type": "function"
    },
    {
      "inputs": [
        {
          "internalType": "address",
          "name": "from",
          "type": "address"
        },
        {
          "internalType": "address",
          "name": "to",
          "type": "address"
        },
        {
          "internalType": "uint256",
          "name": "tokenId",
          "type": "uint256"
        }
      ],
      "name": "safeTransferFrom",
      "outputs": [],
      "stateMutability": "nonpayable",
      "type": "function"
    },
    {
      "inputs": [
        {
          "internalType": "address",
          "name": "from",
          "type": "address"
        },
        {
          "internalType": "address",
          "name": "to",
          "type": "address"
        },
        {
          "internalType": "uint256",
          "name": "tokenId",
          "type": "uint256"
        },
        {
          "internalType": "bytes",
          "name": "data",
          "type": "bytes"
        }
      ],
      "name": "safeTransferFrom",
      "outputs": [],
      "stateMutability": "nonpayable",
      "type": "function"
    },
    {
      "inputs": [
        {
          "internalType": "address",
          "name": "operator",
          "type": "address"
        },
        {
          "internalType": "bool",
          "name": "approved",
          "type": "bool"
        }
      ],
      "name": "setApprovalForAll",
      "outputs": [],
      "stateMutability": "nonpayable",
      "type": "function"
    },
    {
      "inputs": [
        {
          "internalType": "string",
          "name": "_name",
          "type": "string"
        },
        {
          "internalType": "string",
          "name": "_tld",
          "type": "string"
        },
        {
          "internalType": "string[]",
          "name": "_data",
          "type": "string[]"
        }
      ],
      "name": "setData",
      "outputs": [],
      "stateMutability": "nonpayable",
      "type": "function"
    },
    {
      "inputs": [
        {
          "internalType": "string",
          "name": "_name",
          "type": "string"
        },
        {
          "internalType": "string",
          "name": "_tld",
          "type": "string"
        }
      ],
      "name": "setName",
      "outputs": [],
      "stateMutability": "payable",
      "type": "function"
    },
    {
      "inputs": [
        {
          "internalType": "bytes4",
          "name": "interfaceId",
          "type": "bytes4"
        }
      ],
      "name": "supportsInterface",
      "outputs": [
        {
          "internalType": "bool",
          "name": "",
          "type": "bool"
        }
      ],
      "stateMutability": "view",
      "type": "function"
    },
    {
      "inputs": [],
      "name": "symbol",
      "outputs": [
        {
          "internalType": "string",
          "name": "",
          "type": "string"
        }
      ],
      "stateMutability": "view",
      "type": "function"
    },
    {
      "inputs": [
        {
          "internalType": "string",
          "name": "",
          "type": "string"
        }
      ],
      "name": "tldCount",
      "outputs": [
        {
          "internalType": "uint256",
          "name": "",
          "type": "uint256"
        }
      ],
      "stateMutability": "view",
      "type": "function"
    },
    {
      "inputs": [
        {
          "internalType": "uint256",
          "name": "tokenId",
          "type": "uint256"
        }
      ],
      "name": "tokenURI",
      "outputs": [
        {
          "internalType": "string",
          "name": "",
          "type": "string"
        }
      ],
      "stateMutability": "view",
      "type": "function"
    },
    {
      "inputs": [
        {
          "internalType": "address",
          "name": "from",
          "type": "address"
        },
        {
          "internalType": "address",
          "name": "to",
          "type": "address"
        },
        {
          "internalType": "uint256",
          "name": "tokenId",
          "type": "uint256"
        }
      ],
      "name": "transferFrom",
      "outputs": [],
      "stateMutability": "nonpayable",
      "type": "function"
    },
    {
      "inputs": [],
      "name": "withdraw",
      "outputs": [],
      "stateMutability": "payable",
      "type": "function"
    }
  ],
  "bytecode": "0x60a06040526040518060400160405280600f81526020017f556d6272656c6c6120546f6b656e7300000000000000000000000000000000008152506040518060400160405280600381526020017f554d54000000000000000000000000000000000000000000000000000000000081525081600090816200008191906200034a565b5080600190816200009391906200034a565b5050503373ffffffffffffffffffffffffffffffffffffffff1660808173ffffffffffffffffffffffffffffffffffffffff168152505062000431565b600081519050919050565b7f4e487b7100000000000000000000000000000000000000000000000000000000600052604160045260246000fd5b7f4e487b7100000000000000000000000000000000000000000000000000000000600052602260045260246000fd5b600060028204905060018216806200015257607f821691505b6020821081036200016857620001676200010a565b5b50919050565b60008190508160005260206000209050919050565b60006020601f8301049050919050565b600082821b905092915050565b600060088302620001d27fffffffffffffffffffffffffffffffffffffffffffffffffffffffffffffffff8262000193565b620001de868362000193565b95508019841693508086168417925050509392505050565b6000819050919050565b6000819050919050565b60006200022b620002256200021f84620001f6565b62000200565b620001f6565b9050919050565b6000819050919050565b62000247836200020a565b6200025f620002568262000232565b848454620001a0565b825550505050565b600090565b6200027662000267565b620002838184846200023c565b505050565b5b81811015620002ab576200029f6000826200026c565b60018101905062000289565b5050565b601f821115620002fa57620002c4816200016e565b620002cf8462000183565b81016020851015620002df578190505b620002f7620002ee8562000183565b83018262000288565b50505b505050565b600082821c905092915050565b60006200031f60001984600802620002ff565b1980831691505092915050565b60006200033a83836200030c565b9150826002028217905092915050565b6200035582620000d0565b67ffffffffffffffff811115620003715762000370620000db565b5b6200037d825462000139565b6200038a828285620002af565b600060209050601f831160018114620003c25760008415620003ad578287015190505b620003b985826200032c565b86555062000429565b601f198416620003d2866200016e565b60005b82811015620003fc57848901518255600182019150602085019450602081019050620003d5565b868310156200041c578489015162000418601f8916826200030c565b8355505b6001600288020188555050505b505050505050565b6080516154a16200045460003960008181610e8a015261161401526154a16000f3fe6080604052600436106101355760003560e01c80635c707f07116100ab578063a22cb4651161006f578063a22cb46514610434578063b88d4fde1461045d578063c87b56dd14610486578063cd838f0f146104c3578063d40089e0146104ee578063e985e9c51461052b57610135565b80635c707f07146103485780636352211e1461036457806370a08231146103a15780638da5cb5b146103de57806395d89b411461040957610135565b80631ecf4f6f116100fd5780631ecf4f6f1461024957806323b872dd146102725780633ccfd60b1461029b5780633ffbd47f146102a557806342842e0e146102e25780634622ab031461030b57610135565b806301ffc9a71461013a57806304f6748c1461017757806306fdde03146101b8578063081812fc146101e3578063095ea7b314610220575b600080fd5b34801561014657600080fd5b50610161600480360381019061015c9190612ecc565b610568565b60405161016e9190612f14565b60405180910390f35b34801561018357600080fd5b5061019e60048036038101906101999190613075565b61064a565b6040516101af95949392919061313d565b60405180910390f35b3480156101c457600080fd5b506101cd61093e565b6040516101da91906131b3565b60405180910390f35b3480156101ef57600080fd5b5061020a6004803603810190610205919061320b565b6109d0565b6040516102179190613279565b60405180910390f35b34801561022c57600080fd5b50610247600480360381019061024291906132c0565b610a16565b005b34801561025557600080fd5b50610270600480360381019061026b91906133b6565b610b2d565b005b34801561027e57600080fd5b506102996004803603810190610294919061346a565b610e28565b005b6102a3610e88565b005b3480156102b157600080fd5b506102cc60048036038101906102c791906134bd565b610f5c565b6040516102d99190613279565b60405180910390f35b3480156102ee57600080fd5b506103096004803603810190610304919061346a565b610fca565b005b34801561031757600080fd5b50610332600480360381019061032d919061320b565b610fea565b60405161033f91906131b3565b60405180910390f35b610362600480360381019061035d9190613535565b611096565b005b34801561037057600080fd5b5061038b6004803603810190610386919061320b565b6114d5565b6040516103989190613279565b60405180910390f35b3480156103ad57600080fd5b506103c860048036038101906103c391906135b6565b61155b565b6040516103d591906135f2565b60405180910390f35b3480156103ea57600080fd5b506103f3611612565b604051610400919061362e565b60405180910390f35b34801561041557600080fd5b5061041e611636565b60405161042b91906131b3565b60405180910390f35b34801561044057600080fd5b5061045b60048036038101906104569190613675565b6116c8565b005b34801561046957600080fd5b50610484600480360381019061047f9190613756565b6116de565b005b34801561049257600080fd5b506104ad60048036038101906104a8919061320b565b611740565b6040516104ba91906131b3565b60405180910390f35b3480156104cf57600080fd5b506104d8611852565b6040516104e591906138e5565b60405180910390f35b3480156104fa57600080fd5b5061051560048036038101906105109190613075565b611931565b60405161052291906135f2565b60405180910390f35b34801561053757600080fd5b50610552600480360381019061054d9190613907565b61195f565b60405161055f9190612f14565b60405180910390f35b60007f80ac58cd000000000000000000000000000000000000000000000000000000007bffffffffffffffffffffffffffffffffffffffffffffffffffffffff1916827bffffffffffffffffffffffffffffffffffffffffffffffffffffffff1916148061063357507f5b5e139f000000000000000000000000000000000000000000000000000000007bffffffffffffffffffffffffffffffffffffffffffffffffffffffff1916827bffffffffffffffffffffffffffffffffffffffffffffffffffffffff1916145b806106435750610642826119f3565b5b9050919050565b600a8180516020810182018051848252602083016020850120818352809550505050505060009150905080600001805461068390613976565b80601f01602080910402602001604051908101604052809291908181526020018280546106af90613976565b80156106fc5780601f106106d1576101008083540402835291602001916106fc565b820191906000526020600020905b8154815290600101906020018083116106df57829003601f168201915b50505050509080600101805461071190613976565b80601f016020809104026020016040519081016040528092919081815260200182805461073d90613976565b801561078a5780601f1061075f5761010080835404028352916020019161078a565b820191906000526020600020905b81548152906001019060200180831161076d57829003601f168201915b50505050509080600201805461079f90613976565b80601f01602080910402602001604051908101604052809291908181526020018280546107cb90613976565b80156108185780601f106107ed57610100808354040283529160200191610818565b820191906000526020600020905b8154815290600101906020018083116107fb57829003601f168201915b50505050509080600301805461082d90613976565b80601f016020809104026020016040519081016040528092919081815260200182805461085990613976565b80156108a65780601f1061087b576101008083540402835291602001916108a6565b820191906000526020600020905b81548152906001019060200180831161088957829003601f168201915b5050505050908060040180546108bb90613976565b80601f01602080910402602001604051908101604052809291908181526020018280546108e790613976565b80156109345780601f1061090957610100808354040283529160200191610934565b820191906000526020600020905b81548152906001019060200180831161091757829003601f168201915b5050505050905085565b60606000805461094d90613976565b80601f016020809104026020016040519081016040528092919081815260200182805461097990613976565b80156109c65780601f1061099b576101008083540402835291602001916109c6565b820191906000526020600020905b8154815290600101906020018083116109a957829003601f168201915b5050505050905090565b60006109db82611a5d565b6004600083815260200190815260200160002060009054906101000a900473ffffffffffffffffffffffffffffffffffffffff169050919050565b6000610a21826114d5565b90508073ffffffffffffffffffffffffffffffffffffffff168373ffffffffffffffffffffffffffffffffffffffff1603610a91576040517f08c379a0000000000000000000000000000000000000000000000000000000008152600401610a8890613a19565b60405180910390fd5b8073ffffffffffffffffffffffffffffffffffffffff16610ab0611aa8565b73ffffffffffffffffffffffffffffffffffffffff161480610adf5750610ade81610ad9611aa8565b61195f565b5b610b1e576040517f08c379a0000000000000000000000000000000000000000000000000000000008152600401610b1590613aab565b60405180910390fd5b610b288383611ab0565b505050565b3373ffffffffffffffffffffffffffffffffffffffff1660088585604051610b56929190613afb565b90815260200160405180910390208787604051610b74929190613afb565b908152602001604051809103902060009054906101000a900473ffffffffffffffffffffffffffffffffffffffff1673ffffffffffffffffffffffffffffffffffffffff1614610bf0576040517f82b4290000000000000000000000000000000000000000000000000000000000815260040160405180910390fd5b600086868686604051602001610c099493929190613b3a565b604051602081830303815290604052905082826000818110610c2e57610c2d613b71565b5b9050602002810190610c409190613baf565b600a83604051610c509190613c43565b90815260200160405180910390206000019182610c6e929190613e11565b5082826001818110610c8357610c82613b71565b5b9050602002810190610c959190613baf565b600a83604051610ca59190613c43565b90815260200160405180910390206001019182610cc3929190613e11565b5082826002818110610cd857610cd7613b71565b5b9050602002810190610cea9190613baf565b600a83604051610cfa9190613c43565b90815260200160405180910390206002019182610d18929190613e11565b5082826003818110610d2d57610d2c613b71565b5b9050602002810190610d3f9190613baf565b600a83604051610d4f9190613c43565b90815260200160405180910390206003019182610d6d929190613e11565b5082826004818110610d8257610d81613b71565b5b9050602002810190610d949190613baf565b600a83604051610da49190613c43565b90815260200160405180910390206004019182610dc2929190613e11565b507ff68065a4b091644ab4f0a078f9322a97b3f01849dc0951d33c7e0c7821ea66e187878787604051602001610dfb9493929190613b3a565b604051602081830303815290604052604051610e1791906131b3565b60405180910390a150505050505050565b610e39610e33611aa8565b82611b69565b610e78576040517f08c379a0000000000000000000000000000000000000000000000000000000008152600401610e6f90613f53565b60405180910390fd5b610e83838383611bfe565b505050565b7f000000000000000000000000000000000000000000000000000000000000000073ffffffffffffffffffffffffffffffffffffffff163373ffffffffffffffffffffffffffffffffffffffff1614610f0d576040517f82b4290000000000000000000000000000000000000000000000000000000000815260040160405180910390fd5b60004790503373ffffffffffffffffffffffffffffffffffffffff166108fc829081150290604051600060405180830381858888f19350505050158015610f58573d6000803e3d6000fd5b5050565b600882805160208101820180518482526020830160208501208183528095505050505050818051602081018201805184825260208301602085012081835280955050505050506000915091509054906101000a900473ffffffffffffffffffffffffffffffffffffffff1681565b610fe5838383604051806020016040528060008152506116de565b505050565b600b8181548110610ffa57600080fd5b90600052602060002001600091509050805461101590613976565b80601f016020809104026020016040519081016040528092919081815260200182805461104190613976565b801561108e5780601f106110635761010080835404028352916020019161108e565b820191906000526020600020905b81548152906001019060200180831161107157829003601f168201915b505050505081565b60006110a28585611ef7565b90506110ae8585611fb1565b6110f15784846040517f7f19f48d0000000000000000000000000000000000000000000000000000000081526004016110e8929190613fa0565b60405180910390fd5b803410156111385780346040517f89bc52af00000000000000000000000000000000000000000000000000000000815260040161112f929190613fc4565b60405180910390fd5b600073ffffffffffffffffffffffffffffffffffffffff1660088484604051611162929190613afb565b90815260200160405180910390208686604051611180929190613afb565b908152602001604051809103902060009054906101000a900473ffffffffffffffffffffffffffffffffffffffff1673ffffffffffffffffffffffffffffffffffffffff16146111fc576040517fd202940c00000000000000000000000000000000000000000000000000000000815260040160405180910390fd5b6000858585856040516020016112159493929190614039565b60405160208183030381529060405290506000604051806108a0016040528061086b8152602001614c0161086b9139826040518060400160405280600d81526020017f3c2f746578743e3c2f7376673e0000000000000000000000000000000000000081525060405160200161128d9392919061406c565b604051602081830303815290604052905060006112aa6007612065565b90506112b66007612073565b600061130f898989896040516020016112d29493929190613b3a565b6040516020818303038152906040526112ea85612089565b6040516020016112fb9291906142fd565b604051602081830303815290604052612089565b905060008160405160200161132491906143ba565b604051602081830303815290604052905061133f33846121ec565b611349838261220a565b336008898960405161135c929190613afb565b90815260200160405180910390208b8b60405161137a929190613afb565b908152602001604051809103902060006101000a81548173ffffffffffffffffffffffffffffffffffffffff021916908373ffffffffffffffffffffffffffffffffffffffff160217905550600b8a8a8a8a6040516020016113df9493929190613b3a565b60405160208183030381529060405290806001815401808255809150506001900390600052602060002001600090919091909150908161141f91906143dc565b5060098888604051611432929190613afb565b90815260200160405180910390206000815480929190611451906144dd565b91905055503373ffffffffffffffffffffffffffffffffffffffff167f47295f5b4a8fe83d604cbc77f624030eda37507ba632784272248210b013232a8b8b8b8b6040516020016114a59493929190613b3a565b6040516020818303038152906040526040516114c191906131b3565b60405180910390a250505050505050505050565b6000806114e183612277565b9050600073ffffffffffffffffffffffffffffffffffffffff168173ffffffffffffffffffffffffffffffffffffffff1603611552576040517f08c379a000000000000000000000000000000000000000000000000000000000815260040161154990614571565b60405180910390fd5b80915050919050565b60008073ffffffffffffffffffffffffffffffffffffffff168273ffffffffffffffffffffffffffffffffffffffff16036115cb576040517f08c379a00000000000000000000000000000000000000000000000000000000081526004016115c290614603565b60405180910390fd5b600360008373ffffffffffffffffffffffffffffffffffffffff1673ffffffffffffffffffffffffffffffffffffffff168152602001908152602001600020549050919050565b7f000000000000000000000000000000000000000000000000000000000000000081565b60606001805461164590613976565b80601f016020809104026020016040519081016040528092919081815260200182805461167190613976565b80156116be5780601f10611693576101008083540402835291602001916116be565b820191906000526020600020905b8154815290600101906020018083116116a157829003601f168201915b5050505050905090565b6116da6116d3611aa8565b83836122b4565b5050565b6116ef6116e9611aa8565b83611b69565b61172e576040517f08c379a000000000000000000000000000000000000000000000000000000000815260040161172590613f53565b60405180910390fd5b61173a84848484612420565b50505050565b606061174b82611a5d565b600060066000848152602001908152602001600020805461176b90613976565b80601f016020809104026020016040519081016040528092919081815260200182805461179790613976565b80156117e45780601f106117b9576101008083540402835291602001916117e4565b820191906000526020600020905b8154815290600101906020018083116117c757829003601f168201915b5050505050905060006117f561247c565b9050600081510361180a57819250505061184d565b60008251111561183f578082604051602001611827929190614623565b6040516020818303038152906040529250505061184d565b61184884612493565b925050505b919050565b60606000600b805480602002602001604051908101604052809291908181526020016000905b8282101561192457838290600052602060002001805461189790613976565b80601f01602080910402602001604051908101604052809291908181526020018280546118c390613976565b80156119105780601f106118e557610100808354040283529160200191611910565b820191906000526020600020905b8154815290600101906020018083116118f357829003601f168201915b505050505081526020019060010190611878565b5050505090508091505090565b6009818051602081018201805184825260208301602085012081835280955050505050506000915090505481565b6000600560008473ffffffffffffffffffffffffffffffffffffffff1673ffffffffffffffffffffffffffffffffffffffff16815260200190815260200160002060008373ffffffffffffffffffffffffffffffffffffffff1673ffffffffffffffffffffffffffffffffffffffff16815260200190815260200160002060009054906101000a900460ff16905092915050565b60007f01ffc9a7000000000000000000000000000000000000000000000000000000007bffffffffffffffffffffffffffffffffffffffffffffffffffffffff1916827bffffffffffffffffffffffffffffffffffffffffffffffffffffffff1916149050919050565b611a66816124fb565b611aa5576040517f08c379a0000000000000000000000000000000000000000000000000000000008152600401611a9c90614571565b60405180910390fd5b50565b600033905090565b816004600083815260200190815260200160002060006101000a81548173ffffffffffffffffffffffffffffffffffffffff021916908373ffffffffffffffffffffffffffffffffffffffff160217905550808273ffffffffffffffffffffffffffffffffffffffff16611b23836114d5565b73ffffffffffffffffffffffffffffffffffffffff167f8c5be1e5ebec7d5bd14f71427d1e84f3dd0314c0f7b2291e5b200ac8c7c3b92560405160405180910390a45050565b600080611b75836114d5565b90508073ffffffffffffffffffffffffffffffffffffffff168473ffffffffffffffffffffffffffffffffffffffff161480611bb75750611bb6818561195f565b5b80611bf557508373ffffffffffffffffffffffffffffffffffffffff16611bdd846109d0565b73ffffffffffffffffffffffffffffffffffffffff16145b91505092915050565b8273ffffffffffffffffffffffffffffffffffffffff16611c1e826114d5565b73ffffffffffffffffffffffffffffffffffffffff1614611c74576040517f08c379a0000000000000000000000000000000000000000000000000000000008152600401611c6b906146b9565b60405180910390fd5b600073ffffffffffffffffffffffffffffffffffffffff168273ffffffffffffffffffffffffffffffffffffffff1603611ce3576040517f08c379a0000000000000000000000000000000000000000000000000000000008152600401611cda9061474b565b60405180910390fd5b611cf0838383600161253c565b8273ffffffffffffffffffffffffffffffffffffffff16611d10826114d5565b73ffffffffffffffffffffffffffffffffffffffff1614611d66576040517f08c379a0000000000000000000000000000000000000000000000000000000008152600401611d5d906146b9565b60405180910390fd5b6004600082815260200190815260200160002060006101000a81549073ffffffffffffffffffffffffffffffffffffffff02191690556001600360008573ffffffffffffffffffffffffffffffffffffffff1673ffffffffffffffffffffffffffffffffffffffff168152602001908152602001600020600082825403925050819055506001600360008473ffffffffffffffffffffffffffffffffffffffff1673ffffffffffffffffffffffffffffffffffffffff16815260200190815260200160002060008282540192505081905550816002600083815260200190815260200160002060006101000a81548173ffffffffffffffffffffffffffffffffffffffff021916908373ffffffffffffffffffffffffffffffffffffffff160217905550808273ffffffffffffffffffffffffffffffffffffffff168473ffffffffffffffffffffffffffffffffffffffff167fddf252ad1be2c89b69c2b068fc378daa952ba7f163c4a11628f55a4df523b3ef60405160405180910390a4611ef28383836001612662565b505050565b600080611f4784848080601f016020809104026020016040519081016040528093929190818152602001838380828437600081840152601f19601f82011690508083019250505050505050612668565b905060008111611f5657600080fd5b60028103611f6f5767016345785d8a0000915050611fab565b60038103611f875766b1a2bc2ec50000915050611fab565b60048103611f9f57666a94d74f430000915050611fab565b662386f26fc100009150505b92915050565b6000600261200284848080601f016020809104026020016040519081016040528093929190818152602001838380828437600081840152601f19601f82011690508083019250505050505050612668565b1015801561205d5750602061205a84848080601f016020809104026020016040519081016040528093929190818152602001838380828437600081840152601f19601f82011690508083019250505050505050612668565b11155b905092915050565b600081600001549050919050565b6001816000016000828254019250508190555050565b606060008251036120ab576040518060200160405280600081525090506121e7565b6000604051806060016040528060408152602001614bc160409139905060006003600285516120da919061476b565b6120e491906147ce565b60046120f091906147ff565b67ffffffffffffffff81111561210957612108612f4a565b5b6040519080825280601f01601f19166020018201604052801561213b5781602001600182028036833780820191505090505b509050600182016020820185865187015b808210156121a7576003820191508151603f8160121c168501518453600184019350603f81600c1c168501518453600184019350603f8160061c168501518453600184019350603f811685015184536001840193505061214c565b50506003865106600181146121c357600281146121d6576121de565b603d6001830353603d60028303536121de565b603d60018303535b50505080925050505b919050565b61220682826040518060200160405280600081525061281d565b5050565b612213826124fb565b612252576040517f08c379a0000000000000000000000000000000000000000000000000000000008152600401612249906148b3565b60405180910390fd5b8060066000848152602001908152602001600020908161227291906143dc565b505050565b60006002600083815260200190815260200160002060009054906101000a900473ffffffffffffffffffffffffffffffffffffffff169050919050565b8173ffffffffffffffffffffffffffffffffffffffff168373ffffffffffffffffffffffffffffffffffffffff1603612322576040517f08c379a00000000000000000000000000000000000000000000000000000000081526004016123199061491f565b60405180910390fd5b80600560008573ffffffffffffffffffffffffffffffffffffffff1673ffffffffffffffffffffffffffffffffffffffff16815260200190815260200160002060008473ffffffffffffffffffffffffffffffffffffffff1673ffffffffffffffffffffffffffffffffffffffff16815260200190815260200160002060006101000a81548160ff0219169083151502179055508173ffffffffffffffffffffffffffffffffffffffff168373ffffffffffffffffffffffffffffffffffffffff167f17307eab39ab6107e8899845ad3d59bd9653f200f220920489ca2b5937696c31836040516124139190612f14565b60405180910390a3505050565b61242b848484611bfe565b61243784848484612878565b612476576040517f08c379a000000000000000000000000000000000000000000000000000000000815260040161246d906149b1565b60405180910390fd5b50505050565b606060405180602001604052806000815250905090565b606061249e82611a5d565b60006124a861247c565b905060008151116124c857604051806020016040528060008152506124f3565b806124d2846129ff565b6040516020016124e3929190614623565b6040516020818303038152906040525b915050919050565b60008073ffffffffffffffffffffffffffffffffffffffff1661251d83612277565b73ffffffffffffffffffffffffffffffffffffffff1614159050919050565b600181111561265c57600073ffffffffffffffffffffffffffffffffffffffff168473ffffffffffffffffffffffffffffffffffffffff16146125d05780600360008673ffffffffffffffffffffffffffffffffffffffff1673ffffffffffffffffffffffffffffffffffffffff16815260200190815260200160002060008282546125c891906149d1565b925050819055505b600073ffffffffffffffffffffffffffffffffffffffff168373ffffffffffffffffffffffffffffffffffffffff161461265b5780600360008573ffffffffffffffffffffffffffffffffffffffff1673ffffffffffffffffffffffffffffffffffffffff1681526020019081526020016000206000828254612653919061476b565b925050819055505b5b50505050565b50505050565b60008060008084519050600092505b8082101561281257600085838151811061269457612693613b71565b5b602001015160f81c60f81b9050608060f81b817effffffffffffffffffffffffffffffffffffffffffffffffffffffffffffff191610156126e3576001836126dc919061476b565b92506127fe565b60e060f81b817effffffffffffffffffffffffffffffffffffffffffffffffffffffffffffff191610156127255760028361271e919061476b565b92506127fd565b60f060f81b817effffffffffffffffffffffffffffffffffffffffffffffffffffffffffffff1916101561276757600383612760919061476b565b92506127fc565b60f8801b817effffffffffffffffffffffffffffffffffffffffffffffffffffffffffffff191610156127a8576004836127a1919061476b565b92506127fb565b60fc60f81b817effffffffffffffffffffffffffffffffffffffffffffffffffffffffffffff191610156127ea576005836127e3919061476b565b92506127fa565b6006836127f7919061476b565b92505b5b5b5b5b50828061280a906144dd565b935050612677565b829350505050919050565b6128278383612acd565b6128346000848484612878565b612873576040517f08c379a000000000000000000000000000000000000000000000000000000000815260040161286a906149b1565b60405180910390fd5b505050565b60006128998473ffffffffffffffffffffffffffffffffffffffff16612cea565b156129f2578373ffffffffffffffffffffffffffffffffffffffff1663150b7a026128c2611aa8565b8786866040518563ffffffff1660e01b81526004016128e49493929190614a5a565b6020604051808303816000875af192505050801561292057506040513d601f19601f8201168201806040525081019061291d9190614abb565b60015b6129a2573d8060008114612950576040519150601f19603f3d011682016040523d82523d6000602084013e612955565b606091505b50600081510361299a576040517f08c379a0000000000000000000000000000000000000000000000000000000008152600401612991906149b1565b60405180910390fd5b805181602001fd5b63150b7a0260e01b7bffffffffffffffffffffffffffffffffffffffffffffffffffffffff1916817bffffffffffffffffffffffffffffffffffffffffffffffffffffffff1916149150506129f7565b600190505b949350505050565b606060006001612a0e84612d0d565b01905060008167ffffffffffffffff811115612a2d57612a2c612f4a565b5b6040519080825280601f01601f191660200182016040528015612a5f5781602001600182028036833780820191505090505b509050600082602001820190505b600115612ac2578080600190039150507f3031323334353637383961626364656600000000000000000000000000000000600a86061a8153600a8581612ab657612ab561479f565b5b04945060008503612a6d575b819350505050919050565b600073ffffffffffffffffffffffffffffffffffffffff168273ffffffffffffffffffffffffffffffffffffffff1603612b3c576040517f08c379a0000000000000000000000000000000000000000000000000000000008152600401612b3390614b34565b60405180910390fd5b612b45816124fb565b15612b85576040517f08c379a0000000000000000000000000000000000000000000000000000000008152600401612b7c90614ba0565b60405180910390fd5b612b9360008383600161253c565b612b9c816124fb565b15612bdc576040517f08c379a0000000000000000000000000000000000000000000000000000000008152600401612bd390614ba0565b60405180910390fd5b6001600360008473ffffffffffffffffffffffffffffffffffffffff1673ffffffffffffffffffffffffffffffffffffffff16815260200190815260200160002060008282540192505081905550816002600083815260200190815260200160002060006101000a81548173ffffffffffffffffffffffffffffffffffffffff021916908373ffffffffffffffffffffffffffffffffffffffff160217905550808273ffffffffffffffffffffffffffffffffffffffff16600073ffffffffffffffffffffffffffffffffffffffff167fddf252ad1be2c89b69c2b068fc378daa952ba7f163c4a11628f55a4df523b3ef60405160405180910390a4612ce6600083836001612662565b5050565b6000808273ffffffffffffffffffffffffffffffffffffffff163b119050919050565b600080600090507a184f03e93ff9f4daa797ed6e38ed64bf6a1f0100000000000000008310612d6b577a184f03e93ff9f4daa797ed6e38ed64bf6a1f0100000000000000008381612d6157612d6061479f565b5b0492506040810190505b6d04ee2d6d415b85acef81000000008310612da8576d04ee2d6d415b85acef81000000008381612d9e57612d9d61479f565b5b0492506020810190505b662386f26fc100008310612dd757662386f26fc100008381612dcd57612dcc61479f565b5b0492506010810190505b6305f5e1008310612e00576305f5e1008381612df657612df561479f565b5b0492506008810190505b6127108310612e25576127108381612e1b57612e1a61479f565b5b0492506004810190505b60648310612e485760648381612e3e57612e3d61479f565b5b0492506002810190505b600a8310612e57576001810190505b80915050919050565b6000604051905090565b600080fd5b600080fd5b60007fffffffff0000000000000000000000000000000000000000000000000000000082169050919050565b612ea981612e74565b8114612eb457600080fd5b50565b600081359050612ec681612ea0565b92915050565b600060208284031215612ee257612ee1612e6a565b5b6000612ef084828501612eb7565b91505092915050565b60008115159050919050565b612f0e81612ef9565b82525050565b6000602082019050612f296000830184612f05565b92915050565b600080fd5b600080fd5b6000601f19601f8301169050919050565b7f4e487b7100000000000000000000000000000000000000000000000000000000600052604160045260246000fd5b612f8282612f39565b810181811067ffffffffffffffff82111715612fa157612fa0612f4a565b5b80604052505050565b6000612fb4612e60565b9050612fc08282612f79565b919050565b600067ffffffffffffffff821115612fe057612fdf612f4a565b5b612fe982612f39565b9050602081019050919050565b82818337600083830152505050565b600061301861301384612fc5565b612faa565b90508281526020810184848401111561303457613033612f34565b5b61303f848285612ff6565b509392505050565b600082601f83011261305c5761305b612f2f565b5b813561306c848260208601613005565b91505092915050565b60006020828403121561308b5761308a612e6a565b5b600082013567ffffffffffffffff8111156130a9576130a8612e6f565b5b6130b584828501613047565b91505092915050565b600081519050919050565b600082825260208201905092915050565b60005b838110156130f85780820151818401526020810190506130dd565b60008484015250505050565b600061310f826130be565b61311981856130c9565b93506131298185602086016130da565b61313281612f39565b840191505092915050565b600060a08201905081810360008301526131578188613104565b9050818103602083015261316b8187613104565b9050818103604083015261317f8186613104565b905081810360608301526131938185613104565b905081810360808301526131a78184613104565b90509695505050505050565b600060208201905081810360008301526131cd8184613104565b905092915050565b6000819050919050565b6131e8816131d5565b81146131f357600080fd5b50565b600081359050613205816131df565b92915050565b60006020828403121561322157613220612e6a565b5b600061322f848285016131f6565b91505092915050565b600073ffffffffffffffffffffffffffffffffffffffff82169050919050565b600061326382613238565b9050919050565b61327381613258565b82525050565b600060208201905061328e600083018461326a565b92915050565b61329d81613258565b81146132a857600080fd5b50565b6000813590506132ba81613294565b92915050565b600080604083850312156132d7576132d6612e6a565b5b60006132e5858286016132ab565b92505060206132f6858286016131f6565b9150509250929050565b600080fd5b600080fd5b60008083601f8401126133205761331f612f2f565b5b8235905067ffffffffffffffff81111561333d5761333c613300565b5b60208301915083600182028301111561335957613358613305565b5b9250929050565b60008083601f84011261337657613375612f2f565b5b8235905067ffffffffffffffff81111561339357613392613300565b5b6020830191508360208202830111156133af576133ae613305565b5b9250929050565b600080600080600080606087890312156133d3576133d2612e6a565b5b600087013567ffffffffffffffff8111156133f1576133f0612e6f565b5b6133fd89828a0161330a565b9650965050602087013567ffffffffffffffff8111156134205761341f612e6f565b5b61342c89828a0161330a565b9450945050604087013567ffffffffffffffff81111561344f5761344e612e6f565b5b61345b89828a01613360565b92509250509295509295509295565b60008060006060848603121561348357613482612e6a565b5b6000613491868287016132ab565b93505060206134a2868287016132ab565b92505060406134b3868287016131f6565b9150509250925092565b600080604083850312156134d4576134d3612e6a565b5b600083013567ffffffffffffffff8111156134f2576134f1612e6f565b5b6134fe85828601613047565b925050602083013567ffffffffffffffff81111561351f5761351e612e6f565b5b61352b85828601613047565b9150509250929050565b6000806000806040858703121561354f5761354e612e6a565b5b600085013567ffffffffffffffff81111561356d5761356c612e6f565b5b6135798782880161330a565b9450945050602085013567ffffffffffffffff81111561359c5761359b612e6f565b5b6135a88782880161330a565b925092505092959194509250565b6000602082840312156135cc576135cb612e6a565b5b60006135da848285016132ab565b91505092915050565b6135ec816131d5565b82525050565b600060208201905061360760008301846135e3565b92915050565b600061361882613238565b9050919050565b6136288161360d565b82525050565b6000602082019050613643600083018461361f565b92915050565b61365281612ef9565b811461365d57600080fd5b50565b60008135905061366f81613649565b92915050565b6000806040838503121561368c5761368b612e6a565b5b600061369a858286016132ab565b92505060206136ab85828601613660565b9150509250929050565b600067ffffffffffffffff8211156136d0576136cf612f4a565b5b6136d982612f39565b9050602081019050919050565b60006136f96136f4846136b5565b612faa565b90508281526020810184848401111561371557613714612f34565b5b613720848285612ff6565b509392505050565b600082601f83011261373d5761373c612f2f565b5b813561374d8482602086016136e6565b91505092915050565b600080600080608085870312156137705761376f612e6a565b5b600061377e878288016132ab565b945050602061378f878288016132ab565b93505060406137a0878288016131f6565b925050606085013567ffffffffffffffff8111156137c1576137c0612e6f565b5b6137cd87828801613728565b91505092959194509250565b600081519050919050565b600082825260208201905092915050565b6000819050602082019050919050565b600082825260208201905092915050565b6000613821826130be565b61382b8185613805565b935061383b8185602086016130da565b61384481612f39565b840191505092915050565b600061385b8383613816565b905092915050565b6000602082019050919050565b600061387b826137d9565b61388581856137e4565b935083602082028501613897856137f5565b8060005b858110156138d357848403895281516138b4858261384f565b94506138bf83613863565b925060208a0199505060018101905061389b565b50829750879550505050505092915050565b600060208201905081810360008301526138ff8184613870565b905092915050565b6000806040838503121561391e5761391d612e6a565b5b600061392c858286016132ab565b925050602061393d858286016132ab565b9150509250929050565b7f4e487b7100000000000000000000000000000000000000000000000000000000600052602260045260246000fd5b6000600282049050600182168061398e57607f821691505b6020821081036139a1576139a0613947565b5b50919050565b7f4552433732313a20617070726f76616c20746f2063757272656e74206f776e6560008201527f7200000000000000000000000000000000000000000000000000000000000000602082015250565b6000613a036021836130c9565b9150613a0e826139a7565b604082019050919050565b60006020820190508181036000830152613a32816139f6565b9050919050565b7f4552433732313a20617070726f76652063616c6c6572206973206e6f7420746f60008201527f6b656e206f776e6572206f7220617070726f76656420666f7220616c6c000000602082015250565b6000613a95603d836130c9565b9150613aa082613a39565b604082019050919050565b60006020820190508181036000830152613ac481613a88565b9050919050565b600081905092915050565b6000613ae28385613acb565b9350613aef838584612ff6565b82840190509392505050565b6000613b08828486613ad6565b91508190509392505050565b7f2e00000000000000000000000000000000000000000000000000000000000000815250565b6000613b47828688613ad6565b9150613b5282613b14565b600182019150613b63828486613ad6565b915081905095945050505050565b7f4e487b7100000000000000000000000000000000000000000000000000000000600052603260045260246000fd5b600080fd5b600080fd5b600080fd5b60008083356001602003843603038112613bcc57613bcb613ba0565b5b80840192508235915067ffffffffffffffff821115613bee57613bed613ba5565b5b602083019250600182023603831315613c0a57613c09613baa565b5b509250929050565b6000613c1d826130be565b613c278185613acb565b9350613c378185602086016130da565b80840191505092915050565b6000613c4f8284613c12565b915081905092915050565b600082905092915050565b60008190508160005260206000209050919050565b60006020601f8301049050919050565b600082821b905092915050565b600060088302613cc77fffffffffffffffffffffffffffffffffffffffffffffffffffffffffffffffff82613c8a565b613cd18683613c8a565b95508019841693508086168417925050509392505050565b6000819050919050565b6000613d0e613d09613d04846131d5565b613ce9565b6131d5565b9050919050565b6000819050919050565b613d2883613cf3565b613d3c613d3482613d15565b848454613c97565b825550505050565b600090565b613d51613d44565b613d5c818484613d1f565b505050565b5b81811015613d8057613d75600082613d49565b600181019050613d62565b5050565b601f821115613dc557613d9681613c65565b613d9f84613c7a565b81016020851015613dae578190505b613dc2613dba85613c7a565b830182613d61565b50505b505050565b600082821c905092915050565b6000613de860001984600802613dca565b1980831691505092915050565b6000613e018383613dd7565b9150826002028217905092915050565b613e1b8383613c5a565b67ffffffffffffffff811115613e3457613e33612f4a565b5b613e3e8254613976565b613e49828285613d84565b6000601f831160018114613e785760008415613e66578287013590505b613e708582613df5565b865550613ed8565b601f198416613e8686613c65565b60005b82811015613eae57848901358255600182019150602085019450602081019050613e89565b86831015613ecb5784890135613ec7601f891682613dd7565b8355505b6001600288020188555050505b50505050505050565b7f4552433732313a2063616c6c6572206973206e6f7420746f6b656e206f776e6560008201527f72206f7220617070726f76656400000000000000000000000000000000000000602082015250565b6000613f3d602d836130c9565b9150613f4882613ee1565b604082019050919050565b60006020820190508181036000830152613f6c81613f30565b9050919050565b6000613f7f83856130c9565b9350613f8c838584612ff6565b613f9583612f39565b840190509392505050565b60006020820190508181036000830152613fbb818486613f73565b90509392505050565b6000604082019050613fd960008301856135e3565b613fe660208301846135e3565b9392505050565b7f2e00000000000000000000000000000000000000000000000000000000000000600082015250565b6000614023600183613acb565b915061402e82613fed565b600182019050919050565b6000614046828688613ad6565b915061405182614016565b915061405e828486613ad6565b915081905095945050505050565b60006140788286613c12565b91506140848285613c12565b91506140908284613c12565b9150819050949350505050565b7f7b00000000000000000000000000000000000000000000000000000000000000600082015250565b60006140d3600183613acb565b91506140de8261409d565b600182019050919050565b7f226e616d65223a20220000000000000000000000000000000000000000000000600082015250565b600061411f600983613acb565b915061412a826140e9565b600982019050919050565b7f222c000000000000000000000000000000000000000000000000000000000000600082015250565b600061416b600283613acb565b915061417682614135565b600282019050919050565b7f226465736372697074696f6e223a2022556d6272656c6c61204e616d6520536560008201527f7276696365222c00000000000000000000000000000000000000000000000000602082015250565b60006141dd602783613acb565b91506141e882614181565b602782019050919050565b7f22696d616765223a2022646174613a696d6167652f7376672b786d6c3b62617360008201527f6536342c00000000000000000000000000000000000000000000000000000000602082015250565b600061424f602483613acb565b915061425a826141f3565b602482019050919050565b7f2200000000000000000000000000000000000000000000000000000000000000600082015250565b600061429b600183613acb565b91506142a682614265565b600182019050919050565b7f7d00000000000000000000000000000000000000000000000000000000000000600082015250565b60006142e7600183613acb565b91506142f2826142b1565b600182019050919050565b6000614308826140c6565b915061431382614112565b915061431f8285613c12565b915061432a8261415e565b9150614335826141d0565b915061434082614242565b915061434c8284613c12565b91506143578261428e565b9150614362826142da565b91508190509392505050565b7f646174613a6170706c69636174696f6e2f6a736f6e3b6261736536342c000000600082015250565b60006143a4601d83613acb565b91506143af8261436e565b601d82019050919050565b60006143c582614397565b91506143d18284613c12565b915081905092915050565b6143e5826130be565b67ffffffffffffffff8111156143fe576143fd612f4a565b5b6144088254613976565b614413828285613d84565b600060209050601f8311600181146144465760008415614434578287015190505b61443e8582613df5565b8655506144a6565b601f19841661445486613c65565b60005b8281101561447c57848901518255600182019150602085019450602081019050614457565b868310156144995784890151614495601f891682613dd7565b8355505b6001600288020188555050505b505050505050565b7f4e487b7100000000000000000000000000000000000000000000000000000000600052601160045260246000fd5b60006144e8826131d5565b91507fffffffffffffffffffffffffffffffffffffffffffffffffffffffffffffffff820361451a576145196144ae565b5b600182019050919050565b7f4552433732313a20696e76616c696420746f6b656e2049440000000000000000600082015250565b600061455b6018836130c9565b915061456682614525565b602082019050919050565b6000602082019050818103600083015261458a8161454e565b9050919050565b7f4552433732313a2061646472657373207a65726f206973206e6f74206120766160008201527f6c6964206f776e65720000000000000000000000000000000000000000000000602082015250565b60006145ed6029836130c9565b91506145f882614591565b604082019050919050565b6000602082019050818103600083015261461c816145e0565b9050919050565b600061462f8285613c12565b915061463b8284613c12565b91508190509392505050565b7f4552433732313a207472616e736665722066726f6d20696e636f72726563742060008201527f6f776e6572000000000000000000000000000000000000000000000000000000602082015250565b60006146a36025836130c9565b91506146ae82614647565b604082019050919050565b600060208201905081810360008301526146d281614696565b9050919050565b7f4552433732313a207472616e7366657220746f20746865207a65726f2061646460008201527f7265737300000000000000000000000000000000000000000000000000000000602082015250565b60006147356024836130c9565b9150614740826146d9565b604082019050919050565b6000602082019050818103600083015261476481614728565b9050919050565b6000614776826131d5565b9150614781836131d5565b9250828201905080821115614799576147986144ae565b5b92915050565b7f4e487b7100000000000000000000000000000000000000000000000000000000600052601260045260246000fd5b60006147d9826131d5565b91506147e4836131d5565b9250826147f4576147f361479f565b5b828204905092915050565b600061480a826131d5565b9150614815836131d5565b9250828202614823816131d5565b9150828204841483151761483a576148396144ae565b5b5092915050565b7f45524337323155524953746f726167653a2055524920736574206f66206e6f6e60008201527f6578697374656e7420746f6b656e000000000000000000000000000000000000602082015250565b600061489d602e836130c9565b91506148a882614841565b604082019050919050565b600060208201905081810360008301526148cc81614890565b9050919050565b7f4552433732313a20617070726f766520746f2063616c6c657200000000000000600082015250565b60006149096019836130c9565b9150614914826148d3565b602082019050919050565b60006020820190508181036000830152614938816148fc565b9050919050565b7f4552433732313a207472616e7366657220746f206e6f6e20455243373231526560008201527f63656976657220696d706c656d656e7465720000000000000000000000000000602082015250565b600061499b6032836130c9565b91506149a68261493f565b604082019050919050565b600060208201905081810360008301526149ca8161498e565b9050919050565b60006149dc826131d5565b91506149e7836131d5565b92508282039050818111156149ff576149fe6144ae565b5b92915050565b600081519050919050565b600082825260208201905092915050565b6000614a2c82614a05565b614a368185614a10565b9350614a468185602086016130da565b614a4f81612f39565b840191505092915050565b6000608082019050614a6f600083018761326a565b614a7c602083018661326a565b614a8960408301856135e3565b8181036060830152614a9b8184614a21565b905095945050505050565b600081519050614ab581612ea0565b92915050565b600060208284031215614ad157614ad0612e6a565b5b6000614adf84828501614aa6565b91505092915050565b7f4552433732313a206d696e7420746f20746865207a65726f2061646472657373600082015250565b6000614b1e6020836130c9565b9150614b2982614ae8565b602082019050919050565b60006020820190508181036000830152614b4d81614b11565b9050919050565b7f4552433732313a20746f6b656e20616c7265616479206d696e74656400000000600082015250565b6000614b8a601c836130c9565b9150614b9582614b54565b602082019050919050565b60006020820190508181036000830152614bb981614b7d565b905091905056fe4142434445464748494a4b4c4d4e4f505152535455565758595a6162636465666768696a6b6c6d6e6f707172737475767778797a303132333435363738392b2f3c73766720786d6c6e733d22687474703a2f2f7777772e77332e6f72672f323030302f737667222077696474683d2232373022206865696768743d22323730222066696c6c3d226e6f6e65223e3c706174682066696c6c3d2275726c282342292220643d224d302030683237307632373048307a222f3e3c646566733e3c66696c7465722069643d22412220636f6c6f722d696e746572706f6c6174696f6e2d66696c746572733d2273524742222066696c746572556e6974733d227573657253706163654f6e55736522206865696768743d22323730222077696474683d22323730223e3c666544726f70536861646f772064783d2230222064793d22312220737464446576696174696f6e3d22322220666c6f6f642d6f7061636974793d222e323235222077696474683d223230302522206865696768743d2232303025222f3e3c2f66696c7465723e3c2f646566733e3c7061746820643d224d37322e3836332034322e393439632d2e3636382d2e3338372d312e3432362d2e35392d322e3139372d2e3539732d312e3532392e3230342d322e3139372e35396c2d31302e30383120362e3033322d362e383520332e3933342d31302e30383120362e303332632d2e3636382e3338372d312e3432362e35392d322e3139372e3539732d312e3532392d2e3230342d322e3139372d2e35396c2d382e3031332d342e37323161342e353220342e35322030203020312d312e3538392d312e363136632d2e3338342d2e3636352d2e3539342d312e3431382d2e3630382d322e313837762d392e3331632d2e3031332d2e3737352e3138352d312e3533382e3537322d322e32303861342e323520342e323520302030203120312e3632352d312e3539356c372e3838342d342e3539632e3636382d2e33383720312e3432362d2e353920322e3139372d2e353973312e3532392e32303420322e3139372e35396c372e38383420342e353961342e353220342e353220302030203120312e35383920312e363136632e3338342e3636352e35393420312e3431382e36303820322e31383776362e3033326c362e38352d342e303635762d362e303332632e3031332d2e3737352d2e3138352d312e3533382d2e3537322d322e32303861342e323520342e32352030203020302d312e3632352d312e3539354c34312e3435362032342e3539632d2e3636382d2e3338372d312e3432362d2e35392d322e3139372d2e3539732d312e3532392e3230342d322e3139372e35396c2d31342e38363420382e36353561342e323520342e32352030203020302d312e36323520312e353935632d2e3338372e36372d2e35383520312e3433342d2e35373220322e3230387631372e343431632d2e3031332e3737352e31383520312e3533382e35373220322e32303861342e323520342e323520302030203020312e36323520312e3539356c31342e38363420382e363535632e3636382e33383720312e3432362e353920322e3139372e353973312e3532392d2e32303420322e3139372d2e35396c31302e3038312d352e39303120362e38352d342e3036352031302e3038312d352e393031632e3636382d2e33383720312e3432362d2e353920322e3139372d2e353973312e3532392e32303420322e3139372e35396c372e38383420342e353961342e353220342e353220302030203120312e35383920312e363136632e3338342e3636352e35393420312e3431382e36303820322e31383776392e333131632e3031332e3737352d2e31383520312e3533382d2e35373220322e32303861342e323520342e32352030203020312d312e36323520312e3539356c2d372e38383420342e373231632d2e3636382e3338372d312e3432362e35392d322e3139372e3539732d312e3532392d2e3230342d322e3139372d2e35396c2d372e3838342d342e353961342e353220342e35322030203020312d312e3538392d312e363136632d2e3338352d2e3636352d2e3539342d312e3431382d2e3630382d322e313837762d362e3033326c2d362e383520342e30363576362e303332632d2e3031332e3737352e31383520312e3533382e35373220322e32303861342e323520342e323520302030203020312e36323520312e3539356c31342e38363420382e363535632e3636382e33383720312e3432362e353920322e3139372e353973312e3532392d2e32303420322e3139372d2e35396c31342e3836342d382e363535632e3635372d2e33393420312e3230342d2e393520312e3538392d312e363136732e3539342d312e3431382e3630392d322e3138375635352e353338632e3031332d2e3737352d2e3138352d312e3533382d2e3537322d322e32303861342e323520342e32352030203020302d312e3632352d312e3539356c2d31342e3939332d382e3738367a222066696c6c3d2223666666222f3e3c646566733e3c6c696e6561724772616469656e742069643d2242222078313d2230222079313d2230222078323d22323730222079323d2232373022206772616469656e74556e6974733d227573657253706163654f6e557365223e3c73746f702073746f702d636f6c6f723d2223636235656565222f3e3c73746f70206f66667365743d2231222073746f702d636f6c6f723d2223306364376534222073746f702d6f7061636974793d222e3939222f3e3c2f6c696e6561724772616469656e743e3c2f646566733e3c7465787420783d2233322e352220793d223233312220666f6e742d73697a653d223237222066696c6c3d2223666666222066696c7465723d2275726c282341292220666f6e742d66616d696c793d22506c7573204a616b617274612053616e732c44656a6156752053616e732c4e6f746f20436f6c6f7220456d6f6a692c4170706c6520436f6c6f7220456d6f6a692c73616e732d73657269662220666f6e742d7765696768743d22626f6c64223ea264697066735822122040fbd48e9699e2de4e77305a9bb0083eba643f367672fd970827f37b75844c8b64736f6c63430008110033",
  "linkReferences": {},
  "deployedLinkReferences": {}
}