{
  "_format": "hh-sol-artifact-1",
  "contractName": "ENS",
  "sourceName": "contracts/ENS.sol",
  "abi": [
    {
      "inputs": [],
      "stateMutability": "payable",
      "type": "constructor"
    },
    {
      "inputs": [
        {
          "internalType": "uint256",
          "name": "expected",
          "type": "uint256"
        },
        {
          "internalType": "uint256",
          "name": "sent",
          "type": "uint256"
        }
      ],
      "name": "InvalidFunds",
      "type": "error"
    },
    {
      "inputs": [
        {
          "internalType": "string",
          "name": "name",
          "type": "string"
        }
      ],
      "name": "InvalidName",
      "type": "error"
    },
    {
      "inputs": [],
      "name": "NameAlreadyExists",
      "type": "error"
    },
    {
      "inputs": [],
      "name": "Unauthorized",
      "type": "error"
    },
    {
      "anonymous": false,
      "inputs": [
        {
          "indexed": true,
          "internalType": "address",
          "name": "owner",
          "type": "address"
        },
        {
          "indexed": true,
          "internalType": "address",
          "name": "approved",
          "type": "address"
        },
        {
          "indexed": true,
          "internalType": "uint256",
          "name": "tokenId",
          "type": "uint256"
        }
      ],
      "name": "Approval",
      "type": "event"
    },
    {
      "anonymous": false,
      "inputs": [
        {
          "indexed": true,
          "internalType": "address",
          "name": "owner",
          "type": "address"
        },
        {
          "indexed": true,
          "internalType": "address",
          "name": "operator",
          "type": "address"
        },
        {
          "indexed": false,
          "internalType": "bool",
          "name": "approved",
          "type": "bool"
        }
      ],
      "name": "ApprovalForAll",
      "type": "event"
    },
    {
      "anonymous": false,
      "inputs": [
        {
          "indexed": false,
          "internalType": "string",
          "name": "name",
          "type": "string"
        },
        {
          "indexed": true,
          "internalType": "address",
          "name": "owner",
          "type": "address"
        }
      ],
      "name": "RegisterName",
      "type": "event"
    },
    {
      "anonymous": false,
      "inputs": [
        {
          "indexed": true,
          "internalType": "address",
          "name": "from",
          "type": "address"
        },
        {
          "indexed": true,
          "internalType": "address",
          "name": "to",
          "type": "address"
        },
        {
          "indexed": true,
          "internalType": "uint256",
          "name": "tokenId",
          "type": "uint256"
        }
      ],
      "name": "Transfer",
      "type": "event"
    },
    {
      "anonymous": false,
      "inputs": [
        {
          "indexed": false,
          "internalType": "string",
          "name": "name",
          "type": "string"
        }
      ],
      "name": "UpdateData",
      "type": "event"
    },
    {
      "inputs": [
        {
          "internalType": "address",
          "name": "to",
          "type": "address"
        },
        {
          "internalType": "uint256",
          "name": "tokenId",
          "type": "uint256"
        }
      ],
      "name": "approve",
      "outputs": [],
      "stateMutability": "nonpayable",
      "type": "function"
    },
    {
      "inputs": [
        {
          "internalType": "address",
          "name": "owner",
          "type": "address"
        }
      ],
      "name": "balanceOf",
      "outputs": [
        {
          "internalType": "uint256",
          "name": "",
          "type": "uint256"
        }
      ],
      "stateMutability": "view",
      "type": "function"
    },
    {
      "inputs": [
        {
          "internalType": "string",
          "name": "",
          "type": "string"
        }
      ],
      "name": "data",
      "outputs": [
        {
          "internalType": "string",
          "name": "ethAddress",
          "type": "string"
        },
        {
          "internalType": "string",
          "name": "btcAddress",
          "type": "string"
        },
        {
          "internalType": "string",
          "name": "ltcAddress",
          "type": "string"
        },
        {
          "internalType": "string",
          "name": "bnbAddress",
          "type": "string"
        },
        {
          "internalType": "string",
          "name": "solanaAddress",
          "type": "string"
        }
      ],
      "stateMutability": "view",
      "type": "function"
    },
    {
      "inputs": [
        {
          "internalType": "uint256",
          "name": "tokenId",
          "type": "uint256"
        }
      ],
      "name": "getApproved",
      "outputs": [
        {
          "internalType": "address",
          "name": "",
          "type": "address"
        }
      ],
      "stateMutability": "view",
      "type": "function"
    },
    {
      "inputs": [
        {
          "internalType": "address",
          "name": "owner",
          "type": "address"
        },
        {
          "internalType": "address",
          "name": "operator",
          "type": "address"
        }
      ],
      "name": "isApprovedForAll",
      "outputs": [
        {
          "internalType": "bool",
          "name": "",
          "type": "bool"
        }
      ],
      "stateMutability": "view",
      "type": "function"
    },
    {
      "inputs": [],
      "name": "name",
      "outputs": [
        {
          "internalType": "string",
          "name": "",
          "type": "string"
        }
      ],
      "stateMutability": "view",
      "type": "function"
    },
    {
      "inputs": [
        {
          "internalType": "uint256",
          "name": "",
          "type": "uint256"
        }
      ],
      "name": "names",
      "outputs": [
        {
          "internalType": "string",
          "name": "",
          "type": "string"
        }
      ],
      "stateMutability": "view",
      "type": "function"
    },
    {
      "inputs": [],
      "name": "owner",
      "outputs": [
        {
          "internalType": "address payable",
          "name": "",
          "type": "address"
        }
      ],
      "stateMutability": "view",
      "type": "function"
    },
    {
      "inputs": [
        {
          "internalType": "uint256",
          "name": "tokenId",
          "type": "uint256"
        }
      ],
      "name": "ownerOf",
      "outputs": [
        {
          "internalType": "address",
          "name": "",
          "type": "address"
        }
      ],
      "stateMutability": "view",
      "type": "function"
    },
    {
      "inputs": [
        {
          "internalType": "string",
          "name": "",
          "type": "string"
        },
        {
          "internalType": "string",
          "name": "",
          "type": "string"
        }
      ],
      "name": "register",
      "outputs": [
        {
          "internalType": "address",
          "name": "",
          "type": "address"
        }
      ],
      "stateMutability": "view",
      "type": "function"
    },
    {
      "inputs": [
        {
          "internalType": "address",
          "name": "from",
          "type": "address"
        },
        {
          "internalType": "address",
          "name": "to",
          "type": "address"
        },
        {
          "internalType": "uint256",
          "name": "tokenId",
          "type": "uint256"
        }
      ],
      "name": "safeTransferFrom",
      "outputs": [],
      "stateMutability": "nonpayable",
      "type": "function"
    },
    {
      "inputs": [
        {
          "internalType": "address",
          "name": "from",
          "type": "address"
        },
        {
          "internalType": "address",
          "name": "to",
          "type": "address"
        },
        {
          "internalType": "uint256",
          "name": "tokenId",
          "type": "uint256"
        },
        {
          "internalType": "bytes",
          "name": "data",
          "type": "bytes"
        }
      ],
      "name": "safeTransferFrom",
      "outputs": [],
      "stateMutability": "nonpayable",
      "type": "function"
    },
    {
      "inputs": [
        {
          "internalType": "address",
          "name": "operator",
          "type": "address"
        },
        {
          "internalType": "bool",
          "name": "approved",
          "type": "bool"
        }
      ],
      "name": "setApprovalForAll",
      "outputs": [],
      "stateMutability": "nonpayable",
      "type": "function"
    },
    {
      "inputs": [
        {
          "internalType": "string",
          "name": "_name",
          "type": "string"
        },
        {
          "internalType": "string",
          "name": "_tld",
          "type": "string"
        },
        {
          "internalType": "string[]",
          "name": "_data",
          "type": "string[]"
        }
      ],
      "name": "setData",
      "outputs": [],
      "stateMutability": "nonpayable",
      "type": "function"
    },
    {
      "inputs": [
        {
          "internalType": "string",
          "name": "_name",
          "type": "string"
        },
        {
          "internalType": "string",
          "name": "_tld",
          "type": "string"
        }
      ],
      "name": "setName",
      "outputs": [],
      "stateMutability": "payable",
      "type": "function"
    },
    {
      "inputs": [
        {
          "internalType": "bytes4",
          "name": "interfaceId",
          "type": "bytes4"
        }
      ],
      "name": "supportsInterface",
      "outputs": [
        {
          "internalType": "bool",
          "name": "",
          "type": "bool"
        }
      ],
      "stateMutability": "view",
      "type": "function"
    },
    {
      "inputs": [],
      "name": "symbol",
      "outputs": [
        {
          "internalType": "string",
          "name": "",
          "type": "string"
        }
      ],
      "stateMutability": "view",
      "type": "function"
    },
    {
      "inputs": [
        {
          "internalType": "string",
          "name": "",
          "type": "string"
        }
      ],
      "name": "tldCount",
      "outputs": [
        {
          "internalType": "uint256",
          "name": "",
          "type": "uint256"
        }
      ],
      "stateMutability": "view",
      "type": "function"
    },
    {
      "inputs": [
        {
          "internalType": "uint256",
          "name": "tokenId",
          "type": "uint256"
        }
      ],
      "name": "tokenURI",
      "outputs": [
        {
          "internalType": "string",
          "name": "",
          "type": "string"
        }
      ],
      "stateMutability": "view",
      "type": "function"
    },
    {
      "inputs": [
        {
          "internalType": "address",
          "name": "from",
          "type": "address"
        },
        {
          "internalType": "address",
          "name": "to",
          "type": "address"
        },
        {
          "internalType": "uint256",
          "name": "tokenId",
          "type": "uint256"
        }
      ],
      "name": "transferFrom",
      "outputs": [],
      "stateMutability": "nonpayable",
      "type": "function"
    },
    {
      "inputs": [],
      "name": "withdraw",
      "outputs": [],
      "stateMutability": "payable",
      "type": "function"
    }
  ],
  "bytecode": "0x60a06040526040518060400160405280600f81526020017f556d6272656c6c6120546f6b656e7300000000000000000000000000000000008152506040518060400160405280600381526020017f554d54000000000000000000000000000000000000000000000000000000000081525081600090816200008191906200034a565b5080600190816200009391906200034a565b5050503373ffffffffffffffffffffffffffffffffffffffff1660808173ffffffffffffffffffffffffffffffffffffffff168152505062000431565b600081519050919050565b7f4e487b7100000000000000000000000000000000000000000000000000000000600052604160045260246000fd5b7f4e487b7100000000000000000000000000000000000000000000000000000000600052602260045260246000fd5b600060028204905060018216806200015257607f821691505b6020821081036200016857620001676200010a565b5b50919050565b60008190508160005260206000209050919050565b60006020601f8301049050919050565b600082821b905092915050565b600060088302620001d27fffffffffffffffffffffffffffffffffffffffffffffffffffffffffffffffff8262000193565b620001de868362000193565b95508019841693508086168417925050509392505050565b6000819050919050565b6000819050919050565b60006200022b620002256200021f84620001f6565b62000200565b620001f6565b9050919050565b6000819050919050565b62000247836200020a565b6200025f620002568262000232565b848454620001a0565b825550505050565b600090565b6200027662000267565b620002838184846200023c565b505050565b5b81811015620002ab576200029f6000826200026c565b60018101905062000289565b5050565b601f821115620002fa57620002c4816200016e565b620002cf8462000183565b81016020851015620002df578190505b620002f7620002ee8562000183565b83018262000288565b50505b505050565b600082821c905092915050565b60006200031f60001984600802620002ff565b1980831691505092915050565b60006200033a83836200030c565b9150826002028217905092915050565b6200035582620000d0565b67ffffffffffffffff811115620003715762000370620000db565b5b6200037d825462000139565b6200038a828285620002af565b600060209050601f831160018114620003c25760008415620003ad578287015190505b620003b985826200032c565b86555062000429565b601f198416620003d2866200016e565b60005b82811015620003fc57848901518255600182019150602085019450602081019050620003d5565b868310156200041c578489015162000418601f8916826200030c565b8355505b6001600288020188555050505b505050505050565b6080516152616200045460003960008181610e5401526115de01526152616000f3fe60806040526004361061012a5760003560e01c80634622ab03116100ab57806395d89b411161006f57806395d89b41146103fe578063a22cb46514610429578063b88d4fde14610452578063c87b56dd1461047b578063d40089e0146104b8578063e985e9c5146104f55761012a565b80634622ab03146103005780635c707f071461033d5780636352211e1461035957806370a08231146103965780638da5cb5b146103d35761012a565b80631ecf4f6f116100f25780631ecf4f6f1461023e57806323b872dd146102675780633ccfd60b146102905780633ffbd47f1461029a57806342842e0e146102d75761012a565b806301ffc9a71461012f57806304f6748c1461016c57806306fdde03146101ad578063081812fc146101d8578063095ea7b314610215575b600080fd5b34801561013b57600080fd5b5061015660048036038101906101519190612dba565b610532565b6040516101639190612e02565b60405180910390f35b34801561017857600080fd5b50610193600480360381019061018e9190612f63565b610614565b6040516101a495949392919061302b565b60405180910390f35b3480156101b957600080fd5b506101c2610908565b6040516101cf91906130a1565b60405180910390f35b3480156101e457600080fd5b506101ff60048036038101906101fa91906130f9565b61099a565b60405161020c9190613167565b60405180910390f35b34801561022157600080fd5b5061023c600480360381019061023791906131ae565b6109e0565b005b34801561024a57600080fd5b50610265600480360381019061026091906132a4565b610af7565b005b34801561027357600080fd5b5061028e60048036038101906102899190613358565b610df2565b005b610298610e52565b005b3480156102a657600080fd5b506102c160048036038101906102bc91906133ab565b610f26565b6040516102ce9190613167565b60405180910390f35b3480156102e357600080fd5b506102fe60048036038101906102f99190613358565b610f94565b005b34801561030c57600080fd5b50610327600480360381019061032291906130f9565b610fb4565b60405161033491906130a1565b60405180910390f35b61035760048036038101906103529190613423565b611060565b005b34801561036557600080fd5b50610380600480360381019061037b91906130f9565b61149f565b60405161038d9190613167565b60405180910390f35b3480156103a257600080fd5b506103bd60048036038101906103b891906134a4565b611525565b6040516103ca91906134e0565b60405180910390f35b3480156103df57600080fd5b506103e86115dc565b6040516103f5919061351c565b60405180910390f35b34801561040a57600080fd5b50610413611600565b60405161042091906130a1565b60405180910390f35b34801561043557600080fd5b50610450600480360381019061044b9190613563565b611692565b005b34801561045e57600080fd5b5061047960048036038101906104749190613644565b6116a8565b005b34801561048757600080fd5b506104a2600480360381019061049d91906130f9565b61170a565b6040516104af91906130a1565b60405180910390f35b3480156104c457600080fd5b506104df60048036038101906104da9190612f63565b61181c565b6040516104ec91906134e0565b60405180910390f35b34801561050157600080fd5b5061051c600480360381019061051791906136c7565b61184a565b6040516105299190612e02565b60405180910390f35b60007f80ac58cd000000000000000000000000000000000000000000000000000000007bffffffffffffffffffffffffffffffffffffffffffffffffffffffff1916827bffffffffffffffffffffffffffffffffffffffffffffffffffffffff191614806105fd57507f5b5e139f000000000000000000000000000000000000000000000000000000007bffffffffffffffffffffffffffffffffffffffffffffffffffffffff1916827bffffffffffffffffffffffffffffffffffffffffffffffffffffffff1916145b8061060d575061060c826118de565b5b9050919050565b600a8180516020810182018051848252602083016020850120818352809550505050505060009150905080600001805461064d90613736565b80601f016020809104026020016040519081016040528092919081815260200182805461067990613736565b80156106c65780601f1061069b576101008083540402835291602001916106c6565b820191906000526020600020905b8154815290600101906020018083116106a957829003601f168201915b5050505050908060010180546106db90613736565b80601f016020809104026020016040519081016040528092919081815260200182805461070790613736565b80156107545780601f1061072957610100808354040283529160200191610754565b820191906000526020600020905b81548152906001019060200180831161073757829003601f168201915b50505050509080600201805461076990613736565b80601f016020809104026020016040519081016040528092919081815260200182805461079590613736565b80156107e25780601f106107b7576101008083540402835291602001916107e2565b820191906000526020600020905b8154815290600101906020018083116107c557829003601f168201915b5050505050908060030180546107f790613736565b80601f016020809104026020016040519081016040528092919081815260200182805461082390613736565b80156108705780601f1061084557610100808354040283529160200191610870565b820191906000526020600020905b81548152906001019060200180831161085357829003601f168201915b50505050509080600401805461088590613736565b80601f01602080910402602001604051908101604052809291908181526020018280546108b190613736565b80156108fe5780601f106108d3576101008083540402835291602001916108fe565b820191906000526020600020905b8154815290600101906020018083116108e157829003601f168201915b5050505050905085565b60606000805461091790613736565b80601f016020809104026020016040519081016040528092919081815260200182805461094390613736565b80156109905780601f1061096557610100808354040283529160200191610990565b820191906000526020600020905b81548152906001019060200180831161097357829003601f168201915b5050505050905090565b60006109a582611948565b6004600083815260200190815260200160002060009054906101000a900473ffffffffffffffffffffffffffffffffffffffff169050919050565b60006109eb8261149f565b90508073ffffffffffffffffffffffffffffffffffffffff168373ffffffffffffffffffffffffffffffffffffffff1603610a5b576040517f08c379a0000000000000000000000000000000000000000000000000000000008152600401610a52906137d9565b60405180910390fd5b8073ffffffffffffffffffffffffffffffffffffffff16610a7a611993565b73ffffffffffffffffffffffffffffffffffffffff161480610aa95750610aa881610aa3611993565b61184a565b5b610ae8576040517f08c379a0000000000000000000000000000000000000000000000000000000008152600401610adf9061386b565b60405180910390fd5b610af2838361199b565b505050565b3373ffffffffffffffffffffffffffffffffffffffff1660088585604051610b209291906138bb565b90815260200160405180910390208787604051610b3e9291906138bb565b908152602001604051809103902060009054906101000a900473ffffffffffffffffffffffffffffffffffffffff1673ffffffffffffffffffffffffffffffffffffffff1614610bba576040517f82b4290000000000000000000000000000000000000000000000000000000000815260040160405180910390fd5b600086868686604051602001610bd394939291906138fa565b604051602081830303815290604052905082826000818110610bf857610bf7613931565b5b9050602002810190610c0a919061396f565b600a83604051610c1a9190613a03565b90815260200160405180910390206000019182610c38929190613bd1565b5082826001818110610c4d57610c4c613931565b5b9050602002810190610c5f919061396f565b600a83604051610c6f9190613a03565b90815260200160405180910390206001019182610c8d929190613bd1565b5082826002818110610ca257610ca1613931565b5b9050602002810190610cb4919061396f565b600a83604051610cc49190613a03565b90815260200160405180910390206002019182610ce2929190613bd1565b5082826003818110610cf757610cf6613931565b5b9050602002810190610d09919061396f565b600a83604051610d199190613a03565b90815260200160405180910390206003019182610d37929190613bd1565b5082826004818110610d4c57610d4b613931565b5b9050602002810190610d5e919061396f565b600a83604051610d6e9190613a03565b90815260200160405180910390206004019182610d8c929190613bd1565b507ff68065a4b091644ab4f0a078f9322a97b3f01849dc0951d33c7e0c7821ea66e187878787604051602001610dc594939291906138fa565b604051602081830303815290604052604051610de191906130a1565b60405180910390a150505050505050565b610e03610dfd611993565b82611a54565b610e42576040517f08c379a0000000000000000000000000000000000000000000000000000000008152600401610e3990613d13565b60405180910390fd5b610e4d838383611ae9565b505050565b7f000000000000000000000000000000000000000000000000000000000000000073ffffffffffffffffffffffffffffffffffffffff163373ffffffffffffffffffffffffffffffffffffffff1614610ed7576040517f82b4290000000000000000000000000000000000000000000000000000000000815260040160405180910390fd5b60004790503373ffffffffffffffffffffffffffffffffffffffff166108fc829081150290604051600060405180830381858888f19350505050158015610f22573d6000803e3d6000fd5b5050565b600882805160208101820180518482526020830160208501208183528095505050505050818051602081018201805184825260208301602085012081835280955050505050506000915091509054906101000a900473ffffffffffffffffffffffffffffffffffffffff1681565b610faf838383604051806020016040528060008152506116a8565b505050565b600b8181548110610fc457600080fd5b906000526020600020016000915090508054610fdf90613736565b80601f016020809104026020016040519081016040528092919081815260200182805461100b90613736565b80156110585780601f1061102d57610100808354040283529160200191611058565b820191906000526020600020905b81548152906001019060200180831161103b57829003601f168201915b505050505081565b600061106c8585611de2565b90506110788585611e9f565b6110bb5784846040517f7f19f48d0000000000000000000000000000000000000000000000000000000081526004016110b2929190613d60565b60405180910390fd5b803410156111025780346040517f89bc52af0000000000000000000000000000000000000000000000000000000081526004016110f9929190613d84565b60405180910390fd5b600073ffffffffffffffffffffffffffffffffffffffff166008848460405161112c9291906138bb565b9081526020016040518091039020868660405161114a9291906138bb565b908152602001604051809103902060009054906101000a900473ffffffffffffffffffffffffffffffffffffffff1673ffffffffffffffffffffffffffffffffffffffff16146111c6576040517fd202940c00000000000000000000000000000000000000000000000000000000815260040160405180910390fd5b6000858585856040516020016111df9493929190613df9565b60405160208183030381529060405290506000604051806108a0016040528061086b81526020016149c161086b9139826040518060400160405280600d81526020017f3c2f746578743e3c2f7376673e0000000000000000000000000000000000000081525060405160200161125793929190613e2c565b604051602081830303815290604052905060006112746007611f53565b90506112806007611f61565b60006112d98989898960405160200161129c94939291906138fa565b6040516020818303038152906040526112b485611f77565b6040516020016112c59291906140bd565b604051602081830303815290604052611f77565b90506000816040516020016112ee919061417a565b604051602081830303815290604052905061130933846120da565b61131383826120f8565b33600889896040516113269291906138bb565b90815260200160405180910390208b8b6040516113449291906138bb565b908152602001604051809103902060006101000a81548173ffffffffffffffffffffffffffffffffffffffff021916908373ffffffffffffffffffffffffffffffffffffffff160217905550600b8a8a8a8a6040516020016113a994939291906138fa565b6040516020818303038152906040529080600181540180825580915050600190039060005260206000200160009091909190915090816113e9919061419c565b50600988886040516113fc9291906138bb565b9081526020016040518091039020600081548092919061141b9061429d565b91905055503373ffffffffffffffffffffffffffffffffffffffff167f47295f5b4a8fe83d604cbc77f624030eda37507ba632784272248210b013232a8b8b8b8b60405160200161146f94939291906138fa565b60405160208183030381529060405260405161148b91906130a1565b60405180910390a250505050505050505050565b6000806114ab83612165565b9050600073ffffffffffffffffffffffffffffffffffffffff168173ffffffffffffffffffffffffffffffffffffffff160361151c576040517f08c379a000000000000000000000000000000000000000000000000000000000815260040161151390614331565b60405180910390fd5b80915050919050565b60008073ffffffffffffffffffffffffffffffffffffffff168273ffffffffffffffffffffffffffffffffffffffff1603611595576040517f08c379a000000000000000000000000000000000000000000000000000000000815260040161158c906143c3565b60405180910390fd5b600360008373ffffffffffffffffffffffffffffffffffffffff1673ffffffffffffffffffffffffffffffffffffffff168152602001908152602001600020549050919050565b7f000000000000000000000000000000000000000000000000000000000000000081565b60606001805461160f90613736565b80601f016020809104026020016040519081016040528092919081815260200182805461163b90613736565b80156116885780601f1061165d57610100808354040283529160200191611688565b820191906000526020600020905b81548152906001019060200180831161166b57829003601f168201915b5050505050905090565b6116a461169d611993565b83836121a2565b5050565b6116b96116b3611993565b83611a54565b6116f8576040517f08c379a00000000000000000000000000000000000000000000000000000000081526004016116ef90613d13565b60405180910390fd5b6117048484848461230e565b50505050565b606061171582611948565b600060066000848152602001908152602001600020805461173590613736565b80601f016020809104026020016040519081016040528092919081815260200182805461176190613736565b80156117ae5780601f10611783576101008083540402835291602001916117ae565b820191906000526020600020905b81548152906001019060200180831161179157829003601f168201915b5050505050905060006117bf61236a565b905060008151036117d4578192505050611817565b6000825111156118095780826040516020016117f19291906143e3565b60405160208183030381529060405292505050611817565b61181284612381565b925050505b919050565b6009818051602081018201805184825260208301602085012081835280955050505050506000915090505481565b6000600560008473ffffffffffffffffffffffffffffffffffffffff1673ffffffffffffffffffffffffffffffffffffffff16815260200190815260200160002060008373ffffffffffffffffffffffffffffffffffffffff1673ffffffffffffffffffffffffffffffffffffffff16815260200190815260200160002060009054906101000a900460ff16905092915050565b60007f01ffc9a7000000000000000000000000000000000000000000000000000000007bffffffffffffffffffffffffffffffffffffffffffffffffffffffff1916827bffffffffffffffffffffffffffffffffffffffffffffffffffffffff1916149050919050565b611951816123e9565b611990576040517f08c379a000000000000000000000000000000000000000000000000000000000815260040161198790614331565b60405180910390fd5b50565b600033905090565b816004600083815260200190815260200160002060006101000a81548173ffffffffffffffffffffffffffffffffffffffff021916908373ffffffffffffffffffffffffffffffffffffffff160217905550808273ffffffffffffffffffffffffffffffffffffffff16611a0e8361149f565b73ffffffffffffffffffffffffffffffffffffffff167f8c5be1e5ebec7d5bd14f71427d1e84f3dd0314c0f7b2291e5b200ac8c7c3b92560405160405180910390a45050565b600080611a608361149f565b90508073ffffffffffffffffffffffffffffffffffffffff168473ffffffffffffffffffffffffffffffffffffffff161480611aa25750611aa1818561184a565b5b80611ae057508373ffffffffffffffffffffffffffffffffffffffff16611ac88461099a565b73ffffffffffffffffffffffffffffffffffffffff16145b91505092915050565b8273ffffffffffffffffffffffffffffffffffffffff16611b098261149f565b73ffffffffffffffffffffffffffffffffffffffff1614611b5f576040517f08c379a0000000000000000000000000000000000000000000000000000000008152600401611b5690614479565b60405180910390fd5b600073ffffffffffffffffffffffffffffffffffffffff168273ffffffffffffffffffffffffffffffffffffffff1603611bce576040517f08c379a0000000000000000000000000000000000000000000000000000000008152600401611bc59061450b565b60405180910390fd5b611bdb838383600161242a565b8273ffffffffffffffffffffffffffffffffffffffff16611bfb8261149f565b73ffffffffffffffffffffffffffffffffffffffff1614611c51576040517f08c379a0000000000000000000000000000000000000000000000000000000008152600401611c4890614479565b60405180910390fd5b6004600082815260200190815260200160002060006101000a81549073ffffffffffffffffffffffffffffffffffffffff02191690556001600360008573ffffffffffffffffffffffffffffffffffffffff1673ffffffffffffffffffffffffffffffffffffffff168152602001908152602001600020600082825403925050819055506001600360008473ffffffffffffffffffffffffffffffffffffffff1673ffffffffffffffffffffffffffffffffffffffff16815260200190815260200160002060008282540192505081905550816002600083815260200190815260200160002060006101000a81548173ffffffffffffffffffffffffffffffffffffffff021916908373ffffffffffffffffffffffffffffffffffffffff160217905550808273ffffffffffffffffffffffffffffffffffffffff168473ffffffffffffffffffffffffffffffffffffffff167fddf252ad1be2c89b69c2b068fc378daa952ba7f163c4a11628f55a4df523b3ef60405160405180910390a4611ddd8383836001612550565b505050565b600080611e3284848080601f016020809104026020016040519081016040528093929190818152602001838380828437600081840152601f19601f82011690508083019250505050505050612556565b905060008111611e4157600080fd5b60028103611e5a57670de0b6b3a7640000915050611e99565b60038103611e73576706f05b59d3b20000915050611e99565b60048103611e8c57670429d069189e0000915050611e99565b67016345785d8a00009150505b92915050565b60006002611ef084848080601f016020809104026020016040519081016040528093929190818152602001838380828437600081840152601f19601f82011690508083019250505050505050612556565b10158015611f4b57506020611f4884848080601f016020809104026020016040519081016040528093929190818152602001838380828437600081840152601f19601f82011690508083019250505050505050612556565b11155b905092915050565b600081600001549050919050565b6001816000016000828254019250508190555050565b60606000825103611f99576040518060200160405280600081525090506120d5565b60006040518060600160405280604081526020016149816040913990506000600360028551611fc8919061452b565b611fd2919061458e565b6004611fde91906145bf565b67ffffffffffffffff811115611ff757611ff6612e38565b5b6040519080825280601f01601f1916602001820160405280156120295781602001600182028036833780820191505090505b509050600182016020820185865187015b80821015612095576003820191508151603f8160121c168501518453600184019350603f81600c1c168501518453600184019350603f8160061c168501518453600184019350603f811685015184536001840193505061203a565b50506003865106600181146120b157600281146120c4576120cc565b603d6001830353603d60028303536120cc565b603d60018303535b50505080925050505b919050565b6120f482826040518060200160405280600081525061270b565b5050565b612101826123e9565b612140576040517f08c379a000000000000000000000000000000000000000000000000000000000815260040161213790614673565b60405180910390fd5b80600660008481526020019081526020016000209081612160919061419c565b505050565b60006002600083815260200190815260200160002060009054906101000a900473ffffffffffffffffffffffffffffffffffffffff169050919050565b8173ffffffffffffffffffffffffffffffffffffffff168373ffffffffffffffffffffffffffffffffffffffff1603612210576040517f08c379a0000000000000000000000000000000000000000000000000000000008152600401612207906146df565b60405180910390fd5b80600560008573ffffffffffffffffffffffffffffffffffffffff1673ffffffffffffffffffffffffffffffffffffffff16815260200190815260200160002060008473ffffffffffffffffffffffffffffffffffffffff1673ffffffffffffffffffffffffffffffffffffffff16815260200190815260200160002060006101000a81548160ff0219169083151502179055508173ffffffffffffffffffffffffffffffffffffffff168373ffffffffffffffffffffffffffffffffffffffff167f17307eab39ab6107e8899845ad3d59bd9653f200f220920489ca2b5937696c31836040516123019190612e02565b60405180910390a3505050565b612319848484611ae9565b61232584848484612766565b612364576040517f08c379a000000000000000000000000000000000000000000000000000000000815260040161235b90614771565b60405180910390fd5b50505050565b606060405180602001604052806000815250905090565b606061238c82611948565b600061239661236a565b905060008151116123b657604051806020016040528060008152506123e1565b806123c0846128ed565b6040516020016123d19291906143e3565b6040516020818303038152906040525b915050919050565b60008073ffffffffffffffffffffffffffffffffffffffff1661240b83612165565b73ffffffffffffffffffffffffffffffffffffffff1614159050919050565b600181111561254a57600073ffffffffffffffffffffffffffffffffffffffff168473ffffffffffffffffffffffffffffffffffffffff16146124be5780600360008673ffffffffffffffffffffffffffffffffffffffff1673ffffffffffffffffffffffffffffffffffffffff16815260200190815260200160002060008282546124b69190614791565b925050819055505b600073ffffffffffffffffffffffffffffffffffffffff168373ffffffffffffffffffffffffffffffffffffffff16146125495780600360008573ffffffffffffffffffffffffffffffffffffffff1673ffffffffffffffffffffffffffffffffffffffff1681526020019081526020016000206000828254612541919061452b565b925050819055505b5b50505050565b50505050565b60008060008084519050600092505b8082101561270057600085838151811061258257612581613931565b5b602001015160f81c60f81b9050608060f81b817effffffffffffffffffffffffffffffffffffffffffffffffffffffffffffff191610156125d1576001836125ca919061452b565b92506126ec565b60e060f81b817effffffffffffffffffffffffffffffffffffffffffffffffffffffffffffff191610156126135760028361260c919061452b565b92506126eb565b60f060f81b817effffffffffffffffffffffffffffffffffffffffffffffffffffffffffffff191610156126555760038361264e919061452b565b92506126ea565b60f8801b817effffffffffffffffffffffffffffffffffffffffffffffffffffffffffffff191610156126965760048361268f919061452b565b92506126e9565b60fc60f81b817effffffffffffffffffffffffffffffffffffffffffffffffffffffffffffff191610156126d8576005836126d1919061452b565b92506126e8565b6006836126e5919061452b565b92505b5b5b5b5b5082806126f89061429d565b935050612565565b829350505050919050565b61271583836129bb565b6127226000848484612766565b612761576040517f08c379a000000000000000000000000000000000000000000000000000000000815260040161275890614771565b60405180910390fd5b505050565b60006127878473ffffffffffffffffffffffffffffffffffffffff16612bd8565b156128e0578373ffffffffffffffffffffffffffffffffffffffff1663150b7a026127b0611993565b8786866040518563ffffffff1660e01b81526004016127d2949392919061481a565b6020604051808303816000875af192505050801561280e57506040513d601f19601f8201168201806040525081019061280b919061487b565b60015b612890573d806000811461283e576040519150601f19603f3d011682016040523d82523d6000602084013e612843565b606091505b506000815103612888576040517f08c379a000000000000000000000000000000000000000000000000000000000815260040161287f90614771565b60405180910390fd5b805181602001fd5b63150b7a0260e01b7bffffffffffffffffffffffffffffffffffffffffffffffffffffffff1916817bffffffffffffffffffffffffffffffffffffffffffffffffffffffff1916149150506128e5565b600190505b949350505050565b6060600060016128fc84612bfb565b01905060008167ffffffffffffffff81111561291b5761291a612e38565b5b6040519080825280601f01601f19166020018201604052801561294d5781602001600182028036833780820191505090505b509050600082602001820190505b6001156129b0578080600190039150507f3031323334353637383961626364656600000000000000000000000000000000600a86061a8153600a85816129a4576129a361455f565b5b0494506000850361295b575b819350505050919050565b600073ffffffffffffffffffffffffffffffffffffffff168273ffffffffffffffffffffffffffffffffffffffff1603612a2a576040517f08c379a0000000000000000000000000000000000000000000000000000000008152600401612a21906148f4565b60405180910390fd5b612a33816123e9565b15612a73576040517f08c379a0000000000000000000000000000000000000000000000000000000008152600401612a6a90614960565b60405180910390fd5b612a8160008383600161242a565b612a8a816123e9565b15612aca576040517f08c379a0000000000000000000000000000000000000000000000000000000008152600401612ac190614960565b60405180910390fd5b6001600360008473ffffffffffffffffffffffffffffffffffffffff1673ffffffffffffffffffffffffffffffffffffffff16815260200190815260200160002060008282540192505081905550816002600083815260200190815260200160002060006101000a81548173ffffffffffffffffffffffffffffffffffffffff021916908373ffffffffffffffffffffffffffffffffffffffff160217905550808273ffffffffffffffffffffffffffffffffffffffff16600073ffffffffffffffffffffffffffffffffffffffff167fddf252ad1be2c89b69c2b068fc378daa952ba7f163c4a11628f55a4df523b3ef60405160405180910390a4612bd4600083836001612550565b5050565b6000808273ffffffffffffffffffffffffffffffffffffffff163b119050919050565b600080600090507a184f03e93ff9f4daa797ed6e38ed64bf6a1f0100000000000000008310612c59577a184f03e93ff9f4daa797ed6e38ed64bf6a1f0100000000000000008381612c4f57612c4e61455f565b5b0492506040810190505b6d04ee2d6d415b85acef81000000008310612c96576d04ee2d6d415b85acef81000000008381612c8c57612c8b61455f565b5b0492506020810190505b662386f26fc100008310612cc557662386f26fc100008381612cbb57612cba61455f565b5b0492506010810190505b6305f5e1008310612cee576305f5e1008381612ce457612ce361455f565b5b0492506008810190505b6127108310612d13576127108381612d0957612d0861455f565b5b0492506004810190505b60648310612d365760648381612d2c57612d2b61455f565b5b0492506002810190505b600a8310612d45576001810190505b80915050919050565b6000604051905090565b600080fd5b600080fd5b60007fffffffff0000000000000000000000000000000000000000000000000000000082169050919050565b612d9781612d62565b8114612da257600080fd5b50565b600081359050612db481612d8e565b92915050565b600060208284031215612dd057612dcf612d58565b5b6000612dde84828501612da5565b91505092915050565b60008115159050919050565b612dfc81612de7565b82525050565b6000602082019050612e176000830184612df3565b92915050565b600080fd5b600080fd5b6000601f19601f8301169050919050565b7f4e487b7100000000000000000000000000000000000000000000000000000000600052604160045260246000fd5b612e7082612e27565b810181811067ffffffffffffffff82111715612e8f57612e8e612e38565b5b80604052505050565b6000612ea2612d4e565b9050612eae8282612e67565b919050565b600067ffffffffffffffff821115612ece57612ecd612e38565b5b612ed782612e27565b9050602081019050919050565b82818337600083830152505050565b6000612f06612f0184612eb3565b612e98565b905082815260208101848484011115612f2257612f21612e22565b5b612f2d848285612ee4565b509392505050565b600082601f830112612f4a57612f49612e1d565b5b8135612f5a848260208601612ef3565b91505092915050565b600060208284031215612f7957612f78612d58565b5b600082013567ffffffffffffffff811115612f9757612f96612d5d565b5b612fa384828501612f35565b91505092915050565b600081519050919050565b600082825260208201905092915050565b60005b83811015612fe6578082015181840152602081019050612fcb565b60008484015250505050565b6000612ffd82612fac565b6130078185612fb7565b9350613017818560208601612fc8565b61302081612e27565b840191505092915050565b600060a08201905081810360008301526130458188612ff2565b905081810360208301526130598187612ff2565b9050818103604083015261306d8186612ff2565b905081810360608301526130818185612ff2565b905081810360808301526130958184612ff2565b90509695505050505050565b600060208201905081810360008301526130bb8184612ff2565b905092915050565b6000819050919050565b6130d6816130c3565b81146130e157600080fd5b50565b6000813590506130f3816130cd565b92915050565b60006020828403121561310f5761310e612d58565b5b600061311d848285016130e4565b91505092915050565b600073ffffffffffffffffffffffffffffffffffffffff82169050919050565b600061315182613126565b9050919050565b61316181613146565b82525050565b600060208201905061317c6000830184613158565b92915050565b61318b81613146565b811461319657600080fd5b50565b6000813590506131a881613182565b92915050565b600080604083850312156131c5576131c4612d58565b5b60006131d385828601613199565b92505060206131e4858286016130e4565b9150509250929050565b600080fd5b600080fd5b60008083601f84011261320e5761320d612e1d565b5b8235905067ffffffffffffffff81111561322b5761322a6131ee565b5b602083019150836001820283011115613247576132466131f3565b5b9250929050565b60008083601f84011261326457613263612e1d565b5b8235905067ffffffffffffffff811115613281576132806131ee565b5b60208301915083602082028301111561329d5761329c6131f3565b5b9250929050565b600080600080600080606087890312156132c1576132c0612d58565b5b600087013567ffffffffffffffff8111156132df576132de612d5d565b5b6132eb89828a016131f8565b9650965050602087013567ffffffffffffffff81111561330e5761330d612d5d565b5b61331a89828a016131f8565b9450945050604087013567ffffffffffffffff81111561333d5761333c612d5d565b5b61334989828a0161324e565b92509250509295509295509295565b60008060006060848603121561337157613370612d58565b5b600061337f86828701613199565b935050602061339086828701613199565b92505060406133a1868287016130e4565b9150509250925092565b600080604083850312156133c2576133c1612d58565b5b600083013567ffffffffffffffff8111156133e0576133df612d5d565b5b6133ec85828601612f35565b925050602083013567ffffffffffffffff81111561340d5761340c612d5d565b5b61341985828601612f35565b9150509250929050565b6000806000806040858703121561343d5761343c612d58565b5b600085013567ffffffffffffffff81111561345b5761345a612d5d565b5b613467878288016131f8565b9450945050602085013567ffffffffffffffff81111561348a57613489612d5d565b5b613496878288016131f8565b925092505092959194509250565b6000602082840312156134ba576134b9612d58565b5b60006134c884828501613199565b91505092915050565b6134da816130c3565b82525050565b60006020820190506134f560008301846134d1565b92915050565b600061350682613126565b9050919050565b613516816134fb565b82525050565b6000602082019050613531600083018461350d565b92915050565b61354081612de7565b811461354b57600080fd5b50565b60008135905061355d81613537565b92915050565b6000806040838503121561357a57613579612d58565b5b600061358885828601613199565b92505060206135998582860161354e565b9150509250929050565b600067ffffffffffffffff8211156135be576135bd612e38565b5b6135c782612e27565b9050602081019050919050565b60006135e76135e2846135a3565b612e98565b90508281526020810184848401111561360357613602612e22565b5b61360e848285612ee4565b509392505050565b600082601f83011261362b5761362a612e1d565b5b813561363b8482602086016135d4565b91505092915050565b6000806000806080858703121561365e5761365d612d58565b5b600061366c87828801613199565b945050602061367d87828801613199565b935050604061368e878288016130e4565b925050606085013567ffffffffffffffff8111156136af576136ae612d5d565b5b6136bb87828801613616565b91505092959194509250565b600080604083850312156136de576136dd612d58565b5b60006136ec85828601613199565b92505060206136fd85828601613199565b9150509250929050565b7f4e487b7100000000000000000000000000000000000000000000000000000000600052602260045260246000fd5b6000600282049050600182168061374e57607f821691505b60208210810361376157613760613707565b5b50919050565b7f4552433732313a20617070726f76616c20746f2063757272656e74206f776e6560008201527f7200000000000000000000000000000000000000000000000000000000000000602082015250565b60006137c3602183612fb7565b91506137ce82613767565b604082019050919050565b600060208201905081810360008301526137f2816137b6565b9050919050565b7f4552433732313a20617070726f76652063616c6c6572206973206e6f7420746f60008201527f6b656e206f776e6572206f7220617070726f76656420666f7220616c6c000000602082015250565b6000613855603d83612fb7565b9150613860826137f9565b604082019050919050565b6000602082019050818103600083015261388481613848565b9050919050565b600081905092915050565b60006138a2838561388b565b93506138af838584612ee4565b82840190509392505050565b60006138c8828486613896565b91508190509392505050565b7f2e00000000000000000000000000000000000000000000000000000000000000815250565b6000613907828688613896565b9150613912826138d4565b600182019150613923828486613896565b915081905095945050505050565b7f4e487b7100000000000000000000000000000000000000000000000000000000600052603260045260246000fd5b600080fd5b600080fd5b600080fd5b6000808335600160200384360303811261398c5761398b613960565b5b80840192508235915067ffffffffffffffff8211156139ae576139ad613965565b5b6020830192506001820236038313156139ca576139c961396a565b5b509250929050565b60006139dd82612fac565b6139e7818561388b565b93506139f7818560208601612fc8565b80840191505092915050565b6000613a0f82846139d2565b915081905092915050565b600082905092915050565b60008190508160005260206000209050919050565b60006020601f8301049050919050565b600082821b905092915050565b600060088302613a877fffffffffffffffffffffffffffffffffffffffffffffffffffffffffffffffff82613a4a565b613a918683613a4a565b95508019841693508086168417925050509392505050565b6000819050919050565b6000613ace613ac9613ac4846130c3565b613aa9565b6130c3565b9050919050565b6000819050919050565b613ae883613ab3565b613afc613af482613ad5565b848454613a57565b825550505050565b600090565b613b11613b04565b613b1c818484613adf565b505050565b5b81811015613b4057613b35600082613b09565b600181019050613b22565b5050565b601f821115613b8557613b5681613a25565b613b5f84613a3a565b81016020851015613b6e578190505b613b82613b7a85613a3a565b830182613b21565b50505b505050565b600082821c905092915050565b6000613ba860001984600802613b8a565b1980831691505092915050565b6000613bc18383613b97565b9150826002028217905092915050565b613bdb8383613a1a565b67ffffffffffffffff811115613bf457613bf3612e38565b5b613bfe8254613736565b613c09828285613b44565b6000601f831160018114613c385760008415613c26578287013590505b613c308582613bb5565b865550613c98565b601f198416613c4686613a25565b60005b82811015613c6e57848901358255600182019150602085019450602081019050613c49565b86831015613c8b5784890135613c87601f891682613b97565b8355505b6001600288020188555050505b50505050505050565b7f4552433732313a2063616c6c6572206973206e6f7420746f6b656e206f776e6560008201527f72206f7220617070726f76656400000000000000000000000000000000000000602082015250565b6000613cfd602d83612fb7565b9150613d0882613ca1565b604082019050919050565b60006020820190508181036000830152613d2c81613cf0565b9050919050565b6000613d3f8385612fb7565b9350613d4c838584612ee4565b613d5583612e27565b840190509392505050565b60006020820190508181036000830152613d7b818486613d33565b90509392505050565b6000604082019050613d9960008301856134d1565b613da660208301846134d1565b9392505050565b7f2e00000000000000000000000000000000000000000000000000000000000000600082015250565b6000613de360018361388b565b9150613dee82613dad565b600182019050919050565b6000613e06828688613896565b9150613e1182613dd6565b9150613e1e828486613896565b915081905095945050505050565b6000613e3882866139d2565b9150613e4482856139d2565b9150613e5082846139d2565b9150819050949350505050565b7f7b00000000000000000000000000000000000000000000000000000000000000600082015250565b6000613e9360018361388b565b9150613e9e82613e5d565b600182019050919050565b7f226e616d65223a20220000000000000000000000000000000000000000000000600082015250565b6000613edf60098361388b565b9150613eea82613ea9565b600982019050919050565b7f222c000000000000000000000000000000000000000000000000000000000000600082015250565b6000613f2b60028361388b565b9150613f3682613ef5565b600282019050919050565b7f226465736372697074696f6e223a2022556d6272656c6c61204e616d6520536560008201527f7276696365222c00000000000000000000000000000000000000000000000000602082015250565b6000613f9d60278361388b565b9150613fa882613f41565b602782019050919050565b7f22696d616765223a2022646174613a696d6167652f7376672b786d6c3b62617360008201527f6536342c00000000000000000000000000000000000000000000000000000000602082015250565b600061400f60248361388b565b915061401a82613fb3565b602482019050919050565b7f2200000000000000000000000000000000000000000000000000000000000000600082015250565b600061405b60018361388b565b915061406682614025565b600182019050919050565b7f7d00000000000000000000000000000000000000000000000000000000000000600082015250565b60006140a760018361388b565b91506140b282614071565b600182019050919050565b60006140c882613e86565b91506140d382613ed2565b91506140df82856139d2565b91506140ea82613f1e565b91506140f582613f90565b915061410082614002565b915061410c82846139d2565b91506141178261404e565b91506141228261409a565b91508190509392505050565b7f646174613a6170706c69636174696f6e2f6a736f6e3b6261736536342c000000600082015250565b6000614164601d8361388b565b915061416f8261412e565b601d82019050919050565b600061418582614157565b915061419182846139d2565b915081905092915050565b6141a582612fac565b67ffffffffffffffff8111156141be576141bd612e38565b5b6141c88254613736565b6141d3828285613b44565b600060209050601f83116001811461420657600084156141f4578287015190505b6141fe8582613bb5565b865550614266565b601f19841661421486613a25565b60005b8281101561423c57848901518255600182019150602085019450602081019050614217565b868310156142595784890151614255601f891682613b97565b8355505b6001600288020188555050505b505050505050565b7f4e487b7100000000000000000000000000000000000000000000000000000000600052601160045260246000fd5b60006142a8826130c3565b91507fffffffffffffffffffffffffffffffffffffffffffffffffffffffffffffffff82036142da576142d961426e565b5b600182019050919050565b7f4552433732313a20696e76616c696420746f6b656e2049440000000000000000600082015250565b600061431b601883612fb7565b9150614326826142e5565b602082019050919050565b6000602082019050818103600083015261434a8161430e565b9050919050565b7f4552433732313a2061646472657373207a65726f206973206e6f74206120766160008201527f6c6964206f776e65720000000000000000000000000000000000000000000000602082015250565b60006143ad602983612fb7565b91506143b882614351565b604082019050919050565b600060208201905081810360008301526143dc816143a0565b9050919050565b60006143ef82856139d2565b91506143fb82846139d2565b91508190509392505050565b7f4552433732313a207472616e736665722066726f6d20696e636f72726563742060008201527f6f776e6572000000000000000000000000000000000000000000000000000000602082015250565b6000614463602583612fb7565b915061446e82614407565b604082019050919050565b6000602082019050818103600083015261449281614456565b9050919050565b7f4552433732313a207472616e7366657220746f20746865207a65726f2061646460008201527f7265737300000000000000000000000000000000000000000000000000000000602082015250565b60006144f5602483612fb7565b915061450082614499565b604082019050919050565b60006020820190508181036000830152614524816144e8565b9050919050565b6000614536826130c3565b9150614541836130c3565b92508282019050808211156145595761455861426e565b5b92915050565b7f4e487b7100000000000000000000000000000000000000000000000000000000600052601260045260246000fd5b6000614599826130c3565b91506145a4836130c3565b9250826145b4576145b361455f565b5b828204905092915050565b60006145ca826130c3565b91506145d5836130c3565b92508282026145e3816130c3565b915082820484148315176145fa576145f961426e565b5b5092915050565b7f45524337323155524953746f726167653a2055524920736574206f66206e6f6e60008201527f6578697374656e7420746f6b656e000000000000000000000000000000000000602082015250565b600061465d602e83612fb7565b915061466882614601565b604082019050919050565b6000602082019050818103600083015261468c81614650565b9050919050565b7f4552433732313a20617070726f766520746f2063616c6c657200000000000000600082015250565b60006146c9601983612fb7565b91506146d482614693565b602082019050919050565b600060208201905081810360008301526146f8816146bc565b9050919050565b7f4552433732313a207472616e7366657220746f206e6f6e20455243373231526560008201527f63656976657220696d706c656d656e7465720000000000000000000000000000602082015250565b600061475b603283612fb7565b9150614766826146ff565b604082019050919050565b6000602082019050818103600083015261478a8161474e565b9050919050565b600061479c826130c3565b91506147a7836130c3565b92508282039050818111156147bf576147be61426e565b5b92915050565b600081519050919050565b600082825260208201905092915050565b60006147ec826147c5565b6147f681856147d0565b9350614806818560208601612fc8565b61480f81612e27565b840191505092915050565b600060808201905061482f6000830187613158565b61483c6020830186613158565b61484960408301856134d1565b818103606083015261485b81846147e1565b905095945050505050565b60008151905061487581612d8e565b92915050565b60006020828403121561489157614890612d58565b5b600061489f84828501614866565b91505092915050565b7f4552433732313a206d696e7420746f20746865207a65726f2061646472657373600082015250565b60006148de602083612fb7565b91506148e9826148a8565b602082019050919050565b6000602082019050818103600083015261490d816148d1565b9050919050565b7f4552433732313a20746f6b656e20616c7265616479206d696e74656400000000600082015250565b600061494a601c83612fb7565b915061495582614914565b602082019050919050565b600060208201905081810360008301526149798161493d565b905091905056fe4142434445464748494a4b4c4d4e4f505152535455565758595a6162636465666768696a6b6c6d6e6f707172737475767778797a303132333435363738392b2f3c73766720786d6c6e733d22687474703a2f2f7777772e77332e6f72672f323030302f737667222077696474683d2232373022206865696768743d22323730222066696c6c3d226e6f6e65223e3c706174682066696c6c3d2275726c282342292220643d224d302030683237307632373048307a222f3e3c646566733e3c66696c7465722069643d22412220636f6c6f722d696e746572706f6c6174696f6e2d66696c746572733d2273524742222066696c746572556e6974733d227573657253706163654f6e55736522206865696768743d22323730222077696474683d22323730223e3c666544726f70536861646f772064783d2230222064793d22312220737464446576696174696f6e3d22322220666c6f6f642d6f7061636974793d222e323235222077696474683d223230302522206865696768743d2232303025222f3e3c2f66696c7465723e3c2f646566733e3c7061746820643d224d37322e3836332034322e393439632d2e3636382d2e3338372d312e3432362d2e35392d322e3139372d2e3539732d312e3532392e3230342d322e3139372e35396c2d31302e30383120362e3033322d362e383520332e3933342d31302e30383120362e303332632d2e3636382e3338372d312e3432362e35392d322e3139372e3539732d312e3532392d2e3230342d322e3139372d2e35396c2d382e3031332d342e37323161342e353220342e35322030203020312d312e3538392d312e363136632d2e3338342d2e3636352d2e3539342d312e3431382d2e3630382d322e313837762d392e3331632d2e3031332d2e3737352e3138352d312e3533382e3537322d322e32303861342e323520342e323520302030203120312e3632352d312e3539356c372e3838342d342e3539632e3636382d2e33383720312e3432362d2e353920322e3139372d2e353973312e3532392e32303420322e3139372e35396c372e38383420342e353961342e353220342e353220302030203120312e35383920312e363136632e3338342e3636352e35393420312e3431382e36303820322e31383776362e3033326c362e38352d342e303635762d362e303332632e3031332d2e3737352d2e3138352d312e3533382d2e3537322d322e32303861342e323520342e32352030203020302d312e3632352d312e3539354c34312e3435362032342e3539632d2e3636382d2e3338372d312e3432362d2e35392d322e3139372d2e3539732d312e3532392e3230342d322e3139372e35396c2d31342e38363420382e36353561342e323520342e32352030203020302d312e36323520312e353935632d2e3338372e36372d2e35383520312e3433342d2e35373220322e3230387631372e343431632d2e3031332e3737352e31383520312e3533382e35373220322e32303861342e323520342e323520302030203020312e36323520312e3539356c31342e38363420382e363535632e3636382e33383720312e3432362e353920322e3139372e353973312e3532392d2e32303420322e3139372d2e35396c31302e3038312d352e39303120362e38352d342e3036352031302e3038312d352e393031632e3636382d2e33383720312e3432362d2e353920322e3139372d2e353973312e3532392e32303420322e3139372e35396c372e38383420342e353961342e353220342e353220302030203120312e35383920312e363136632e3338342e3636352e35393420312e3431382e36303820322e31383776392e333131632e3031332e3737352d2e31383520312e3533382d2e35373220322e32303861342e323520342e32352030203020312d312e36323520312e3539356c2d372e38383420342e373231632d2e3636382e3338372d312e3432362e35392d322e3139372e3539732d312e3532392d2e3230342d322e3139372d2e35396c2d372e3838342d342e353961342e353220342e35322030203020312d312e3538392d312e363136632d2e3338352d2e3636352d2e3539342d312e3431382d2e3630382d322e313837762d362e3033326c2d362e383520342e30363576362e303332632d2e3031332e3737352e31383520312e3533382e35373220322e32303861342e323520342e323520302030203020312e36323520312e3539356c31342e38363420382e363535632e3636382e33383720312e3432362e353920322e3139372e353973312e3532392d2e32303420322e3139372d2e35396c31342e3836342d382e363535632e3635372d2e33393420312e3230342d2e393520312e3538392d312e363136732e3539342d312e3431382e3630392d322e3138375635352e353338632e3031332d2e3737352d2e3138352d312e3533382d2e3537322d322e32303861342e323520342e32352030203020302d312e3632352d312e3539356c2d31342e3939332d382e3738367a222066696c6c3d2223666666222f3e3c646566733e3c6c696e6561724772616469656e742069643d2242222078313d2230222079313d2230222078323d22323730222079323d2232373022206772616469656e74556e6974733d227573657253706163654f6e557365223e3c73746f702073746f702d636f6c6f723d2223636235656565222f3e3c73746f70206f66667365743d2231222073746f702d636f6c6f723d2223306364376534222073746f702d6f7061636974793d222e3939222f3e3c2f6c696e6561724772616469656e743e3c2f646566733e3c7465787420783d2233322e352220793d223233312220666f6e742d73697a653d223237222066696c6c3d2223666666222066696c7465723d2275726c282341292220666f6e742d66616d696c793d22506c7573204a616b617274612053616e732c44656a6156752053616e732c4e6f746f20436f6c6f7220456d6f6a692c4170706c6520436f6c6f7220456d6f6a692c73616e732d73657269662220666f6e742d7765696768743d22626f6c64223ea264697066735822122083481501b55875560346dfaba5db1066642ddb780e64ea29292169bc27e7a22364736f6c63430008110033",
  "linkReferences": {},
  "deployedLinkReferences": {}
}